:020000040800F2
:10000000481D0020FD5900081D5100081F5100081F
:10001000215100082351000825510008000000006C
:100020000000000000000000000000002751000850
:1000300029510008000000002B5100082D51000834
:100040002D5A0008315A0008355A0008395A00085C
:100050003D5A0008415A0008455A00083951000825
:10006000495A00084D5A0008515A0008555A0008CC
:10007000595A00085D5A0008615A0008655A00087C
:10008000695A00086D5A0008715A0008755A00082C
:10009000795A00087D5A0008815A0008855A0008DC
:1000A000895A00088D5A0008915A0008955A00088C
:1000B000995A00089D5A0008A15A0008A55A00083C
:1000C000A95A0008AD5A0008B15A0008B55A0008EC
:1000D000B95A0008BD5A000845510008C15A000825
:1000E000C55A0008C95A0008CD5A0008D15A00085C
:1000F000D55A0008D95A0008DD5A0008E15A00080C
:10010000E55A0008E95A0008ED5A0008F15A0008BB
:10011000F55A0008F95A00082F550008A95500089B
:10012000FD5A0008015B0008055B0008095B000838
:100130000D5B0008115B0008155B0008195B0008E7
:100140001D5B0008215B0008255B0008295B000897
:100150002D5B0008315B0008355B0008395B000847
:100160003D5B0008415B0008455B0008495B0008F7
:100170004D5B0008515B0008555B00080000000063
:10018000595B00085D5B000880B5DFF8B80ADFF84E
:10019000B81A01604FF482714160002181604FF410
:1001A0007061C16000210161002141614FF4007163
:1001B00081612021C1610021016200214162002191
:1001C00081620721C162002101630021416300F0C7
:1001D00085FF002804D06E21DFF8C00B01F0D6F8AF
:1001E00001BD10B586B004002068DFF85C1A8842B3
:1001F00019D1DFF8AC0B016851F48051016000683F
:1002000010F4805000900098E020019002200290AD
:1002100000200390032004900520059001A95FF0C1
:10022000904001F0F1F806B010BD01B40098411EF5
:1002300000910028FAD101B07047000010B40022EC
:10024000DFF8700A1021016000BF00BF00BF00BFCF
:1002500000BF00BF00BF00BF00BF00BF00BF00BFA6
:1002600000BF00BF00BF00BF00BF00BF00BF00BF96
:1002700000BF00BF00BF00BFDFF83C1A10230B60B7
:1002800000BF00BF00BF00BF00BF00BF00BF00BF76
:1002900000BF00BF00BF00BF00BF00BF00BF00BF66
:1002A00000BF00BF00BF00BF00BF00BF00BF00BF56
:1002B00000BF00BF00BF00BF00BF00BF00BF00BF46
:1002C00000BF00BF00BF00BF00BF00BF00BF00BF36
:1002D00000BF00BF00BF00BF00BF00BF00BF00BF26
:1002E00000BF00BF00BF00BF10230360DFF8B40AE7
:1002F00003689B07FAD5DFF8B03A4FF6FF741C602D
:1003000004682406FCD4186810230B60DFF89C1ADC
:100310000978002911D0DFF8981A0A8803009BB2E7
:100320009A4201D208800FE0DFF8881A02000B8899
:1003300092B29A4208D2088006E0DFF8781A088064
:100340000988DFF86C2A118080B210BC704770B544
:10035000040008252800451EC0B2002824D07600DD
:10036000200604D58020DFF8481C086003E08020C8
:10037000DFF8441A08602020DFF83C1A08600A20E1
:10038000FFF753FF2020DFF8281C086040215FF0B2
:10039000904001F0FDF9002801D056F0010601203F
:1003A000FFF743FF6400D5E73000C0B270BD10B561
:1003B00004002000C0B2FFF7CAFFFF20FFF7C7FF0D
:1003C000C0B210BD10B504001020DFF8EC190860B1
:1003D0002000C0B2FFF7BBFF1020DFF8D41B08607D
:1003E00010BD38B5002464251020DFF8CC19086052
:1003F0007020FFF7DCFF0400200604D42800451E0F
:10040000C0B20028F4D11020DFF8A41B086031BD71
:10041000DFF8401C0A68D2695206F9D50200D2B250
:100420000B681A850A68126A52F0400209680A626B
:10043000704700002DE9F04104000D001600370060
:100440005FF00008A84514D2DFF80C0C018814F8FE
:1004500008208918018014F80800FFF7D9FF380038
:10046000471E002801D000BFF9E7370018F1010846
:10047000E8E7BDE8F08110B504001020DFF8381976
:100480000860C520FFF763FF2000C0B2FFF75FFFE1
:100490001020DFF81C1B086010BD10B40022010002
:1004A0000B781B04491C0C7853EA04234C1C21785C
:1004B0000B43036010BC70472DE9F84F96B0002045
:1004C000059000200190DFF8940B01F0ECF9DFF8C3
:1004D000900B01F0E8F9FF20049000200390DFF872
:1004E000847B3C00039A0499200001F027FB002440
:1004F000002500F05FFD012078700020B870DFF863
:10050000688BD8F80000000EB871D8F80000000C15
:10051000F871D8F80000000A3872D8F80000787234
:100520007FF07F4600960098000CF8700098000A53
:1005300038710098787143F69822FF213800FFF750
:1005400079FF0020FFF764FFD8F8000001904020F9
:1005500002905FF0000B06AF5A460299380001F096
:10056000EDFA41F28830FFF760FEAA208DF81800FE
:100570009DF81800FFF74CFF5FF00008DFF8D87A0D
:1005800000203880DFF8E49ADFF8E4AADAF8000007
:10059000D9F800100843002836D1B04580F03F81DB
:1005A000402206A9404600F051FB4FF4FA60FFF7E5
:1005B0003CFEDFF8C09AB9F80000C0B2FFF728FF90
:1005C0004FF4FA60FFF731FEB9F8000080B2000A7C
:1005D000C0B2FFF71DFF4FF4FA60FFF726FE39881F
:1005E000B9F8000080B2000AB9F80020D2B252FA7D
:1005F00080F0411839804FF4AF62402106A8FFF720
:1006000019FF18F14008C8E7DFF86C0ADAF80010A3
:1006100081423ED1D9F8001081423AD1B04580F0F4
:10062000FE800198804580F0FA80402206A940466D
:1006300000F00CFB4FF4FA60FFF7F7FDDFF8349A97
:10064000B9F80000C0B2FFF7E3FE4FF4FA60FFF71D
:10065000ECFDB9F8000080B2000AC0B2FFF7D8FE86
:100660004FF4FA60FFF7E1FD3988B9F8000080B275
:10067000000AB9F80020D2B252FA80F0411839804D
:100680004FF4AF62402106A8FFF7D4FE18F14008EE
:10069000C4E7DAF80000002800F0C180D9F80000B3
:1006A000002800F0BC805046FFF7F7FE4846FFF7F1
:1006B000F4FED9F80000DAF8001088420BD2DAF81C
:1006C00000000090D9F80000CAF800000098C9F8AE
:1006D000000000200090402206A9404600F0B6FA33
:1006E00000200090032003900DF11D000290EB46C6
:1006F000039A0299584601F055FA0098D9F800106B
:10070000884243D2B04541D2019880453ED2402232
:1007100006A9404600F09AFA0020009003200390BA
:100720000DF11D000290EB46039A0299584601F024
:1007300039FADAF80000D9F80010884211D100988F
:10074000DAF80010884203D1002C01D144461AE0A7
:100750000098DAF80010884215D0002C13D04546D6
:1007600014E00098DAF80010884203D3002C01D17D
:10077000444608E00098D9F80010884203D3002CC2
:1007800001D0454602E018F14008BBE7002D46D0F5
:10079000002C09D0AC4202D2A046019507E0A54248
:1007A00005D2A846019402E04FF480508046B0453F
:1007B00035D2A84533D2402206A9404600F046FA79
:1007C0004FF4FA60FFF731FDDFF8A898B9F80000A0
:1007D000C0B2FFF71DFE4FF4FA60FFF726FDB9F82F
:1007E000000080B2000AC0B2FFF712FE4FF4FA60B8
:1007F000FFF71BFD3988B9F8000080B2000AB9F88C
:100800000020D2B252FA80F0411839804FF4AF6222
:10081000402106A8FFF70EFE18F14008C7E74FF485
:10082000FA60FFF702FD0020FFF7F2FD4FF4FA60D7
:10083000FFF7FBFC388880B2000AC0B2FFF7E8FD82
:1008400040F6B830FFF7F1FC3888C0B2FFF7E0FDA2
:100850004FF47A60FFF7E9FC40F2DC520521DFF843
:100860001C08FFF7E7FD00F0D8FB7FF00106DFF87A
:10087000EC0701680E6101F007F8DFF8E407016892
:100880000E6101F001F817B0BDE8F08F2DE9F84FC7
:10089000002400250026DFF8C477380001F003F8B3
:1008A000DFF8DC87002088F8000000F083FBDFF829
:1008B000B897D9F800B05FEA1B4B1BF1320B7FF001
:1008C0007F4AD34500D3D346564514D25D4512D254
:1008D000D821300000F07FF916F580366D1C98F8AD
:1008E00000006528F0DA642000FB05F0B0FBFBF0A7
:1008F00088F80000E8E7642088F80000642001F030
:10090000A4F90020C9F800000420FFF75BFD0020D7
:10091000DFF87017087000F080FB7FF00100396885
:100920000861380000F0B0FFBDE8F18F2DE9FC410F
:1009300004000D00160002208DF800006F46200014
:10094000000C78702000000AB87020008DF80300B9
:10095000FFF747FD0620FFF735FDFFF742FD1020AA
:10096000DFF8541408605FF000084046C0B2042865
:1009700007DA4046C0B2385CFFF7E9FC18F101081D
:10098000F3E700273800C0B2B04206D23800C0B248
:10099000285CFFF7DCFC7F1CF4E71020DFF8101662
:1009A0000860322001F051F9FFF71BFDBDE8F3812B
:1009B0002DE9F843DFF8D0562888401C2880288885
:1009C0002D280BD1DFF8C4060188491C0180DFF80F
:1009D000C0060188491C01800020288040275FF064
:1009E0000008DFF8B066340042463900200001F00C
:1009F000A5F8DFF86846200000F055FF00F0DAFAAD
:100A0000DFF894060078002805D0DFF8900601F0A2
:100A100080F901F02BF9DFF888060178B170417890
:100A2000F17081783171C17871710179B17140795A
:100A3000F071DFF87006018871850088B085DFF8F5
:100A400034060088B086DFF860060088F086DFF89C
:100A50005C160878002802D0087801280CD1DFF84D
:100A600050060778DFF84C8616F108093A0041462F
:100A7000484601F097F811E00878072802D0087876
:100A800006280BD1DFF828060778DFF8288616F14C
:100A900016093A004146484601F084F8DFF810068E
:100AA00090F800805FF00009DFF80876424649467A
:100AB000380001F077F8DFF800060088022190FB8B
:100AC000F1F07085DFF8F475388830803888401C84
:100AD0003880DFF8B80500887087DFF8B405008833
:100AE000B087DFF8DC050078002803D140F203402E
:100AF000F08702E040F20340F087DFF86C85D8F819
:100B00000000000C3083D8F800007083DFF8B49543
:100B100002224946D8F800003E3000F097F8D8F895
:100B200000004030C8F80000B9F8000040F203416E
:100B30008842EBD0B9F800004FF6FF718842E5D14A
:100B4000D8F800004038C8F80000D8F800007FF05E
:100B50007F4188420BD240223100D8F80000FFF7D5
:100B6000E5FED8F800004030C8F800000FE0002093
:100B7000C8F800000020288000203880FFF731FCF2
:100B80000620FFF71FFC2021002000F024F8D8F8F1
:100B9000000000280ED0D8F8000000050AD1FFF7A9
:100BA00020FC0620FFF70EFC2021D8F80000401C96
:100BB00000F011F8012001F048F80420FFF702FCD2
:100BC00000F02BFA7FF0010021680861200000F09E
:100BD0005BFEBDE8F183FEB504000D006846002110
:100BE0000022C0E900128DF800506E462000000C73
:100BF00070702000000A8DF8020020008DF80300BC
:100C0000FFF7EFFB0620FFF7DDFBFFF7EAFB102005
:100C10006949086000273800C0B2042806DA3800A5
:100C2000C0B2305CFFF793FB7F1CF4E71020DFF8C5
:100C3000801308604FF4967001F007F8FFF7D1FBBE
:100C4000F7BD0000FC120020003001402DE9FC41FE
:100C500004000D00160003208DF800006F462000F0
:100C6000000C78702000000A8DF80200FC70102043
:100C7000514908605FF000084046C0B2042807DA16
:100C80004046C0B2385CFFF762FB18F10108F3E799
:100C900000273800C0B2B04207D2FF20FFF757FB51
:100CA0003900C9B268547F1CF3E71020C0490860BE
:100CB000BDE8F38128080048180800480FB4BDF8C3
:100CC0000800BDF80010884202D2DFF8FC0362E0A1
:100CD000BDF80000BDF8081088425AD19DF80A00FE
:100CE0009DF80210884202D2DFF8E00353E09DF83D
:100CF00002009DF80A1088424BD19DF80B009DF828
:100D00000310884202D2DFF8C80344E09DF80300D4
:100D10009DF80B1088423CD19DF80C009DF8041002
:100D2000884202D24FF4616035E09DF804009DF8DE
:100D30000C1088422DD19DF80D009DF805108842B9
:100D400015D29DF805109DF80D00091A012906D14C
:100D50009DF806003C309DF80E10401A1BE09DF8EF
:100D600005009DF80D10401A3C21484313E09DF802
:100D700005009DF80D1088420BD19DF806009DF8E6
:100D80000E10884205D39DF806009DF80E10401AFB
:100D900001E05FF0FF3004B07047000054580008D5
:100DA00060100240083001400C3001403C1500202A
:100DB0000607002008070020280000482DE9F84316
:100DC00086B000F0F7F8002402A800210022C0E954
:100DD0000012FFF706FB0620FFF7F4FAE920FFF701
:100DE000F1FAFFF7FEFA0620FFF7ECFA0020FFF712
:100DF00042FB012000F029FFB24E022231004FF4E5
:100E0000805000FB04F03E30FFF720FF641C40F2EE
:100E100003493088484504D030884FF6FF71884236
:100E200002D0B4F5805FE7D3B4F5805F0CD3FFF751
:100E3000D8FA0620FFF7C6FA20210020FFF7CBFEE4
:100E400000208949086026E0641E002C20D04FF461
:100E5000805000FB04F00700641E4FF4805000FB3C
:100E600004F03E300500022231002800FFF7EEFEBC
:100E700040353088484504D030884FF6FF718842AD
:100E800001D0BD42EFD3B5F17E007749086002E0A2
:100E9000002075490860744801684029C0F08080CE
:100EA000082202A900684038FFF7D0FE02AEB178F0
:100EB00010220A20B3785FF0100C93FBFCF300FBC8
:100EC000031391FBF2F102FB11328DF80620F17849
:100ED0001022F3785FF0100C93FBFCF300FB03137C
:100EE00091FBF2F102FB11328DF8052031791022CD
:100EF00033795FF0100C93FBFCF300FB031391FBC1
:100F0000F2F102FB11328DF804207179102273790D
:100F10005FF0100C93FBFCF300FB031391FBF2F169
:100F200002FB11328DF80320B1791022B3795FF002
:100F3000100C93FBFCF300FB031391FBF2F102FB9B
:100F400011328DF80220F1791022F3795FF0100C44
:100F500093FBFCF300FB031091FBF2F102FB110089
:100F6000ADF8000000F032FF04A85A49082200F052
:100F700019FEDDE90023DDE90401FFF79FFE80464D
:100F8000B8F1520F0CDAB8F1000F09D44B48717860
:100F90009DF8082052EA012202800188491C018044
:100FA0000420FFF70FFA00F038F807B0BDE8F0832F
:100FB0001800004800B585B04748016831F48051F9
:100FC0000160E0215FF0904000F022FB20200090C3
:100FD00001200190022002900120039069465FF0F9
:100FE000904000F011FA8020009001200190012033
:100FF00002900120039069465FF0904000F004FAEF
:1010000040200090002001900220029069465FF08D
:10101000904000F0F9F905B000BD80B586B02E48CB
:10102000016851F480510160006810F48050009014
:101030000098E020019002200290002003900320FD
:1010400004900520059001A95FF0904000F0DCF9C4
:1010500007B000BD841200202A150020EC130020E8
:101060002C14002004000020101500201C15002066
:10107000181500206A1C0008E6E6E600185A000869
:10108000331500203B1500202015002024150020DA
:1010900026150020AC13002034150020601300201A
:1010A000EC1400202C150020221F00084115002000
:1010B0000A070020CC1400202E1500202215002045
:1010C00032150020281500203E85E1016F20280000
:1010D00080510100F41400206010024010B504009B
:1010E000002C01D101205AE0606A00280020A06293
:1010F00094F85D00002805D1002084F85C002000F1
:10110000FFF76FF8022084F85D002068006830F077
:1011100040002168086040F20172E068904201D30B
:10112000002101E04FF48051E068B0F5706F05D008
:10113000E068B0F5E06F01D00020A062206B0028CD
:1011400007D1E068904202D30220206301E0012031
:1011500020636268A0680243206902436069024319
:10116000A06910F400700243E0690243206A024360
:10117000A06A024320680260A269120C12F0040205
:10118000606A0243606B0243E06802430A432068DE
:10119000426000202066012084F85D00002010BD20
:1011A00010B500F0B3FE00F079F800F0BBFEFEF7DA
:1011B000EBFF00F089FF00F059FD684C0120207022
:1011C0000F2301226649674801F0C7FA20780028FA
:1011D00007D065490868002803D00868401E0860E9
:1011E000F4E761480068002804D12078002801D085
:1011F0000020207000F09DFD012000F026FDFFF78B
:10120000DDFD012000F021FD58480078002807D1BD
:101210000E20574908704FF498605649088006E040
:101220000820534908704FF45070524908805248C2
:10123000016851F04001016002F025F801F0FEFF65
:1012400001F0C2F84D490878002803D0002008704A
:10125000FFF7AEFB4A4C2078C92817D0CA2810D017
:10126000CB2809D0CD2818D1642000F0EEFCFFF780
:1012700023F900202070E3E7FFF708FB002020702F
:10128000DEE700F064FD00202070D9E73D480078DB
:10129000002801D100F09AFDD2E7D1E780B5B8B0BF
:1012A000012005905FF48030069002200F9003200B
:1012B0001090012011901A20129007201390022004
:1012C00014900420159005A802F052F8002803D0CD
:1012D000ED212D4800F05AF80F20009003200190D6
:1012E0000020029000200390002004900321684613
:1012F00002F0CCFA002803D0FB21234800F046F886
:10130000422016900020259000202A9016A802F076
:101310008FFC002804D040F203111B4800F036F87F
:101320004FF4007003F00EF8002804D04FF48571DC
:10133000154800F02BF802F0FAFB4FF47A71B0FB7D
:10134000F1F003F0D4F8042003F0D7F800220021D4
:101350005FF0FF3003F0AFF839B000BD3A15002060
:101360003B320008841200200000002032150020CB
:101370000A07002004070020003001403D1500202E
:10138000351500203E15002018580008FEE7F0B47F
:101390000246106895681318506803EB5004C007A4
:1013A0001DD54D441BE013F8017B05F8017B491E58
:1013B000F9D1A0B1B60813F8011B06F00306032EFD
:1013C00008BF13F8016B01EB06214942801C294438
:1013D00005D011F8016B05F8016B401EF9D1A3424D
:1013E0000ED013F8016B16F0030104BF13F8011BB4
:1013F000C91C30090F28DAD113F8010B0F30D6E7DA
:10140000F0BC02F10C007047F8B502000B0000249C
:10141000002000251968E140002900F0F88001262D
:101420001F6816FA04F10F403800002800F0ED8024
:101430005968022902D0596812291ED12100C90811
:1014400002EB81010F6A5FF00F0C14F00701C9B2C3
:1014500089001CFA01FC37EA0C07D3F810C014F01D
:101460000701C9B289001CFA01FC5CEA07073D00CC
:101470002100C90802EB81010D6217685FF0030CBF
:101480002100C9B249001CFA01F18F4393F804E02E
:101490001EF0030E2100C9B249001EFA01FE5EEAE9
:1014A000070717605968012908D05968022905D033
:1014B0005968112902D0596812291ED19568210056
:1014C000C9B249001CFA01F18D43D3F80CE02100A8
:1014D000C9B249001EFA01FE5EEA05059560D2F820
:1014E00004E016FA04F13EEA010E5968C1F3001156
:1014F000A14051EA0E0E77465760197911F00301A9
:10150000032909D1D16AA640B1435D68C5F3C0057E
:10151000A54029430F00D762D5682100C9B2490010
:101520001CFA01FC35EA0C059E682100C9B249008D
:101530008E403543D5605968C90066D5A8490E6804
:1015400056F001060E60096811F001010091009942
:10155000A44F2100890857F821605FF00F0C14F0A8
:101560000301C9B289001CFA01FC36EA0C06B2F18B
:10157000904F01D100251EE09B498A4201D10125EF
:1015800019E09A498A4201D1022514E098498A4219
:1015900001D103250FE097498A4201D104250AE0D1
:1015A00095498A4201D1052505E094498A4201D135
:1015B000062500E0072514F00301C9B289008D401B
:1015C0002E432100890847F821608D4D2968814309
:1015D0005F68FF0300D5014329608A4E3568854363
:1015E0005F68BF0300D505433560874E316881438E
:1015F0005F68FF0200D501433160844E3568854342
:101600005F68BF0200D505433560641C02E7F1BD89
:101610002DE9F04102000B000024002000251900F4
:10162000E140002900F0B280012717FA04F11940C7
:101630000800002800F0A8805FF0030C1168260065
:10164000F6B276001CFA06F6314311600F2621002F
:10165000C90802EB8101A6465FEADE0E02EB8E0EA0
:10166000DEF820E014F007085FFA88F85FEA8808DF
:1016700016FA08F83EEA080EC1F820E09168A6467E
:101680005FFA8EFE5FEA4E0E1CFA0EFE31EA0E0184
:101690009160D2F804E017FA04F13EEA010EC2F8B4
:1016A00004E0D2F80CE02100C9B249001CFA01FCA8
:1016B0003EEA0C0CC2F80CC0D16AA74031EA070719
:1016C000D762484F2100890857F8211014F0030C05
:1016D0005FFA8CFC5FEA8C0C16FA0CFC1CEA010128
:1016E0000D00B2F1904F02D15FF0000C25E03E49B1
:1016F0008A4202D15FF0010C1FE03C498A4202D1CC
:101700005FF0020C19E03A498A4202D15FF0030C03
:1017100013E038498A4202D15FF0040C0DE03649EB
:101720008A4202D15FF0050C07E034498A4202D1B7
:101730005FF0060C01E05FF0070C14F00301C9B282
:1017400089001CFA01FC65451ED114F00301C9B2E1
:1017500089008E4035002100890857F82110A943DF
:101760002600B60847F8261025490E6886430E6005
:1017700024490E6886430E6023490E6886430E6036
:1017800022490E6886430E60641C48E7BDE8F0817C
:10179000020010690B009BB2184201D0012000E04A
:1017A0000020C0B270471300DBB2002B03D00B0047
:1017B0009BB2836102E00B009BB28362704710B55D
:1017C000040013480168220092B2114206D02100A1
:1017D00089B20160200080B200F01CF810BD00004A
:1017E0006010024008000140000400480008004862
:1017F000000C004800100048001400480018004881
:101800000004014004040140080401400C040140AC
:1018100014040140704730B4002513E050F8042B45
:10182000D30744BFA9F101039A18091F042942F8FC
:10183000045BFAD213468C0744BF15809B1CC90772
:1018400048BF1D7050F8041B0029E7D130BC704719
:1018500010B50400002C01D1012014E094F83D00E3
:10186000002805D1002084F83C00200001F030FD64
:10187000022084F83D00211D206800F0EAF80120D4
:1018800084F83D00002010BD01000868C06850F0D9
:1018900001000A68D0600868006850F001000A681A
:1018A00010600020704701000868C06840084000D0
:1018B0000A68D0600868006A41F2111210420BD128
:1018C0000868006A40F24442104205D10868006886
:1018D000400840000A6810600020704710B50400FE
:1018E0002068006980071AD52068C068800716D56F
:1018F0007FF002002168086101202077206880695C
:1019000010F0030F03D0200002F01BFE05E02000C2
:1019100002F018FE200002F016FE0020207720685A
:10192000006940071AD52068C068400716D57FF0C7
:10193000040021680861022020772068806910F483
:10194000407F03D0200002F0FCFD05E0200002F003
:10195000F9FD200002F0F7FD0020207720680069E3
:1019600000071AD52068C068000716D57FF0080068
:1019700021680861042020772068C06910F0030FF7
:1019800003D0200002F0DDFD05E0200002F0DAFDCA
:10199000200002F0D8FD0020207720680069C006F2
:1019A0001AD52068C068C00616D57FF010002168DF
:1019B0000861082020772068C06910F4407F03D0B8
:1019C000200002F0BEFD05E0200002F0BBFD20007B
:1019D00002F0B9FD0020207720680069C0070AD511
:1019E0002068C068C00706D57FF001002168086143
:1019F000200002F0A9FD2068006900060AD52068D1
:101A0000C068000606D57FF08000216808612000CC
:101A100002F09BFD2068006940060AD52068C06876
:101A2000400606D57FF0400021680861200002F0E2
:101A30008DFD2068006980060AD52068C068800690
:101A400006D57FF0200021680861200002F07FFDAC
:101A500010BD10B400220468DFF8C030984212D0E4
:101A6000B0F1804F0FD0DFF8B82090420BD0DFF8F4
:101A7000B420904207D0DFF8B020904203D0DFF8C6
:101A8000AC20904203D134F070044A681443984269
:101A90001ED0B0F1804F1BD0DFF88420904217D0C9
:101AA000DFF88020904213D0DFF87C2090420FD0E6
:101AB000DFF8782090420BD0DFF87420904207D0F6
:101AC000DFF87020904203D0DFF86C20904203D101
:101AD00034F44074CA68144334F080044A691443EF
:101AE00004608A68C2620A68826298420FD0DFF896
:101AF0003C2090420BD0DFF83820904207D0DFF82E
:101B00003420904203D0DFF83020904201D10A699E
:101B100002630122426110BC70470000002C0140AA
:101B20000004004000080040000C00400034014068
:101B300000400140004401400048014062F30F2290
:101B400062F31F42401810F0030308D0C91A1FD3D4
:101B5000DB0748BF00F8012D28BF20F8022D130035
:101B600030B414461546103928BF20E93C00FAD895
:101B7000490728BF20E90C0048BF40F8042D890020
:101B800028BF20F8022D48BF00F8012D30BC704757
:101B9000C91818BF00F8012DCB0728BF00F8012D88
:101BA00070470E0462B38B0708D0521E11F8013B38
:101BB00000F8013B00F024808B07F6D1830740F04A
:101BC000208000BF103A07D330B4B1E83810103A83
:101BD000A0E83810F9D230BC530724BFB1E8081090
:101BE000A0E8081044BF51F8043B40F8043BD2077A
:101BF00024BF31F8022B20F8022B44BF0B7803706E
:101C00007047121F17D35B0009D151F8043B20F82D
:101C1000023B1B0C121F20F8023BF6D20BE051F8DE
:101C2000043B00F8013B1B0A20F8023B1B0C121F6F
:101C300000F8013BF3D238BF121D521E24BF11F829
:101C4000013B00F8013BF8D8704770B5040002F082
:101C50007FFC0500260016F1010F00D0761C02F073
:101C600077FC401BB042FAD370BD030010B59B4C0B
:101C70009B4820609B4860600020A0600120E060DD
:101C800000202061002060610020A0610020E06150
:101C900000202062200002F061FC002803D06121B6
:101CA0009148FFF773FB0021200002F07FFF00281E
:101CB00003D068218C48FFF769FB0021200002F067
:101CC000A7FF002803D06F218748FFF75FFB10BDF7
:101CD00010B586B0040020688149884217D1C02021
:101CE0000190122002900120039003200490042010
:101CF000059001A97D48FFF787FB7D48016851F4F5
:101D000000110160006810F400100090009806B007
:101D100010BD10B5040020687149884208D174488C
:101D2000016831F400110160C0217048FFF770FCB8
:101D300010BDE0B56F480088ADF8040001200090A8
:101D4000022301AAD021654802F06EFC07BD2DE9EF
:101D5000FE4F01A800210022C0E900120324DFF891
:101D600098B15D460DF10506220029003000FFF70D
:101D700019FF00208DF8080003261BF103070DF161
:101D80000908320039004046FFF70CFFDFF86C818C
:101D90004046FFF788FD32200090082301AAD02199
:101DA0004E4802F041FC5FF006095FF0000A52461F
:101DB00049465846FFF7C2FE7FF00100D8F80010F0
:101DC00008614046FFF760FDBDE8F78FFEB501A84A
:101DD00000210022C0E90012484C2000FFF763FDFB
:101DE0003E4D322000900123454AD021280002F0C8
:101DF0001BFC32200090072301AAD021280002F00A
:101E0000DDFC404908700220FFF71FFF3A489DF8AB
:101E10000410017001A94A7842708A7882700A79A8
:101E2000C2704A7902718979417103781025364967
:101E30000A220678102796FBF7F602FB063693FB7C
:101E4000F5F305FB13658D7143781025467810274F
:101E500096FBF7F602FB063693FBF5F305FB1365DD
:101E60004D71837810258678102796FBF7F602FBD4
:101E7000063693FBF5F305FB13650D71C37810254A
:101E8000C678102796FBF7F602FB063693FBF5F3B0
:101E900005FB1365CD70037910250679102796FB95
:101EA000F7F602FB063693FBF5F305FB13658D7021
:101EB000437910254079102690FBF6F002FB0032A2
:101EC00093FBF5F005FB10220A807FF001002168EA
:101ED00008612000FFF7D8FCF7BD00006013002068
:101EE00000540040B47E7040DC57000800040048F5
:101EF00058100240A21B0008EC140020EC13002034
:101F00003A32000834150020F414002080B5032074
:101F100002F0CBFA002002F0ADFE02F0BFFE00207E
:101F200002BD070238B586B06348016851F004016C
:101F30000160016811F0040105910599016851F0F3
:101F400080010160016811F0800105910599016827
:101F500051F001010160016811F00101059105993D
:101F6000016851F002010160016811F00201059160
:101F70000599016851F008010160006810F008003F
:101F800005900598012210215FF09040FFF70BFCAF
:101F90004A4C002202212000FFF705FC484D012297
:101FA00010212800FFF7FFFB00221E212000FFF771
:101FB000FAFB4FF6EF700090032001900020029092
:101FC00069462800FFF720FA49F6037000900320C5
:101FD00001900020029069465FF09040FFF714FAEC
:101FE0002020009001200190022002900120039007
:101FF00069465FF09040FFF707FA802000900120CB
:102000000190012002900120039069465FF090400A
:10201000FFF7FAF940200090002001900220029082
:1020200069465FF09040FFF7EFF910200090012023
:102030000190012002900120039069465FF09040DA
:10204000FFF7E2F910200090012001900220029099
:102050000320039069462800FFF7D6F9012000907D
:10206000002001900220029069462000FFF7CCF981
:102070001E2000900120019000200290012003907A
:1020800069462000FFF7C0F94FF22030009003208E
:1020900001900020029069462000FFF7B5F9042066
:1020A0000090032001900020029069460548FFF748
:1020B000ABF907B030BD00BF4C100240000400482F
:1020C00000080048000C004838B5DFF87845DFF814
:1020D00078052060DFF8740560600020A0600020B3
:1020E000E060002020610C2060610020A0610020E1
:1020F000E06100202062202060624FF40055E5631B
:10210000200000F0EBFA002804D0CC21DFF84005D5
:10211000FFF73CF90122DFF83C15200000F085FBB9
:10212000DFF83405DFF8341501604FF49641416063
:10213000002181600021C160002101610C21416109
:10214000002181610021C1610021016220214162E1
:10215000C56300F0C3FA002804D0DE21DFF8F004E4
:10216000FFF714F931BD10B586B004002068DFF820
:10217000D814884222D1DFF8E804016851F4003114
:102180000160006810F40030059005980C20009064
:102190000220019001200290032003900720049068
:1021A00069465FF09040FFF72FF9002201212620B9
:1021B00002F081F9262002F093F91FE02068DFF891
:1021C0009C1488421AD1DFF89804016851F48021E8
:1021D0000160006810F48020059005984FF440607D
:1021E000009002200190012002900320039007201C
:1021F00004906946DFF86C04FFF706F906B010BDDD
:102200002DE9F04303000027002400250020DFF81B
:1022100058643A0092B2C02A46DA17F1010C1CF158
:10222000010212F1010EF0461FFA88F833F8188007
:10223000BFB233F8177017EB08071FFA8CFC33F89E
:102240001CC017EB0C0792B233F8122017EB020CEC
:102250001EF1010E1EF1010919F1010818F1010723
:102260003A0092B233F81220BCEB020C1FFA8EFE39
:1022700033F81E20BCEB020C1FFA89F933F8192041
:10228000BCEB020C1FFA88F833F81820BCEB020CE8
:1022900064467F1C6D08012C01DB55F40005326893
:1022A00004FB0200361DB4E7DFF8C023954203D0DB
:1022B000DFF8BC23954201D10D6001E000220A60E5
:1022C000BDE8F08310B40400002013005A1EDBB2F6
:1022D000002B05D0C0B20B785840205C491CF4E7B5
:1022E000C0B210BC704710B4002213000C00DBB267
:1022F000E4B2A34208D21300DBB2C35CDB43140098
:10230000E4B20355521CF0E710BC7047F0B4020071
:102310000020002400232100C9B2402936DA611CC4
:102320004E1C751C2F00FFB232F81770E4B232F861
:102330001440E419C9B232F811106118F6B232F83B
:10234000164011EB040C6D1C6E1C771C7C1C2100CC
:10235000C9B232F81110BCEB010CEDB232F8151015
:10236000BCEB010CF6B232F81610BCEB010CFFB25C
:1023700032F81710BCEB010C641CC0B24008BCF171
:10238000010F01DB50F080000023C4E7C0B2F0BCB5
:10239000704710B40100002000220B6800242200C6
:1023A000D2B2082A0DDA2200D2B251F8222093428A
:1023B00005DA2200D2B251F8222013002000641C5A
:1023C000EDE7C0B210BC70472DE9F84F86B0A948C0
:1023D0000078032840F032815FF0000A00275FF0A8
:1023E00000084FF4C0740094A34DAB46DFF88C9204
:1023F0004E46009A59463000FFF7D4FB00263000C5
:10240000C0B2082817DA9E483100C9B200EB81013A
:102410003000C0B209EB4000FFF7F2FE02F086FC8C
:1024200031F0004102F094FC96493200D2B241F8FA
:102430002200761CE3E79348FFF7ABFF8DF800001E
:102440008F489DF8001050F82110884A914203D11E
:1024500000208D4908700DE09DF8001050F8210013
:102460008349884203D101208749087002E0022095
:10247000854908709DF80060C036082083490860CF
:10248000DFF80CA23800C0B29AF80010491C88424C
:102490000CDA300080B209EB4000FFF737FF7D49CE
:1024A0003A00D2B288547F1C4036E9E700208DF80C
:1024B000010075480078012806D19AF80010491CDF
:1024C000C9B27448FFF70FFF724F9AF80020390025
:1024D0007148FFF7F7FE9AF80010795CC0B28142AC
:1024E00002D15FF0010801E05FF000084046C0B291
:1024F000002800F086806948016891F004010160BD
:102500009AF8000005900497DFF89491059A0499D1
:102510004846FFF747FB9AF8000003900297DFF860
:102520008491CB46039A02995846FFF73BFB9AF8F1
:1025300000B001975C4F5A4601993800FFF732FB13
:10254000DFF868A19AF80000002806D199F80D007C
:10255000C0B240095649087002E0FF205449087093
:10256000FFF734FCDFF84C91514F387899F80010A0
:10257000884216D103A850490822FFF713FB01A88F
:102580004E490822FFF70EFBDDE90123DDE90301D7
:10259000FEF794FB132807DB387899F8001088427F
:1025A00002D1012046490870387889F800000820D7
:1025B0000190DFF80491DFF804B1019A49465846CA
:1025C000FFF7F0FA9AF8000000280DD138780028BB
:1025D00002D03878012803D10E203A49087010E063
:1025E0000E20394908700CE03878002802D038787D
:1025F000012803D108203349087002E0082032493D
:102600000870324832490A8803889A4205D30988FB
:102610000088091A2F48018004E002880888121AED
:102620002C48028000201349087000273A0021003E
:102630002800FFF783FA2848FFF726F907B0BDE81E
:10264000F08F0000841200200044004000A302002C
:10265000CC580008431500200C1200200048004010
:10266000581002400004004804050020B3CFF400D5
:102670004C300B003C1500208C1000200C07002073
:102680008C1400206C1400200B0700202804004844
:102690000A070020DC1400207C56000814040048BF
:1026A000AC140020CC140020BC14002032150020F3
:1026B0004115002040150020F414002008150020CA
:1026C0003D15002036150020371500200807002092
:1026D000060700202E1500202C14002010B5040041
:1026E000002C01D1012037E0A0690028FFD194F827
:1026F0007100002805D1002084F870002000FFF749
:1027000032FD242084F871002068006840084000F1
:1027100021680860200000F0C1F9012801D10120E2
:102720001AE0606A002802D0200000F00DFC20684A
:10273000406830F49040216848602068806830F03C
:102740002A00216888602068006850F00100216834
:102750000860200000F065FC10BD2DE9FC47050075
:102760000C0016001F005FF0000A95F87100202889
:1027700058D1002C03D0300080B2002801D10120B4
:1027800051E095F87000012801D102204BE00120B2
:1027900085F8700000206867212085F8710001F03D
:1027A000D7FE8146A5F85060A5F85260B5F85200F2
:1027B000002824D000974B4600228021280000F0FA
:1027C00067FC002801D003202DE0A868B0F5805FE9
:1027D0000BD12869002808D1A046B8F80000C00530
:1027E000C00D29680885A41C03E0207829680885A5
:1027F000641CB5F85200401EA5F85200D6E70097B9
:102800004B4600224021280000F042FC002801D065
:10281000032008E0202085F87100002085F8700072
:10282000002000E00220BDE8F68710B4030093F812
:102830007200202867D1002903D0100080B2002840
:1028400001D1012060E093F87000012801D102203D
:102850005AE0012083F870005965A3F85820A3F8C6
:102860005A20002018669868B0F5805F0BD118696F
:10287000002804D140F2FF10A3F85C001FE0FF2005
:10288000A3F85C001BE0986800280AD118690028AA
:1028900003D1FF20A3F85C0011E07F20A3F85C00C7
:1028A0000DE09868B0F1805F09D11869002803D164
:1028B0007F20A3F85C0002E03F20A3F85C0000202A
:1028C0005867222083F872001868806850F0010071
:1028D0001C68A0609868B0F5805F06D11869002870
:1028E00003D1DFF82800186602E0DFF8240018663C
:1028F000002083F870001868006850F490701C681D
:102900002060002000E0022010BC7047CD3100089C
:10291000633100082DE9F04105002868C669286880
:1029200007682868D0F8088016F00F04002C0AD138
:10293000B00608D5B80606D5286E002802D02800B3
:10294000296E8847A8E0002C00F080805FEAC870FC
:1029500002D417F4907F79D016F00100C0B200289D
:1029600008D0F80506D5012029680862686F50F084
:1029700001006867B0070BD518F00100C0B200284D
:1029800006D0022029680862686F50F0040068676A
:1029900070070BD518F00100C0B2002806D0042043
:1029A00029680862686F50F00200686730070DD52B
:1029B000B80604D418F00100C0B2002806D00820E0
:1029C00029680862686F50F008006867686F00281F
:1029D0003BD0B00607D5B80605D5286E002802D032
:1029E0002800296E8847686F000703D4286880682C
:1029F000400625D5280000F082FB28688068400644
:102A00001AD52868806830F0400029688860E86E30
:102A100000280DD00FF20D70E96E8863E86E02F0A9
:102A2000B5F9002811D0E86EE96E896B88470CE093
:102A3000280002F0D7F908E0280002F0D3F904E0FA
:102A4000280002F0CFF90020686725E0F00210D5D9
:102A50005FEA48200DD55FF48010296808622020C5
:102A600085F87100202085F87200280002F0BBF97B
:102A700012E0300608D5380606D5686E002802D068
:102A80002800696E884707E0700605D5780603D5EB
:102A9000280000F055FBFFE7BDE8F0812DE9F04785
:102AA0000400002110255FF0000A002600275FF0D7
:102AB0000008DFF8682420689042FFD0A3682069EE
:102AC000034360690343E06903432068D0F800C012
:102AD000DFF84C0410EA0C0C53EA0C0C2068C0F828
:102AE00000C02068D0F804C03CF4405CE06850EAC4
:102AF0000C0C2068C0F804C0D4F8189020689042EC
:102B000002D0206A50EA09092068806830F43060F9
:102B100059EA0000216888602068DFF808148842BC
:102B20001BD1DFF80404006810F00300002805D072
:102B3000022806D008D3032809D00BE001200500A5
:102B4000B6E002200500B3E004200500B0E0082054
:102B50000500ADE010200500AAE02068DFF8CC13E6
:102B600088421CD1DFF8C003006810F00C00002878
:102B700006D004280AD0082805D00C2809D00BE07C
:102B80000020050094E00220050091E004200500EB
:102B90008EE0082005008BE01020050088E020680A
:102BA000DFF88C1388421CD1DFF87C03006810F03A
:102BB0003000002806D010280AD0202805D0302860
:102BC00009D00BE00020050072E0022005006FE054
:102BD000042005006CE00820050069E010200500D5
:102BE00066E02068DFF84C1388421CD1DFF8380318
:102BF000006810F0C000002806D040280AD08028C5
:102C000005D0C02809D00BE00020050050E00220CC
:102C100005004DE0042005004AE00820050047E0DB
:102C20001020050044E02068DFF80C1388421ED114
:102C3000BD48006810F44070002809D0B0F5807FCE
:102C40000CD0B0F5007F06D0B0F5407F09D00BE086
:102C5000002005002CE00220050029E004200500EA
:102C600026E00820050023E01020050020E0206871
:102C700090421DD1AC48006810F44060002809D093
:102C8000B0F5806F0CD0B0F5006F06D0B0F5406F96
:102C900009D00BE0002005000AE00220050007E053
:102CA0000420050004E00820050001E010200500D4
:102CB000206890427CD12800C0B2002806D00228AB
:102CC00008D0042809D008280BD00EE000F032FF0D
:102CD00080460CE09948804609E000F0AFFE80464F
:102CE00005E04FF40040804601E001200700B8F104
:102CF000000F00F00A81616803204143884505D335
:102D000061684FF480504143414502D201200700E1
:102D1000FBE02800C0B2002806D0022814D0042806
:102D20001FD008282DD035E000F004FF02004FF43A
:102D30008073606840080021E3FB020162680023A1
:102D400002F052F8060027E06268520800237C482F
:102D50000021101859416268002302F045F806006E
:102D60001AE000F06BFE02004FF4807360684008C8
:102D70000021E3FB02016268002302F035F806003F
:102D80000AE06068400810F500006168B0FBF1F0EF
:102D9000060001E001200700B6F5407F05D3B6F537
:102DA000801F02D22068C660AFE001200700ACE0BF
:102DB000E069B0F5004F5AD12800C0B2002808D011
:102DC000012812D002281CD0042824D008282ED094
:102DD00037E000F0AFFE6168490811EB4001606820
:102DE000B1FBF0F080B206002DE000F0AEFE6168AD
:102DF000490811EB40016068B1FBF0F080B20600B9
:102E000021E060684F4911EB50016068B1FBF0F0C0
:102E100080B2060017E000F011FE6168490811EB6E
:102E200040016068B1FBF0F080B206000BE0606822
:102E3000400810F580306168B0FBF1F080B2060008
:102E400001E001200700102E0ED3B6F5803F0BD213
:102E50004FF6F0713140C6F3420001438A465046B6
:102E600080B22168C86050E0012007004DE02800D2
:102E7000C0B2002808D0012811D002281AD0042896
:102E800022D008282BD034E000F054FE616810EB0B
:102E900051006168B0FBF1F080B206002BE000F059
:102EA00054FE616810EB51006168B0FBF1F080B234
:102EB000060020E06068214911EB50016068B1FB19
:102EC000F0F080B2060016E000F0B8FD616810EB8B
:102ED00051006168B0FBF1F080B206000BE0606861
:102EE000400810F500406168B0FBF1F080B20600C8
:102EF00001E001200700102E05D3B6F5803F02D275
:102F00002068C66001E00120070000202066002044
:102F100060663800C0B2BDE8F08700000080004065
:102F2000F369FFEF00380140881002400044004080
:102F300000480040004C0040005000400024F400D5
:102F4000000024F40048E80190F82410C90707D5D0
:102F500001684A6832F40032816A0A4301684A60B3
:102F600090F82410890707D501684A6832F4803246
:102F7000C16A0A4301684A6090F82410490707D5DE
:102F800001684A6832F48022016B0A4301684A6092
:102F900090F82410090707D501684A6832F4004206
:102FA000416B0A4301684A6090F82410C90607D5AE
:102FB00001688A6832F48052816B0A4301688A6032
:102FC00090F82410890607D501688A6832F4005207
:102FD000C16B0A4301688A6090F82410490613D532
:102FE00001684A6832F48012016C0A4301684A6041
:102FF000016CB1F5801F07D101684A6832F4C00244
:10300000416C0A4301684A6090F82410090607D50C
:1030100001684A6832F40022816C0A4301684A6000
:1030200070477CB5040000260020606701F090FA2C
:1030300005002068006800070DD57FF07E400090F5
:103040002B0000225FF40011200000F021F800287E
:1030500001D003201BE02068006840070DD57FF0F9
:103060007E4000902B0000225FF48001200000F0E1
:103070000FF8002801D0032009E0202084F8710017
:10308000202084F87200002084F87000002076BDB3
:103090002DE9F04105000E0090461F00069C2868AF
:1030A000C0693040B04201D1012000E0002041461B
:1030B000C9B2884220D114F1010FF0D0002C04D005
:1030C00001F046FAC01B8442E9D22868006830F457
:1030D000D070296808602868806840084000296826
:1030E0008860202085F87100202085F8720000207B
:1030F00085F87000032000E00020BDE8F081016841
:10310000096831F4907102681160016889684908A2
:10311000490002689160202180F872100021016648
:103120007047000038B50400A56A0020A5F85A00D1
:103130000020A5F85200280001F054FE31BD000027
:1031400010B504002068006830F040002168086075
:10315000202084F8710000206066200001F05CFFF0
:1031600010BD70B50500B5F85C6095F872002228B6
:1031700025D12868808C0400686D411C696516EAB9
:1031800004010170B5F85A00401EA5F85A0080B23B
:1031900000281AD12868006830F490702968086007
:1031A000286880684008400029688860202085F8E9
:1031B000720000202866280001F02FFF05E0286833
:1031C000008B50F008002968088370BDF8B5050031
:1031D000B5F85C7095F87200222827D12868808C99
:1031E0000400686D060017EA04003080686D801CDA
:1031F0006865B5F85A00401EA5F85A0080B200284C
:103200001AD12868006830F490702968086028682E
:1032100080684008400029688860202085F8720096
:1032200000202866280001F0F8FE05E02868008BE1
:1032300050F0080029680883F1BD00E11FB5454C36
:1032400045482060002060600020A06040F6F570D6
:10325000E0600020A0612000FEF7FAFA002803D009
:103260003E213E48FEF792F8202000900020029078
:103270006946200001F0D2FE002803D045213748DE
:10328000FEF784F81FBD1FB5354C364820604FF25D
:10329000C03060600020A0603220E0600020A061AB
:1032A0002000FEF7D5FA002803D055212B48FEF761
:1032B0006DF820200090002002906946200001F067
:1032C000ADFE002803D05C212448FEF75FF81FBD47
:1032D0001CB504002068204988421CD1224801689E
:1032E00051F010010160006810F01000009000988B
:1032F00000220021362001F0DEF8362001F0F0F83F
:1033000014480121026851627FF0010102681161D5
:10331000FEF7BAFA1DE020681249884219D1124816
:10332000016851F020010160006810F02000009059
:10333000009800220321372001F0BDF8372001F06A
:10334000CFF87FF0010006490968086101200749AC
:10335000086013BDEC1300200010004090580008D6
:103360002C14002000140040581002402414004087
:103370002DE9FC41040000252078C00640F1A28020
:10338000DFF87068306810F00C0F5ED1DFF86078FD
:103390003868800704D5A069002801D1012073E2B4
:1033A0003868000703D5386810F0F00005E0DFF852
:1033B00050080068000910F0F000216A88421AD213
:1033C000206A00F0CDFB002801D001205CE23868C3
:1033D00050F008003860396831F0F001206A01438C
:1033E0003960DFF82008016831F47F41E26951EA71
:1033F0000221016019E0386850F00800386039682F
:1034000031F0F001206A01433960DFF8F807016804
:1034100031F47F41E26951EA02210160206A00F043
:103420009FFB002801D001202EE200F007FBDFF80F
:10343000D8173268C2F30312895CC840DFF8BC17A2
:103440000860002001F016FC3CE0A069002826D0AE
:10345000DFF89C67306850F00100306001F078F8C8
:1034600005003068800706D401F072F8401B03287D
:10347000F7D3032008E2306850F00800306031686C
:1034800031F0F001206A01433160DFF8780701680C
:1034900031F47F41E26951EA0221016012E0DFF874
:1034A0005067306840084000306001F051F8050076
:1034B0003068800706D501F04BF8401B0328F7D38E
:1034C0000320E1E12078C00761D5DFF82807016813
:1034D00011F00C0108290BD0006810F00C000C282A
:1034E00010D1DFF81407006810F00300032809D199
:1034F000DFF8FC060068800349D56068002846D1E3
:103500000120C1E16068B0F5803F06D1DFF8E00638
:10351000016851F48031016018E06068B0F5A02FB7
:103520000AD1DFF8CC06016851F4802101600168FE
:1035300051F48031016009E0DFF8B406016831F42C
:1035400080310160016831F48021016060680028E9
:103550000ED000F0FDFF0500DFF894060068800340
:1035600015D400F0F5FF401B6528F5D303208BE14F
:1035700000F0EEFF0500DFF878060068800306D54E
:1035800000F0E6FF401B6528F5D303207CE120789E
:10359000800759D5DFF85C06016811F00C01042999
:1035A0000BD0006810F00C000C281AD1DFF8480688
:1035B000006810F00300022813D1DFF83406006819
:1035C000400504D5E068002801D101205CE1DFF866
:1035D0003406016831F0F851226951EA0261016054
:1035E00032E0E06800281CD0DFF80466306850F450
:1035F0008070306000F0ACFF05003068400506D4F4
:1036000000F0A6FF401B0328F7D303203CE1DFF8BE
:10361000F405016831F0F851226951EA0261016054
:1036200012E0DFF8CC65306830F48070306000F074
:103630008FFF05003068400506D500F089FF401B6C
:103640000328F7D303201FE12078000728D56069FD
:10365000002812D0DFF8A865306850F00100306013
:1036600000F076FF05003068800719D400F070FF85
:10367000401B0328F7D3032006E1DFF88465306898
:1036800040084000306000F063FF050030688007AC
:1036900006D500F05DFF401B0328F7D30320F3E0BD
:1036A0002078400779D50026DFF860753868C000BB
:1036B0000AD4386850F080503860386810F0805074
:1036C0000090009801200600DFF84485D8F800003B
:1036D000C00513D4D8F8000050F48070C8F800007A
:1036E00000F036FF0500D8F80000C00506D400F051
:1036F0002FFF401B0328F6D30320C5E0A068012854
:1037000006D1DFF81005016851F00101016017E0F2
:10371000A06805280AD1DFF8FC04016851F0040113
:103720000160016851F00101016009E0DFF8E40483
:103730000168490849000160016831F00401016035
:10374000A068002810D000F003FF0500DFF8C404D3
:103750000068800719D400F0FBFE401B41F289315C
:103760008842F3D303208FE000F0F2FE0500DFF87B
:10377000A4040068800708D500F0EAFE401B41F26F
:1037800089318842F3D303207EE03000C0B20128A3
:1037900003D1386830F080503860A06A002872D0B9
:1037A000DFF85004006810F00C000C2869D0A06A03
:1037B000022840D1DFF83864306830F08070306023
:1037C00000F0C6FE07003068800106D500F0C0FE9C
:1037D000C01B0328F7D3032056E0DFF81C14206B2E
:1037E000401E626B120252EA0012A06B000952EAFC
:1037F0004042E06A0243E06B4008401E52EA4052F9
:10380000206C4008401E52EA40620A60306850F066
:1038100080703060086850F08070086000F098FE9A
:103820000500306880012ED400F092FE401B032872
:10383000F7D3032028E0DFF8B863306830F08070F9
:1038400030603068000108D43068800005D4DFF8AB
:10385000A8030168890889000160DFF89C130A68E1
:10386000DFF8B40302400A6000F072FE0500306821
:10387000800108D500F06CFE401B0328F7D303201D
:1038800002E0012000E00020BDE8F6812DE9F041D2
:1038900004000D000026DFF88473386810F007007C
:1038A000A8420BD23868C008C00028433860386886
:1038B00010F00700A84201D00120BDE02078C00729
:1038C00075D56068032806D1DFF8240300688001FD
:1038D0001CD40120B0E06068022806D1DFF8100394
:1038E0000068800312D40120A6E06068002806D199
:1038F000DFF8FC020068800708D401209CE0DFF8B4
:10390000F0020068400501D4012095E0DFF8E48270
:10391000D8F800108908890060680143C8F80010D1
:1039200000F016FE0600606803280ED1D8F80000EB
:1039300010F00C000C283AD000F00AFE801B41F277
:1039400089318842F2D3032076E0606802280ED1E4
:10395000D8F8000010F00C00082828D000F0F8FD7E
:10396000801B41F289318842F2D3032064E0606811
:1039700000280DD1D8F8000010F00C0F17D000F07F
:10398000E7FD801B41F289318842F3D3032053E0E5
:10399000D8F8000010F00C00042808D000F0D8FD82
:1039A000801B41F289318842F2D3032044E0207821
:1039B000800707D5DFF83C120A6832F0F002A068F1
:1039C00002430A60386810F0070085420BD238685D
:1039D000C008C00028433860386810F00700A842CB
:1039E00001D0012028E02078400707D5DFF8041235
:1039F0000A6832F4E062E06802430A602078000757
:103A000008D5DFF8F001016831F46051226951EA0C
:103A1000C201016000F012F8DFF8EC11DFF8D421E8
:103A20001268C2F30312895CC840DFF8D011086045
:103A3000002001F01FF90020BDE8F081F0B4002261
:103A4000002300240225022600206A490F6817F08F
:103A50000C0F0AD00F6817F00C070C2F1CD1664F03
:103A60003F6817F00307012F16D1614FD7F800C048
:103A70005FEA0C7C04D4624F3F68C7F3032702E07F
:103A80003F68C7F30317664A52F827200F6817F0FC
:103A90000C0F10D110000EE00F6817F00C07042F68
:103AA00002D1604F380006E00F6817F00C07082FAE
:103AB00001D15D4F3800096811F00C010C2934D197
:103AC0004D4F396811F003010C003968C1F3021140
:103AD000491C0E002100022902D003290AD013E05C
:103AE0005049B1FBF6FC3968C1F3062101FB0CFC1F
:103AF000634611E04C49B1FBF6FC3968C1F306217D
:103B000001FB0CFC634607E0B2FBF6FC3968C1F32D
:103B1000062101FB0CFC63463968C1F34161491C75
:103B200049000D00B3FBF5F10800F0BC70473348C5
:103B30000068704780B5FFF7FAFF3C492D4A1268CC
:103B4000C2F30222895CC84002BD80B5FFF7EFFFD7
:103B50003649284A1268C2F3C222895CC84002BDB5
:103B6000F8B5040000260025284F3868C00003D5AA
:103B700000F0E2FB01000FE0386850F08050386040
:103B8000386810F080500090009800F0D5FB0100DC
:103B9000386830F080503860B1F5007F09D1812C51
:103BA00015D3A12C02D30220050010E0012005004E
:103BB0000DE0812C02D30320050008E0802C02D107
:103BC0000220050003E0702C01D1012005001348FC
:103BD0000268D208D2002A430260006810F0070091
:103BE000A84201D0012000E00020F2BD000000004A
:103BF00000100240081002400C1002400005002096
:103C00009410024004100240EC5900085810024081
:103C10000070004090100240FFFFEEFE00200240C6
:103C2000085900080024F400001BB700205A0008BF
:103C30002DE9F84F0500002400265FF0000800275A
:103C40002868000531D5686E002810D0B0F5800FC7
:103C500013D0B0F5000F03D0B0F5400F14D014E02E
:103C6000DFF8DC03016851F4803101600FE00021CE
:103C7000281D00F0EFF9804609E0002115F1200031
:103C800000F0A2FA804602E001E0012080464046B2
:103C9000C0B2002808D1DFF8AC130A6832F4400241
:103CA000686E02430A6000E047462868C00431D5C8
:103CB000A86E002810D0B0F1807F13D0B0F1007F43
:103CC00003D0B0F1407F14D014E0DFF87403016832
:103CD00051F4803101600FE00021281D00F0BAF995
:103CE000804609E0002115F1200000F06DFA8046C1
:103CF00002E001E0012080464046C0B2002808D121
:103D0000DFF840130A6832F04072A86E02430A607E
:103D100000E04746286880037CD55FF00009DFF8A3
:103D200028A3DAF80000C0000DD4DAF8000050F043
:103D30008050CAF80000DAF8000010F080500090BF
:103D4000009801208146DFF804B3DBF8000050F44E
:103D50008070CBF8000000F0FBFB0600DBF80000F1
:103D6000C00506D400F0F4FB801B0328F6D3032023
:103D700080464046C0B2002841D1DFF8D4B2DBF81B
:103D8000000010F440700400002C16D0D5F8840018
:103D9000844212D0DBF8000030F440700400DBF8FD
:103DA000000050F48030CBF80000DBF8000030F465
:103DB0008030CBF80000CBF80040E0070FD500F0D2
:103DC000C7FB0600DBF80000800708D400F0C0FB4A
:103DD000801B41F289318842F4D30320804640465B
:103DE000C0B2002809D1DBF8001031F44071D5F8D9
:103DF00084000143CBF8001002E0474600E047464C
:103E00004846C0B2012805D1DAF8000030F08050F1
:103E1000CAF800002878C00707D5DFF828120A681A
:103E200092089200A86B02430A602878800706D5A2
:103E300084490A6832F00C02E86B02430A60287871
:103E4000400706D57F490A6832F03002286C0243E9
:103E50000A602878000706D57A490A6832F0C0025D
:103E6000686C02430A602878C00606D575490A685E
:103E700032F44072A86C02430A602878800606D5A6
:103E800070490A6832F44062E86C02430A602868AC
:103E9000800506D56B490A6832F44022E86D02437A
:103EA0000A602868400506D566490A6832F440125F
:103EB000286E02430A602878400606D561490A68E0
:103EC00032F44052286D02430A602878000606D575
:103ED0005C490A6832F44042686D02430A6028680F
:103EE000C00506D557490A6832F44032A86D02432E
:103EF0000A60286880041ED552490A6832F0406280
:103F0000E86E02430A60E86EB0F1006F05D14C48DC
:103F1000016851F4801101600DE0E86EB0F1806F2E
:103F200009D10121281D00F095F880464046C0B215
:103F3000002800D04746286800031ED541490A687A
:103F400032F04062286F02430A60286FB0F1006FC0
:103F500005D13B48016851F4801101600DE0286FE4
:103F6000B0F1806F09D10121281D00F073F880465F
:103F70004046C0B2002800D04746286840031ED5FE
:103F800030490A6832F04062686F02430A60686F25
:103F9000B0F1006F05D12A48016851F48011016029
:103FA0000DE0686FB0F1806F09D10121281D00F08C
:103FB00051F880464046C0B2002800D047462868E5
:103FC000400424D51F490A6832F04052A86F0243CA
:103FD0000A60A86FB0F1805F0AD10221281D00F0AD
:103FE00039F880464046C0B2002810D047460EE05F
:103FF000A86FB0F1005F0AD1022115F1200000F096
:10400000E3F880464046C0B2002800D04746286802
:10401000000406D50B490A6832F08042E86F02437B
:104020000A602868C00307D506490A6822F00042E2
:10403000D5F8800002430A603800C0B2BDE8F28FB4
:104040000C100240881002405810024000700040DE
:10405000901002402DE9F04105000C0000260027D9
:10406000AE49086810F0030F12D0086810F0030082
:104070002A68904209D12868002806D00868C0F351
:104080000210401C6968884232D0012007002FE0EE
:104090002868012804D01BD303280FD007D317E0CA
:1040A0009F480068800701D40120070012E09C4867
:1040B0000068400501D4012007000BE09848026821
:1040C000920304D40068400301D40120070001E0FA
:1040D000012007003800C0B2002809D10A6832F078
:1040E0007302286802436868401E52EA00120A60A0
:1040F0003800C0B2002862D1DFF82482D8F800006E
:1041000030F08060C8F8000000F022FA0600D8F80D
:104110000000000106D500F01BFA801B0328F6D32F
:10412000032007003800C0B2002848D1002C0CD171
:104130007C490A687C480240A86852EA0022E86884
:10414000000952EA40420A601CE0012C0DD1754979
:104150000A6876480240A86852EA002228694008A6
:10416000401E52EA40520A600CE06E490A687048EC
:104170000240A86852EA002268694008401E52EADC
:1041800040620A60D8F8000050F08060C8F8000073
:1041900000F0DEF90600D8F80000000106D400F0B7
:1041A000D7F9801B0328F6D3032007003800C0B2DC
:1041B000002804D15B490A68A86902430A603800F4
:1041C000C0B2BDE8F08100002DE9F04105000C000F
:1041D000002600275149086810F0030F12D0086824
:1041E00010F003002A68904209D12868002806D000
:1041F0000868C0F30210401C6968884232D0012070
:1042000007002FE02868012804D01BD303280FD013
:1042100007D317E042480068800701D40120070057
:1042200012E03F480068400501D4012007000BE080
:104230003B480268920304D40068400301D4012083
:10424000070001E0012007003800C0B2002809D1B2
:104250000A6832F07302286802436868401E52EA16
:1042600000120A603800C0B2002852D1DFF8B080D6
:10427000D8F8000030F08050C8F8000000F068F96D
:104280000600D8F80000800006D500F061F9801B18
:104290000328F6D3032007003800C0B2002838D125
:1042A000002C0CD123490A681F480240A86852EA32
:1042B0000022E868000952EA40420A600CE01D4909
:1042C0000A681B480240A86852EA00222869400890
:1042D000401E52EA40620A60D8F8000050F0805058
:1042E000C8F8000000F034F90600D8F8000080009B
:1042F00006D400F02DF9801B0328F6D30320070015
:104300003800C0B2002804D10A490A68686902432B
:104310000A603800C0B2BDE8F08100000C10024015
:104320000010024010100240FF80FDFFFF809FFF41
:10433000FF80FFF914100240DFF88400006810F4D9
:10434000C060704702000021B2F5007F27D1DFF87E
:104350007000036813F4C063B3F5007F2DD00368C9
:1043600033F4C06353F400730360DFF8580000684F
:10437000DFF85430B0FBF3F3322043431900002937
:1043800006D0DFF848000068400501D5491EF6E771
:10439000DFF83800006840050FD503200EE0DFF895
:1043A0002000036813F4C063B3F5806F05D0036881
:1043B00033F4C06353F4806303600020704700004F
:1043C000007000400005002040420F0014700040C3
:1043D00010B410F00703524C22684FF6FF010A4058
:1043E000504951EA03210A43226010BC70474C48EF
:1043F0000068C0F302207047012210F01F018A40BC
:10440000494903005BB25B0941F82320704710B4AF
:10441000020052B2002A09D50A01444B040064B2DA
:1044200014F00F04234403F8042C04E00A01404B69
:10443000040064B21A5510BC704770B4030013F046
:104440000704D4F10700052801D3042001E0D4F1CA
:104450000700251D072D01D2002500E0E51E0126DD
:1044600016FA00F0401E0140A94016FA05F56D1E2F
:104470002A401143080070BC704710B50400601E4C
:10448000B0F1807F01D301200EE0601E2949086051
:104490000F215FF0FF30FFF7BAFF002026490860C8
:1044A000072026490860002010BD10B50400200038
:1044B000FFF78EFF10BD2DE9F04104000D0016003E
:1044C0000027FFF794FF8046320029004046FFF79F
:1044D000B4FF0100200040B2FFF799FFBDE8F08172
:1044E00010B50400200040B2FFF786FF10BD10B5E4
:1044F00004002000FFF7C1FF10BD042805D10F49BB
:104500000A6852F004020A6004E00C490A6832F0BA
:1045100004020A60704780B500F012F801BD000087
:104520000CED00E00000FA0500E100E018ED00E00D
:1045300000E400E014E000E018E000E010E000E03B
:1045400070477047704770477047704770477047B3
:1045500001480068704700BF1415002010B5040022
:10456000002C01D101205EE094F84100002805D123
:10457000002084F840002000FDF7AAFB242084F8E6
:1045800041002068006840084000216808606068B9
:1045900030F07060216808612068806830F4004065
:1045A00021688860E068012805D1A06850F40040C7
:1045B0002168886004E0A06850F4044021688860A5
:1045C000E068022803D14FF4006021684860206849
:1045D000406840F0007050F4004021684860206856
:1045E000C06830F400402168C860216960690143F7
:1045F000A06951EA00212068C160E169206A014395
:10460000206801602068006850F00100216808609F
:1046100000206064202084F84100002020630020F6
:1046200084F84200002010BD2DE9FC4704000D0075
:1046300016001F00DDF828805FF0000A94F84100A2
:10464000202840F0B88094F84000012801D10220D1
:10465000B2E0012084F84000FFF77AFF8146CDF8F0
:104660000090192301224FF40041200000F084F94A
:10467000002801D003209FE0212084F84100102071
:1046800084F84200002060646662678500206063F1
:10469000608DB0F5807F0ED3FF2020854FF4005051
:1046A00000905FF08073228DD2B2290089B2200081
:1046B00000F061FA0DE0608D20854FF4005000900D
:1046C0005FF00073228DD2B2290089B2200000F081
:1046D00052FA608D00284BD04A464146200000F037
:1046E00076F9002806D0606C042801D1012063E02F
:1046F000032061E0606A411C616200782168886281
:10470000608D401E6085208D401E2085208D0028F4
:10471000DFD1608D0028DCD0CDF800904346002228
:104720008021200000F028F9002801D0032043E078
:10473000608DB0F5807F0DD3FF2020850020009094
:104740005FF08073228DD2B2290089B2200000F080
:1047500012FABEE7608D2085002000905FF00073A4
:10476000228DD2B2290089B2200000F004FAB0E70D
:104770004A464146200000F056F9002806D0606CF9
:10478000042801D1012017E0032015E02020216832
:10479000C86120684168DFF8B801014020684160C5
:1047A000202084F84100002084F84200002084F892
:1047B0004000002000E00220BDE8F6872DE9FC471C
:1047C00004000D0016001F00DDF828805FF0000ACD
:1047D00094F84100202840F0B88094F84000012867
:1047E00001D10220B2E0012084F84000FFF7B0FEC2
:1047F0008146CDF80090192301224FF4004120009A
:1048000000F0BAF8002801D003209FE0222084F8AD
:104810004100102084F842000020606466626785D1
:1048200000206063608DB0F5807F0ED3FF2020856F
:104830004FF4105000905FF08073228DD2B22900A7
:1048400089B2200000F097F90DE0608D20854FF4CB
:10485000105000905FF00073228DD2B2290089B20F
:10486000200000F088F9608D00284BD04A46414670
:10487000200000F001F9002806D0606C042801D166
:10488000012063E0032061E0606A411C61622168ED
:10489000496A0170208D401E2085608D401E608514
:1048A000208D0028DFD1608D0028DCD0CDF800906D
:1048B000434600228021200000F05EF8002801D04D
:1048C000032043E0608DB0F5807F0DD3FF2020856D
:1048D000002000905FF08073228DD2B2290089B24F
:1048E000200000F048F9BEE7608D20850020009090
:1048F0005FF00073228DD2B2290089B2200000F04F
:104900003AF9B0E74A464146200000F08CF800280A
:1049100006D0606C042801D1012017E0032015E0C7
:1049200020202168C86120684168DFF82400014028
:1049300020684160202084F84100002084F8420073
:10494000002084F84000002000E00220BDE8F68747
:1049500000E800FE01688969890702D50021026824
:10496000916201688969C90705D40168896951F0B4
:1049700001010268916170472DE9F04105000E00C8
:1049800090461C00069F286880693040B04201D1E3
:10499000012000E000204146C9B2884214D114F140
:1049A000010FF0D0002C04D0FFF7D2FDC01B8442D1
:1049B000E9D2202085F84100002085F8420000203F
:1049C00085F84000032000E00020BDE8F08170B5CC
:1049D00005000C00160028688069800721D4320089
:1049E0002100280000F088F8002801D0012019E0FB
:1049F00014F1010FEFD0002C04D0FFF7A9FD801BAC
:104A00008442E8D2686C50F020006864202085F869
:104A10004100002085F84200002085F84000032076
:104A200000E0002070BD70B505000C00160028687D
:104A3000806980061ED432002100280000F05CF856
:104A4000002801D0012016E0002C04D0FFF780FDE3
:104A5000801B8442EBD2686C50F0200068642020F8
:104A600085F84100002085F84200002085F84000CC
:104A7000032000E0002070BD70B505000C0016009A
:104A800028688069400735D432002100280000F0F2
:104A900033F8002801D001202DE0286880698006C5
:104AA00015D520202968C861286841683D48014023
:104AB0002868416000206864202085F841000020BB
:104AC00085F84200002085F84000012013E0002C0A
:104AD00004D0FFF73DFD801B8442D1D2686C50F0BA
:104AE00020006864202085F84100002085F84000FF
:104AF000032000E0002070BD70B505000C0016001A
:104B000028688069C00634D528688069800614D476
:104B100014F1010FF8D0002C04D0FFF719FD801B11
:104B20008442F1D2202085F84100002085F842001F
:104B3000002085F8400003201CE010202968C8618F
:104B400020202968C8612800FFF704FF2868416811
:104B5000144801402868416004206864202085F8DA
:104B60004100002085F84200002085F84000012027
:104B700000E0002070BDF0B4049D00260468676862
:104B8000094C27400C00A4B2A405A40D94465FFA7A
:104B90008CFC54EA0C441C432C4327430468676094
:104BA000F0BC704700E800FE009800FC020092F89C
:104BB000410020282AD192F84000012801D102208A
:104BC00025E0012082F84000242082F8410010688E
:104BD000006840084000136818601068006830F4EE
:104BE00080501368186010680068084313681860E4
:104BF0001068006850F0010013681860202082F8E7
:104C00004100002082F84000002000E002207047B0
:104C100030B40200002392F84100202827D192F8F6
:104C20004000012801D1022022E0012082F840004A
:104C3000242082F841001068006840084000146891
:104C400020601068046834F4706454EA0124106829
:104C500004601068006850F001001568286020208A
:104C600082F84100002082F84000002000E002208D
:104C700030BC704710B50400074800684FF47A71E3
:104C8000B0FBF1F0FFF733FC002221005FF0FF30B2
:104C9000FFF711FC002010BD0005002080B5214861
:104CA000016851F001010160006810F001000090FE
:104CB00000981D48016851F080510160006810F0B3
:104CC0008050009000980320FFF7EFFB00220021A6
:104CD0007FF00B00FFF7EFFB002200217FF00A00BE
:104CE000FFF7E9FB002200217FF00900FFF7E3FB5B
:104CF000002200217FF00400FFF7DDFB00220021ED
:104D00007FF00300FFF7D7FB002200217FF00100B6
:104D1000FFF7D1FB002200215FF0FF30FFF7CBFB54
:104D200001BD00BF6010024058100240C11768B1B9
:104D30004840401AB0FA80F29040D21CC907C2F530
:104D4000846241EA025202EBD02140057047000024
:104D5000C1F30A5340F2FE329B1A14DDD3F1200353
:104D60004FEAE17208DDC90241EA505141F00040CA
:104D7000D84080185040704703F2E13010B1D24360
:104D800082F00040704700207047000038B50400F2
:104D9000002594F82500022804D00420E0630120B7
:104DA00005001CE02068006830F00E0021680860F3
:104DB0002068006840084000216808600121606C9C
:104DC0008140206C4160012084F82500002084F897
:104DD0002400A06B002802D02000A16B8847280087
:104DE000C0B232BD70477047BBBBE1B1B2F5803F86
:104DF00080F07E80022A1ED98C46B1FBF2F102FBC4
:104E000011C31B0443EA1043B3FBF2FC02FB1C3347
:104E100080B240EA0343B3FBF2F002FB103240EAF7
:104E20000C4000237047022A05D98446B0FBF2F0FB
:104E300002FB10C270474AB105D100F001024908D7
:104E40005FEA3000704700220023704700F018B975
:104E50000B000200002100207047904271EB030C10
:104E6000F6D3B3F5803F2FD2F0B5B3FA83F7B1FA9A
:104E700081F4A7F10F0E3D1B5340CEF1200602FA3C
:104E80000EF2F3415340B5F10F0746D80F3C2C44C6
:104E90004140C4F12006A040F1414140B1FBF3F68E
:104EA00003FB1611A2FB0645001BA94102D2761E88
:104EB0008018594180EA010221FA0EF362FA0EF2DB
:104EC00000215A403046F0BD30B4B1FBF3FC03FB87
:104ED0001C11A2FB0C45001BA94103D2ACF1010C33
:104EE0008018594130BC02460B466046002170478D
:104EF000B2F1807F65D3F0B5B2FA82F7B1FA81F4EE
:104F0000C7F10F063D1B22FA06F307F1110EF2411D
:104F100020355A40B5F10F07B8D94140C4F12006F9
:104F2000A040F1414140B1FBF3FC03FB1C11A2FB8B
:104F30000C45001BA94103D2BCF1010C801859415A
:104F40000F2F12D30F3FC90341EA5041B1FBF3F6D3
:104F500003FB1611A2FB0645D4EBC030A94102D2D7
:104F6000761E8018594146EACC3C07B34140C7F150
:104F70002006B840F1414140B1FBF3F603FB1611A6
:104F8000A2FB0645001BA94102D2761E801859419A
:104F900080EA010221FA0EF3C7F1200462FA0EF250
:104FA0000CFA07F05A402CFA04F13043F0BD80EAC5
:104FB000010221FA0EF3002162FA0EF260465A4015
:104FC000F0BD8C46B1FBF2F102FB11C31B0243EAB8
:104FD0001063B3FBF2FC02FB1C331B024CEA002003
:104FE00043EA1063B3FBF2FC02FB1C331B024CEAE6
:104FF000002043EA1063B3FBF2FC02FB1C331B02EC
:105000004CEA002043EA1063B3FBF2FC02FB1C32C3
:105010004CEA0020002370477047704730B402000C
:1050200092F83C00012801D1022022E0012082F800
:105030003C00106843681068846810680E4DA842F0
:1050400003D010680D4DA84203D133F470034868B3
:10505000034333F070030868034334F08004886826
:1050600004431068436010688460002082F83C00AC
:10507000002030BC70470000002C0140003401408B
:1050800070470000F0B4010000240022002320003B
:1050900080B2C02835DA601C461C751C2F00BFB2D8
:1050A00031F81770A4B231F81440E41980B231F825
:1050B00010002018B6B231F8164010EB040C6D1C2D
:1050C0006E1C771C7C1C200080B231F81000BCEBF9
:1050D000000CADB231F81500BCEB000CB6B231F8E3
:1050E0001600BCEB000CBFB231F81700BCEB000C93
:1050F000641C5B08BCF1010F01DB53F400030022C8
:10510000C5E7DFF8D004834203D0DFF8CC04834244
:1051100001D1012000E00020F0BC70477047FEE79D
:10512000FEE7FEE7FEE770477047704780B500F086
:105130008DFAFFF7F0F901BD80B50220FCF73FFBC7
:1051400001BD00002DE9F843DFF890442000FDF791
:10515000E1FBDFF88C643078002826D0DFF8845437
:105160002878DFF884143278114401F8010C307883
:10517000401C3070DFF874743878002806D15FF076
:10518000FF33012229002000FDF7E7FA00202870F4
:105190003078072840F0BC81CA20DFF8541408702A
:1051A0000020307000203870B2E1DFF84874D7E991
:1051B0000001090241EA10610002C7E90001DFF8BD
:1051C0002454D7E900012A78002310431943C7E982
:1051D0000001D7E900015FF0FF324FF6FF73104086
:1051E0001940072200F03AFA03CD00000000000049
:1051F0004D000000EFEFEFEFEF0000000D010000A9
:1052000003C2C2C2C2C20000D700000003C9C9C99C
:10521000C9C900007100000000CACACACACA000099
:105220009500000003CACACACACA0000890000006B
:1052300003CBCBCBCBCB000025000000E900000066
:105240000120DFF8B413087000200021C7E9000135
:105250005FF0FF33012229002000FDF77EFAADE068
:10526000CB20DFF88C13087000200021C7E9000173
:105270000120DFF8881308705FF0FF330122290056
:105280002000FDF76AFA99E00020DFF87413087037
:10529000C920DFF85C13087000200021C7E9000175
:1052A0000120DFF8581308705FF0FF330122290056
:1052B0002000FDF752FA81E001203070002000212B
:1052C000C7E900012878002807D05FF0FF330122EA
:1052D00029002000FDF741FA02E00120C3490870CF
:1052E0006CE00020C64908700120C44908705920AC
:1052F000BF49087000200021C7E900015FF0FF33BB
:10530000012229002000FDF728FA57E00020BA49C1
:1053100008700020B64908700020B84908700020C5
:105320000021C7E9000149E0B34A1078002832D0D3
:105330002878CD2807D05FF0FF3301222900200014
:10534000FDF70BFA27E0D7E900014FF6FF785FF091
:10535000000910EA080011EA09014CF6CD5180B2AB
:10536000884218D100201070D7E90001080A0021F6
:10537000A4490860D7E90001000C40EA0140090C8B
:1053800020F07F40A0490860CD2099490870002096
:105390000021C7E900019D49087800280ED028782F
:1053A000E22803D100209A4A107005E02878E3280B
:1053B00002D10120964A1070002008708C4E30787F
:1053C000002852D0DFF8348298F8000000284CD032
:1053D000287859282ED0C92802D0CB2822D044E0E2
:1053E000DFF81C9299F8000006280DDA99F8000001
:1053F000411C89F800105FF0FF3301227A49C0B2E6
:1054000001442000FDF7A9F999F80000062808DBFF
:1054100000203070002088F8000000200021C7E93B
:10542000000122E05FF0FF3301227A492000FDF7FE
:1054300094F91AE07248017803290CDA01784A1CC1
:1054400002705FF0FF3301227348C9B201442000AB
:10545000FDF783F908E000203070002088F8000094
:1054600000200021C7E90001FFE76C4F38780028D1
:1054700024D0DFF8AC81287858F8200000281DD00F
:10548000307800281AD12878D02817DB2878E0282F
:1054900014DA5FF0FF330122287858F8201020003A
:1054A000FDF75BF93878002802D03878401E387054
:1054B000FF20297858F82110087027E0594F3878D4
:1054C000002823D0DFF85881287858F820000028D9
:1054D0001CD03078002819D12878902816DB28783D
:1054E0009E2813DA5FF0FF330122287858F8201045
:1054F0002000FDF732F93878002802D03878401EB5
:105500003870FF20297858F8211008700020287082
:10551000344D012229002000FDF787F901240026DF
:10552000320021002800FCF709FBBDE8F1832DE9DA
:10553000F0413D4D2800FCF7D1F93C4C2078002883
:105540001BD14FF4BF753A4EB71CB0462A00390044
:105550004046FCF727FBFAF771FEA6F87E01300003
:10556000FFF790FD00281DD0082032490860012077
:105570002070C0203049088014E02F4801882F4A4D
:105580001288914209D20488611C0180FAF756FE04
:105590002B49A4B221F8140004E02800FCF783F999
:1055A00003202070BDE8F08138B5264C2000FCF7C0
:1055B00095F9254D2878401C287028780A2807DBA3
:1055C0002000FCF770F91848FCF75EF900202870FD
:1055D00031BD0000B3CFF4004C300B00841200202A
:1055E0003815002043150020EC1400203915002048
:1055F00035150020001500203F1500203B15002028
:105600003E150020181500201C1500203A1500201A
:105610003215002033150020285A000836150020C6
:105620000401002037150020EC1300203C15002059
:105630008C100020180400483015002004070020BA
:105640000C0700202C14002042150020024801689D
:10565000491C0160704700BF1415002030B42EF0C3
:10566000010EBEE83010A04204BFA94203E0521E62
:10567000F7D15EF804CB30BCE6447047005EBCE274
:10568000613FDD83C29C7E20A3FD1F419DC3217F1E
:10569000FCA2401E5F01E3BD3E6082DC237D9FC112
:1056A000421CFEA0E1BF5D0380DE3C62BEE0025C06
:1056B000DF81633D7C22C09E1D43A1FF4618FAA4F2
:1056C00027799BC584DA3866E5BB5907DB856739DE
:1056D000BAE406581947A5FB7826C49A653BD987D2
:1056E000045AB8E6A7F91B45C6987A24F8A6441AC6
:1056F00099C7257B3A6486D85B05E7B98CD2306EB2
:10570000EDB3510F4E10F2AC2F7193CD114FADF39D
:10571000702ECC92D38D6F31B2EC0E50AFF1134D91
:10572000CE90722C6D33D18F0C52B0EE326C8ED085
:10573000530DEFB1F0AE4C1291CF2D73CA94762871
:10574000ABF517490856B4EA6937D58B5709EBB55D
:1057500036688AD495CB2977F4AA4816E9B7550B51
:1057600088D6346A2B7597C94A14F6A8742AC89645
:10577000154BA9F7B6E80A54D7896B35104801686C
:1057800051F4700101600F49086850F00100086091
:1057900000200D4A10600A680C4802400A604FF46D
:1057A00080500B4A1060086830F4802008600020A8
:1057B000084908605FF00060074908607047000012
:1057C00088ED00E00010024008100240FFFFF6EAFA
:1057D0000C1002401810024008ED00E0443A5C5002
:1057E000726F6A6563744D43555C73746D33326CCC
:1057F00034373650726F6A656374735C6473705CBF
:10580000707269656D4E444D6473705C5372635C75
:105810006932632E63000000443A5C50726F6A651F
:1058200063744D43555C73746D33326C343736504A
:10583000726F6A656374735C6473705C70726965BF
:105840006D4E444D6473705C5372635C6D61696E40
:105850002E630000443A5C50726F6A6563744D4376
:10586000555C73746D33326C34373650726F6A65C1
:105870006374735C6473705C707269656D4E444DE3
:105880006473705C5372635C7370692E6300000014
:10589000443A5C50726F6A6563744D43555C73742F
:1058A0006D33326C34373650726F6A656374735C73
:1058B0006473705C707269656D4E444D6473705CA6
:1058C0005372635C74696D2E63000000443A5C504F
:1058D000726F6A6563744D43555C73746D33326CDB
:1058E00034373650726F6A656374735C6473705CCE
:1058F000707269656D4E444D6473705C5372635C85
:1059000075736172742E6300A0860100400D030060
:10591000801A060000350C0040420F0080841E00F3
:1059200000093D0000127A000024F40000366E01E8
:105930000048E801006CDC0210B5074979441831D1
:10594000064C7C44163404E00A68081D114488475C
:105950000146A142F8D110BD2C0000004800000013
:105960004EF68851CEF20001086840F470000860DD
:10597000BFF34F8FBFF36F8F4FF00070E1EE100A4F
:105980007047000093BEFFFF380E00000C07002098
:1059900000000000FBB9FFFFC8010000300100005B
:1059A0000000002000F00DF8002801D0FFF7C4FF30
:1059B000AFF300800020AFF30080FBF7F1FB00F0B5
:1059C00002F80120704700F001B800000746384691
:1059D00000F002F8FBE7000080B5AFF30080024A58
:1059E00011001820ABBEFBE72600020000000000FB
:1059F000000000000102030406070809014880476F
:105A0000014800477D5700080D5A0008AFF3008099
:105A1000FFF7A6FFFFF7C6FFEFEFEFEFEF00000085
:105A2000000000000102030400020700FFF7FEBFB0
:105A3000FFF7FEBFFFF7FEBFFFF7FEBFFFF7FEBF9A
:105A4000FFF7FEBFFFF7FEBFFFF7FEBFFFF7FEBF8A
:105A5000FFF7FEBFFFF7FEBFFFF7FEBFFFF7FEBF7A
:105A6000FFF7FEBFFFF7FEBFFFF7FEBFFFF7FEBF6A
:105A7000FFF7FEBFFFF7FEBFFFF7FEBFFFF7FEBF5A
:105A8000FFF7FEBFFFF7FEBFFFF7FEBFFFF7FEBF4A
:105A9000FFF7FEBFFFF7FEBFFFF7FEBFFFF7FEBF3A
:105AA000FFF7FEBFFFF7FEBFFFF7FEBFFFF7FEBF2A
:105AB000FFF7FEBFFFF7FEBFFFF7FEBFFFF7FEBF1A
:105AC000FFF7FEBFFFF7FEBFFFF7FEBFFFF7FEBF0A
:105AD000FFF7FEBFFFF7FEBFFFF7FEBFFFF7FEBFFA
