:020000040800F2
:10000000D80F0020F15B0008894B00088B4B0008DB
:100010008D4B00088F4B0008914B0008000000003A
:10002000000000000000000000000000934B0008EA
:10003000954B000800000000974B0008994B000802
:100040003D5C0008415C0008455C0008495C000814
:100050004D5C0008515C0008555C0008A54B000889
:10006000595C00085D5C0008615C0008655C000884
:10007000695C00086D5C0008715C0008755C000834
:10008000795C00087D5C0008815C0008855C0008E4
:10009000895C00088D5C0008915C0008955C000894
:1000A000995C00089D5C0008A15C0008A55C000844
:1000B000A95C0008AD5C0008B15C0008B55C0008F4
:1000C000B95C0008BD5C0008C15C0008C55C0008A4
:1000D000C95C0008CD5C0008B14B0008D15C000889
:1000E000D55C0008D95C0008DD5C0008E15C000814
:1000F000E55C0008E95C0008ED5C0008F15C0008C4
:10010000F55C0008F95C0008FD5C0008015D000872
:10011000055D0008095D00083F500008CD53000848
:100120000D5D0008115D0008155D0008195D0008EF
:100130001D5D0008215D0008255D0008295D00089F
:100140002D5D0008315D0008355D0008395D00084F
:100150003D5D0008415D0008455D0008495D0008FF
:100160004D5D0008515D0008555D0008595D0008AF
:100170005D5D0008615D0008655D0008000000002D
:10018000695D00086D5D000880B5DFF8E407DFF801
:10019000E41708604FF48270DFF8D8174860002039
:1001A000DFF8D01788604FF47060DFF8C817C860B8
:1001B0000020DFF8C01708610020DFF8B817486199
:1001C0004FF40070DFF8AC1788612020DFF8A41727
:1001D000C8610020DFF89C1708620020DFF8941740
:1001E00048620020DFF88C1788620720DFF8841748
:1001F000C8620020DFF87C1708630020DFF874175E
:100200004863DFF8700700F093FF002804D07021E6
:10021000DFF8DC0B01F0E4F801BD00B587B0006841
:10022000DFF84C1788421DD1DFF8C80B006850F486
:100230008050DFF8C01B0860DFF8B80B006810F4CE
:10024000805000900098E020019002200290002051
:100250000390032004900520059001A95FF09040D1
:1002600001F0D0F807B000BD00201020DFF8881B97
:10027000086000BF00BF00BF00BF00BF00BF00BFDD
:1002800000BF00BF00BF00BF00BF00BF00BF00BF76
:1002900000BF00BF00BF00BF00BF00BF00BF00BF66
:1002A00000BF00BF00BF00BF00BF00BF00BF00BF56
:1002B00000BF00BF00BF00BF00BF00BF00BF00BF46
:1002C00000BF00BF00BF00BF00BF00BF00BF00BF36
:1002D00000BF00BF00BF00BF00BF1020DFF81C1B25
:1002E00008604FF6FF70DFF8181B0860DFF8140B8A
:1002F00000688007FAD5DFF80C0B00680006FAD416
:10030000DFF8FC0A0068DFF8001B0978002913D029
:10031000DFF8EC1C098880B2814203D2DFF8E01CD0
:10032000088012E0DFF8E41A098880B288420CD213
:10033000DFF8D81A088008E0DFF8D01A0880DFF864
:10034000CC1A0988DFF8B82C118080B2704701B44C
:100350000098411E00910028FAD101B0704770B595
:10036000040008261BE08020DFF8A41A0860202083
:10037000DFF89C1A08600A20FFF7E9FF2020DFF869
:10038000EC1C086040215FF0904001F0CEF900289D
:1003900001D055F001050A20FFF7D9FF64003000B5
:1003A000461EC0B2002807D06D002006DBD5802095
:1003B000DFF8B81C0860DAE72800C0B270BD80B56D
:1003C000C0B2FFF7CCFFFF20FFF7C9FFC0B202BDEC
:1003D00080B51021DFF8382A1160C0B2FFF7BFFFE7
:1003E0001020DFF8881C086001BD80B500201020B7
:1003F000DFF81C1A08607020FFF7E1FF0006FAD54D
:100400001020DFF8681C086001BD80B500201020B6
:10041000DFF8FC1908600520FFF7D1FFC007FAD408
:100420001020DFF8481C086001BDDFF8841C096853
:10043000C9694906F9D5C0B2DFF8741C0968088596
:10044000DFF86C0C0068006A50F04000DFF8601CB8
:1004500009680862704700002DE9F04104000D00B2
:10046000160037005FF0000807E000BF3800471EA5
:100470000028FAD1370018F10108A8450DD2DFF89D
:10048000340C008818F804104018DFF8281C088085
:1004900018F80400FFF7C9FFE8E7BDE8F08110B5E0
:1004A00004001020DFF868190860C520FFF757FF27
:1004B0002000C0B2FFF753FF1020DFF8B01B086028
:1004C00010BD0021020011780904521C137851EA72
:1004D0000321521C12781143016070472DE9F0414D
:1004E00092B000250024DFF8D00B01F085F9DFF889
:1004F000CC0B01F081F9FF210022DFF8C44B200072
:1005000001F0CAFA0026002700F07CFD0120DFF888
:10051000B01B48700020DFF8A81B8870DFF8A40B20
:100520000068000EDFF8981B8871DFF8980B0068F0
:10053000000CDFF88C1BC871DFF8880B0068000A1C
:10054000DFF87C1B0872DFF87C0B0068DFF8701B9B
:1005500048727FF07F4000900098000CDFF8601B2D
:10056000C8700098000ADFF8581B08710098DFF87F
:10057000501B487143F69822FF21DFF8440BFFF728
:100580006BFF0020FFF751FFDFF8380B04684021B4
:10059000002201AD280001F07FFA41F28830FFF718
:1005A000D6FEAA208DF804009DF80400FFF73DFF59
:1005B0004FF480550020DFF8FC1A0880DFF8080BA4
:1005C0000068DFF8081B09680843002815D17FF090
:1005D0007F40854280F0E580402201A9280000F09C
:1005E000DCFB4FF4FA60FFF7B2FE4FF4AF6240213C
:1005F00001A8FFF731FF4035E9E7DFF8CC0A0068D2
:10060000DFF8CC1A88421FD1DFF8C00A0068DFF893
:10061000C01A884218D17FF07F40854280F0C180A7
:10062000A54280F0BE80402201A9280000F0B5FB61
:100630004FF4FA60FFF78BFE4FF4AF62402101A840
:10064000FFF70AFF4035E6E7DFF87C0A006800287C
:1006500000F0A780DFF8740A0068002800F0A1808D
:10066000DFF8640AFFF72DFFDFF8600AFFF729FFC4
:10067000DFF8580A0068DFF8501A096888420FD27C
:10068000DFF8440A00680090DFF8400A0068DFF8ED
:10069000381A08600098DFF8341A086000200090CB
:1006A000402201A9280000F078FB002000900322DE
:1006B0000DF109010DF10008404601F021FA009802
:1006C000DFF8081A0968884244D203E0002E24D1DA
:1006D0002E0040357FF07F4085423BD2A54239D283
:1006E000402201A9280000F058FB002000900322BE
:1006F0000DF109010DF10008404601F001FADFF8A3
:10070000C8090068DFF8C419096888420FD1009849
:10071000DFF8B41909688842D8D00098DFF8A81922
:1007200009688842D5D0002ED3D02F0012E000985F
:10073000DFF894190968884203D3002E01D12E00F6
:10074000C7E70098DFF8841909688842C1D3002EF2
:10075000BFD02F00002F24D0002E09D0BE4202D2DD
:1007600035003C0017E0B74215D23D00340012E0DE
:100770004FF480550FE0402201A9280000F00DFB46
:100780004FF4FA60FFF7E3FD4FF4AF62402101A898
:10079000FFF762FE40357FF07F40854201D2BD42C7
:1007A000E9D34FF4FA60FFF7D2FD0020FFF73DFEDA
:1007B0004FF4FA60FFF7CBFDDFF8F808008880B24D
:1007C000000AC0B2FFF731FE40F6B830FFF7BFFDB8
:1007D000DFF8E0080088C0B2FFF727FE4FF47A6028
:1007E000FFF7B5FD40F2DC520521DFF8E808FFF71E
:1007F00033FE00F03DFC7FF00100DFF8BC18096813
:100800000861DFF8B40800F0E9FF7FF00100DFF8CD
:10081000AC1809680861DFF8A40800F0DFFF12B027
:10082000BDE8F08170B584B0002600250024DFF813
:10083000880800F0E1FF0020DFF89C18087000F045
:10084000E1FBDFF880080068060C32367FF07F405D
:10085000864216D37FF07F4613E0D821200000F0B7
:100860006DFA14F580346D1CDFF86C08007865288B
:1008700007DA642000FB05F0B0FBF6F0DFF858184B
:1008800008707FF07F40844201D2B542E5D36420F6
:10089000DFF8441808704FF47A7001F093F94FF4C0
:1008A0008050DFF8381808604FF48050DFF81418D3
:1008B00008600020DFF8281808804FF4805000906E
:1008C0004FF480500190DFF81C08008802900C2241
:1008D00000A9002000F014F80420FFF779FD0020A3
:1008E000DFF80418087000F0C3FB7FF00100DFF8A8
:1008F000C81709680861DFF8C00700F06FFF7FBD07
:100900007CB50C00150002218DF80010010C8DF84B
:100910000110010A8DF802108DF80300FFF765FD44
:100920000620FFF755FDFFF760FD1020DFF8E0140B
:100930000860002605E000A8F6B2305CFFF70FFD66
:10094000761CF6B2042EF6DB002604E0F6B2305D2B
:10095000FFF705FD761CF6B2AE42F7D31020DFF8A4
:100960000C170860322001F02DF9FFF73EFD73BD32
:10097000003001409C05002010B5DFF870070088AA
:10098000401CDFF868170880DFF8600700882D2812
:1009900011D1DFF85C070088401CDFF8541708808D
:1009A000DFF840070088401CDFF838170880002077
:1009B000DFF83817088040210022DFF83847200090
:1009C00001F06AF8DFF8F00600F016FF00F01AFBFD
:1009D000DFF824070078DFF81C178870DFF81807A5
:1009E0004078DFF81017C870DFF80C078078DFF860
:1009F00004170871DFF80007C078DFF8F8164871AF
:100A0000DFF8F4060079DFF8EC168871DFF8E80605
:100A10004079DFF8E016C871DFF8E0060088DFF8FB
:100A2000D4164885DFF8D4060088DFF8C816888514
:100A3000DFF8CC060088DFF8BC168886DFF8C4062D
:100A40000088DFF8B016C886DFF8BC06DFF8BC16F1
:100A50000978081810F8010CC0B2000910F00E0057
:100A6000C0B2002802D0C0B202280AD1DFF89C062A
:100A70000278DFF89416DFF89846200001F040F87D
:100A80000FE0C0B20C2802D0C0B20E2809D1DFF8A6
:100A90007C060278DFF87016DFF87846200001F057
:100AA0002FF8DFF8680602780021DFF85C462000A6
:100AB00001F026F8DFF860060088022190FBF1F0D3
:100AC000DFF830164885DFF854060088DFF8241672
:100AD0000880DFF848060088401CDFF840160880D0
:100AE000DFF80C060088DFF80C164887DFF8F405FD
:100AF0000088DFF800168887DFF8240600780028D1
:100B000005D140F20340DFF8EC15C88704E040F25D
:100B10000120DFF8E015C887DFF8A80500687FF03E
:100B20007F4188420FD24022DFF8C815DFF89405D4
:100B30000068FFF7E5FEDFF88C0500684030DFF85D
:100B40008415086011E04FF48050DFF890150860BC
:100B50004FF48050DFF86C1508600020DFF88C152A
:100B600008800020DFF8B4150880DFF85805006819
:100B7000DFF868150968401AB0F5805F7BD1DFF8AF
:100B80005C05006810F58050DFF850150860DFF84C
:100B90004C050068DFF82C150860FFF726FC0620DE
:100BA000FFF716FC2021DFF83405006800F0C6F8D6
:100BB000DFF82C050088B0F5AA7F28DCDFF82405D3
:100BC0000088DFF860158860DFF810050068DFF83E
:100BD00054150860DFF804050068DFF84815486020
:100BE000FFF703FC0620FFF7F3FB0C22DFF83415B8
:100BF000DFF8EC0400880C235843FFF781FEDFF890
:100C0000E0040088401CDFF8D814088086E0FFF775
:100C1000ECFB0620FFF7DCFBFFF7F7FB20210020B1
:100C200000F08CF80020DFF8B8140880DFF8940496
:100C30000068DFF8F0144860DFF8A0040068DFF80F
:100C4000E4140860DFF89C040088DFF8D81488609A
:100C5000FFF7CBFB0620FFF7BBFB0C22DFF8C41429
:100C60000020FFF74DFEDFF878040088401CDFF815
:100C70007014088052E0DFF84C040068DFF8A41418
:100C80004860DFF858040068DFF898140860DFF85F
:100C900054040088DFF88C148860DFF8440400886E
:100CA000B0F5AA7F16DCFFF7A0FB0620FFF790FB4C
:100CB0000C22DFF87014DFF8280400880C23584356
:100CC000FFF71EFEDFF818040088401CDFF8101440
:100CD000088020E0FFF789FB0620FFF779FBFFF78C
:100CE00094FB2021002000F029F80020DFF8F01309
:100CF0000880FFF77AFB0620FFF76AFB0C22DFF87B
:100D000024140020FFF7FCFDDFF8D4030088401C0A
:100D1000DFF8CC130880012000F054FF0420FFF717
:100D200057FB00F0A5F97FF00100DFF88C1309688C
:100D30000861DFF8840300F051FD10BD1CB500AA66
:100D40000023002418C2083A8DF80010010C8DF819
:100D50000110010A8DF802108DF80300FFF745FB22
:100D60000620FFF735FBFFF740FB102028490860FD
:100D7000002405E000A8E4B2205CFFF7F0FA641C50
:100D8000E4B2042CF6DB1020B84908604FF49670EA
:100D900000F018FFFFF729FB13BD7CB50C00150010
:100DA00003218DF80010010C8DF80110010A8DF857
:100DB00002108DF80300102015490860002605E098
:100DC00000A8F6B2305CFFF7CAFA761CF6B2042E21
:100DD000F6DB002605E0FF20FFF7C1FAF6B230553A
:100DE000761CF6B2AE42F6D31020A049086073BD5F
:100DF000705A00086010024018080048280800488F
:100E00000C30014008300140CD07002020050020B3
:100E1000280000481FB5002400F0F4F80020BF4966
:100E20000880FFF7E2FA0620FFF7D2FAE920FFF781
:100E3000CFFAFFF7DAFA0620FFF7CAFA0020FFF729
:100E40002EFB012000F0BEFE00E0641CA4B2B4F54D
:100E5000AA7F16DC0C22B349A4B20C2000FB04F0DC
:100E6000FFF79BFFAF48006810F1010FEDD1AD48CF
:100E7000406810F1010FE8D1AA48806810F1010F15
:100E8000E3D1A4B240F2551084420FD0A4B2002C9A
:100E90000CD0641E0C22A349A4B20C2000FB04F069
:100EA000FFF77BFF601C8E49088007E00C229D49FC
:100EB0000020FFF772FF0120894908809948806867
:100EC00088490880974800688449086095484068C8
:100ED0007C4908608148006810F1010F0CD0794806
:100EE000006810F1010F07D07C480068002803D08B
:100EF0007448006800283CD100207A4908804FF4EB
:100F00008050764908604FF480506E4908607348FD
:100F10000068844908606B480068824948607148ED
:100F2000008880498860FFF760FA0620FFF750FAD2
:100F3000FFF76BFA202169480068FFF7FFFEFFF713
:100F400054FA0620FFF744FAFFF75FFA2021002049
:100F5000FFF7F4FEFFF749FA0620FFF739FAFFF72B
:100F600054FA0C226F490020FFF7CAFCFFF73DFA44
:100F700040E0012000F026FE0821002200AC200005
:100F800000F08AFD082200A94E4800684038FFF7AB
:100F900004FF9DF802008DF80E009DF803008DF807
:100FA0000D009DF804008DF80C009DF805008DF8EB
:100FB0000B009DF806008DF80A009DF80700ADF8BB
:100FC000080002A800F07DFE040000F04BFF564828
:100FD00000F077FE001B46280CD29DF801009DF81A
:100FE000001051EA00204D4908804C480088401C00
:100FF0004A4908800420FFF7EBF900F039F81FBDDB
:101000001E05002000B585B04848006830F48050C7
:1010100046490860E0215FF0904000F0E8FA2020A7
:10102000009001200190022002900120039000A96D
:101030005FF0904000F0E6F98020009001200190E0
:10104000012002900120039000A95FF0904000F081
:10105000D9F940200090002001900220029000A9C0
:101060005FF0904000F0CEF905B000BD18000048D8
:1010700000B587B02D48006850F480502B490860B7
:101080002A48006810F4805000900098E0200190F9
:101090000220029000200390032004900520059078
:1010A00001A95FF0904000F0ADF907B000BD00006D
:1010B00024050020BC0700208C060020CC06002060
:1010C000FC030020040500209C070020A00700204E
:1010D000E6E6E600245C0008C307002000050020C7
:1010E0001C050020BA070020C9070020B407002013
:1010F000B80700204C06002074070020BE0700201F
:10110000FE1A0008761B000858070020230500205F
:101110005406002062060020C0070020B607002009
:10112000C2070020680700207C07002060100240F2
:1011300010B50400002C01D101205AE0606A00289B
:101140000020A06294F85D00002805D1002084F8FA
:101150005C002000FFF761F8022084F85D00206841
:10116000006830F0400021680860E068B0F5E06F8A
:1011700001D9002001E04FF48050E168B1F5706FB3
:1011800005D0E168B1F5E06F01D00021A162216BCB
:10119000002908D1E168B1F5E06F02D9022121638D
:1011A00001E0012121636168A268114322691143B2
:1011B00062691143A26912F400721143E26911439A
:1011C000226A1143A26A114322681160A169090CC5
:1011D00011F00401626A1143626B1143E26811432A
:1011E00008432168486000202066012084F85D00E3
:1011F000002010BD80B500F0BFFC00F07BF800F0CF
:10120000A5FEFEF7C1FF00F055FF00F0EFFC012046
:10121000684908700F2301226749684800F0F3FF0E
:1012200004E067480068401E65490860614800782E
:10123000002803D0624800680028F2D160480068A6
:10124000002806D15B480078002802D000205949C8
:10125000087000F027FDC82000F0B4FCFFF7DAFDAD
:10126000C82000F0AFFC57480078002803D10E20BA
:101270005549087002E00820534908705248007828
:10128000C01C524908705248006850F04000504954
:10129000086001F000FD01F0D5FC07E0642000F0DB
:1012A00091FCFFF71BF900204A4908704A48007872
:1012B000002804D0002048490870FFF75DFB45482E
:1012C0000078C92812D0CA280AD0CB2802D0CD284D
:1012D000E4D00EE0FFF7A6FA00203E490870E5E7EB
:1012E00000F08EFD00203B490870DFE700F0BAFDFA
:1012F000DCE7DBE700B5B9B0012005905FF4803092
:10130000069002200F9003201090012011901A20C7
:10131000129007201390022014900420159005A825
:1013200001F038FD002803D0EC212C4800F058F8DB
:101330000F200090032001900020029000200390D5
:1013400000200490032100A802F03EF8002803D0FA
:10135000FA21224800F044F84220169000202590FF
:1013600000202A9016A802F017FA002804D04FF4A3
:1013700081711A4800F034F84FF4007002F0C8FD93
:10138000002804D040F20911144800F029F802F0B6
:101390007EF94FF47A71B0FBF1F002F083FE042085
:1013A00002F084FE002200215FF0FF3002F064FEB4
:1013B00039B000BDC80700203B4A000824050020C2
:1013C000FC040020C2070020230500202205002085
:1013D00000300140C4070020CE070020385A000822
:1013E000FEE750F8041B61B150F8042BD30744BF4B
:1013F000A9F101039A180023091F42F8043BFAD10E
:10140000EFE7704778B400220023002436E0072578
:1014100012F00306F6B2B600B5402C43DFF84C5389
:10142000960845F82640DFF8484324689C434D68F9
:10143000ED0300D51C43DFF838532C60DFF834434C
:1014400024689C434D68AD0300D51C43DFF824534A
:101450002C60DFF8244324689C434D68ED0200D5DE
:101460001C43DFF814532C60C44C24689C434D6823
:10147000AD0200D51C43C14B1C60521C0B681C0004
:10148000D440002C00F0B1800B680124944023402C
:10149000002BF2D04C68022C02D04C68122C15D1D3
:1014A000D40810EB8404246A0F2512F00706F6B264
:1014B000B600B540AC430D6912F00706F6B2B600AF
:1014C000B5402C43D50810EB85052C620468032534
:1014D0001600F6B27600B540AC430D7915F0030561
:1014E0001600F6B27600B5402C4304604C68012C1F
:1014F00008D04C68022C05D04C68112C02D04C68E6
:10150000122C17D1846803251600F6B27600B54078
:10151000AC43CD681600F6B27600B5402C4384602B
:10152000446801259540AC434D68C5F300159540CE
:101530002C4344600C7914F00304032C09D1C46AD1
:1015400001259540AC434D68C5F3C00595402C433B
:10155000C462C46803251600F6B27600B540AC43F9
:101560008D681600F6B27600B5402C43C4604C6816
:10157000E40082D5824C246854F00104804D2C6034
:101580007F4C246814F001040094009C774C95086B
:1015900054F825400F2512F00306F6B2B600B54008
:1015A000AC43B0F1904F01D1002531E7754DA84211
:1015B00001D101252CE7744DA84201D1022527E76E
:1015C000724DA84201D1032522E7714DA84201D1F5
:1015D00004251DE76F4DA84201D1052518E76E4D82
:1015E000A8427FF414AF062512E771BC7047F0B42F
:1015F0000022002300242DE0072512F00306F6B296
:10160000B600B540AC4224D10F2412F00305EDB270
:10161000AD00AC40554D960855F8265035EA040407
:10162000524D960845F82640514C24689C43504D35
:101630002C60504C24689C434E4D2C604E4C2468CA
:101640009C434D4D2C604D4C246834EA03034B4CB5
:101650002360521C0B00D340002B64D00123934025
:101660000B40002BF5D0046803251600F6B2760077
:10167000B5402C430460D40810EB8404D50810EB6B
:1016800085052D6A0F2612F00707FFB2BF00BE4086
:10169000B5432562846803251600F6B27600B5408E
:1016A000AC438460446801259540AC434460C46801
:1016B00003251600F6B27600B540AC43C460C46A98
:1016C00001259540AC43C462284C950854F8254048
:1016D0000F2512F00306F6B2B600B5402C40B0F16B
:1016E000904F01D1002588E7264DA84201D1012560
:1016F00083E7254DA84201D102257EE7234DA8426C
:1017000001D1032579E7224DA84201D1042574E7D0
:10171000204DA84201D105256FE71F4DA8427FF457
:101720006BAF062569E7F0BC7047006989B20842D3
:1017300001D0012000E00020C0B27047D2B2002AE0
:1017400002D089B2816101E089B28162704780B5BF
:101750001249096880B2014205D080B20F49086081
:1017600080B200F01DF801BD00000000080001403B
:101770000004014004040140080401400C0401403D
:10178000601002400004004800080048000C0048B7
:1017900000100048001400480018004814040140DC
:1017A00070470E0410B50400002C01D1012014E094
:1017B00094F83D00002805D1002084F83C0020006A
:1017C00001F093FA022084F83D00211D206800F00A
:1017D000EDF8012084F83D00002010BD0168C968C3
:1017E00051F001010268D1600168096851F00101FE
:1017F00000680160002070470168C9684908490015
:101800000268D1600168096A41F2111211420BD1DC
:101810000168096A40F24442114205D10168096831
:1018200049084900006801600020704710B50400B5
:101830002068006980071AD52068C068800716D51F
:101840007FF002002168086101202077206880690C
:1018500010F0030F03D0200000F0A5F805E02000F1
:1018600000F0A0F8200000F09FF80020207720680A
:10187000006940071AD52068C068400716D57FF078
:10188000040021680861022020772068806910F434
:10189000407F03D0200000F086F805E0200000F033
:1018A00081F8200000F080F800202077206800698F
:1018B00000071AD52068C068000716D57FF0080019
:1018C00021680861042020772068C06910F0030FA8
:1018D00003D0200000F067F805E0200000F062F877
:1018E000200000F061F80020207720680069C00621
:1018F0001AD52068C068C00616D57FF01000216890
:101900000861082020772068C06910F4407F03D068
:10191000200000F048F805E0200000F043F8200027
:1019200000F042F80020207720680069C0070AD53F
:101930002068C068C00706D57FF0010021680861F3
:10194000200000F02EF82068006900060AD5206803
:10195000C068000606D57FF080002168086120007D
:1019600002F0FBFB2068006940060AD52068C068C9
:10197000400606D57FF0400021680861200000F095
:1019800014F82068006980060AD52068C0688006BF
:1019900006D57FF0200021680861200002F0DCFB02
:1019A00010BD70477047704770477047002202684B
:1019B000DFF8C430984212D0B0F1804F0FD0DFF87A
:1019C000BC3098420BD0DFF8B830984207D0DFF82F
:1019D000B430984203D0DFF8B030984203D132F0EF
:1019E00070024B681A43DFF8903098421ED0B0F175
:1019F000804F1BD0DFF88430984217D0DFF880305A
:101A0000984213D0DFF87C3098420FD0DFF878305E
:101A100098420BD0DFF87430984207D0DFF870306E
:101A2000984203D0DFF86C30984203D132F4407210
:101A3000CB681A4332F080024B691A4302608A680D
:101A4000C2620A688262DFF8302090420FD0DFF86D
:101A5000382090420BD0DFF83420904207D0DFF8D6
:101A60003020904203D0DFF82C20904201D1096948
:101A70000163012141617047002C014000040040D6
:101A800000080040000C00400034014000400140CC
:101A9000004401400048014062F30F2262F31F42FC
:101AA000401810F0030308D0C91A1FD3DB0748BF42
:101AB00000F8012D28BF20F8022D130030B4144681
:101AC0001546103928BF20E93C00FAD8490728BF3D
:101AD00020E90C0048BF40F8042D890028BF20F8F9
:101AE000022D48BF00F8012D30BC7047C91818BF3F
:101AF00000F8012DCB0728BF00F8012D7047030027
:101B000062B38B0708D0521E11F8013B00F8013B6D
:101B100000F024808B07F6D1830740F0208000BFBF
:101B2000103A07D330B4B1E83810103AA0E83810B2
:101B3000F9D230BC530724BFB1E80810A0E8081060
:101B400044BF51F8043B40F8043BD20724BF31F8AE
:101B5000022B20F8022B44BF0B7803707047083A21
:101B600007D3B1E80810083A40F8043B40F804CB2A
:101B7000F7D25307E4E7040280B5032002F078FAB5
:101B8000002000F004F802F0E9FA002002BD10B5D0
:101B90000400144800684FF47A71B0FBF1F002F0D1
:101BA00081FA002221005FF0FF3002F065FA002088
:101BB00010BD0D480068401C0B49086070470A487A
:101BC0000068704738B50400FFF7F9FF050014F10D
:101BD000010F00D0641CFFF7F2FF401BA042FAD3B4
:101BE00031BD0000140500209007002080B5C848D2
:101BF000C8490860C848C74948600020C54988608E
:101C00000120C449C8600020C24908610020C149C0
:101C100048610020BF4988610020BE49C86100209A
:101C2000BC490862BB4802F0E5FA002803D0502105
:101C3000BA48FFF7D5FB0021B64802F0FDFD0028A9
:101C400003D05721B548FFF7CBFB0021B14802F084
:101C500024FE002803D05E21B048FFF7C1FB01BD80
:101C600000B587B00068AA49884219D1C020019008
:101C7000122002900120039003200490042005907C
:101C800001A9A748FFF7BEFBA648006850F4001062
:101C9000A4490860A348006810F400100090009860
:101CA00007B000BD00B583B09F480088ADF80400C0
:101CB00001200090022301AAD021964802F000FBE7
:101CC00007BD70B400210188102291FBF2F4018855
:101CD000102291FBF2F303FB12130A2101FB0434DF
:101CE00014F5FA63A3F2B272511C890840F26D1424
:101CF00004FB02110422B3FBF2F404FB1234002CA7
:101D000006D16422B3FBF2F402FB1432002A02D1A2
:101D1000B3F5166F1FD100228378022B0BDB002353
:101D200004E0824CDBB21C5D12195B1CDBB28478D0
:101D3000641EA342F5DBC378102493FBF4F4C5784A
:101D4000102695FBF6F303FB16530A2505FB043416
:101D5000631E9A181EE000228378022B0BDB0023FF
:101D600004E0734CDBB21C5D12195B1CDBB284789F
:101D7000641EA342F5DBC378102493FBF4F4C5780A
:101D8000102695FBF6F303FB16530A2505FB0434D6
:101D9000631E9A188A180179102391FBF3F40179D4
:101DA000102591FBF5F303FB15130A2101FB043405
:101DB00060494FF4616303FB04F301FB0231427994
:101DC000102392FBF3F44279102592FBF5F303FB09
:101DD00015230A2202FB04343C2202FB04118279FF
:101DE000102392FBF3F48079102290FBF2F303FBB3
:101DF00012030A2000FB04346118080070BC70470D
:101E000010B584B001A80021002206C008380322C2
:101E100049490DF105042000FFF772FE00208DF8FE
:101E20000800032245490DF109042000FFF768FE70
:101E30004348FFF7E1FC32200090082301AAD0219B
:101E4000344802F03DFA062100223B4C2000FFF707
:101E500023FE7FF001003A49096808613848FFF71E
:101E6000BDFC1FBDE0B501A80021002206C0083856
:101E70003348FFF7C1FC322000900123314AD021C2
:101E8000244802F01DFA32200090072301AAD02135
:101E9000204802F0DDFA0220FFF794FE9DF80400CE
:101EA0002549087024480078274988719DF8050065
:101EB0002149487020484078234948719DF8060020
:101EC0001D4988701C4880781F4908719DF80800DA
:101ED0001949C8701848C0781B49C8709DF8090096
:101EE0001549087114480079174988709DF80A004F
:101EF0001149487110484079134908807FF001006A
:101F00000F49096808610E48FFF768FC07BD00002B
:101F10000054004000060020B47E7040005A0008C3
:101F20000004004858100240A2170008005C000896
:101F30000C5C000880510100740700207707002026
:101F40008C0600203A4A00087C07002000B587B0C4
:101F50005448006850F00400524908605148006835
:101F600010F00400009000984E48006850F0800087
:101F70004C4908604B48006810F0800000900098C1
:101F80004848006850F0010046490860454800682C
:101F900010F00100009000984248006850F00200E4
:101FA000404908603F48006810F002000090009827
:101FB0003C48006850F008003A4908603948006819
:101FC00010F0080000900098012210215FF090406E
:101FD000FFF7B4FB002210213348FFF7AFFB0022CC
:101FE0001E213248FFF7AAFB4FF6EF700190032045
:101FF00002900020039001A92B48FFF703FA49F64D
:1020000003700190032002900020039001A95FF06B
:102010009040FFF7F7F91020019001200290012075
:1020200003900120049001A95FF09040FFF7EAF9C6
:1020300010200190012002900220039003200490C0
:1020400001A91948FFF7DEF9012001900020029054
:102050000220039001A91548FFF7D4F91E20019032
:1020600001200290012003900120049001A90F4853
:10207000FFF7C8F94FF6207001900320029000206E
:10208000039001A90948FFF7BDF90420019003203E
:1020900002900020039001A90548FFF7B3F907B0AB
:1020A00000BD00BF4C10024000080048000400487A
:1020B000000C004880B52E482E4908602E482D4956
:1020C000486000202B49886000202A49C860002011
:1020D000284908610C20274948610020254988616A
:1020E00000202449C861002022490862202021499B
:1020F00048624FF400501F49C8631E4800F044F87E
:10210000002803D049211D48FFF76AF901221C4924
:10211000184800F0DEF801BD00B587B0006814492A
:10212000884222D11748006850F4003015490860F1
:102130001448006810F40030009000980C200190C2
:1021400002200290012003900320049007200590B4
:1021500001A95FF09040FFF755F9002200212620E9
:1021600001F08AFF262001F098FF07B000BD0000B3
:10217000004400402405002000A30200C4590008C8
:10218000D30700205810024010B50400002C01D1E4
:10219000012037E0A0690028FFD194F871000028E1
:1021A00005D1002084F870002000FFF7B5FF24203F
:1021B00084F87100206800684008400021680860C9
:1021C000200000F0B5F9012801D101201AE0606A71
:1021D000002802D0200000F0C9FB2068406830F4DD
:1021E0009040216848602068806830F02A002168AB
:1021F00088602068006850F00100216808602000B5
:1022000000F021FC10BD2DE9F04182B004000D006A
:1022100016001F005FF0000894F87100202855D1C7
:10222000002D02D0B6B2002E01D101204FE094F86B
:102230007000012801D1022049E0012084F87000DB
:1022400000206067212084F87100FFF7B8FC804609
:10225000A4F85060A4F8526008E028782168088546
:102260006D1CB4F85200401EA4F85200B4F852009D
:10227000002818D00097434600228021200000F05B
:1022800019FC002801D0032021E0A068B0F5805F90
:10229000E3D120690028E0D12888C005C00D21685D
:1022A0000885AD1CDDE70097434600224021200051
:1022B00000F000FC002801D0032008E0202084F872
:1022C0007100002084F87000002000E00220BDE8CA
:1022D000F68190F87230202B66D1002902D092B29C
:1022E000002A01D1012060E090F87030012B01D16B
:1022F00002205AE0012380F870304165A0F8582090
:10230000A0F85A20002101668168B1F5805F0BD1E9
:102310000169002904D140F2FF11A0F85C101FE010
:10232000FF21A0F85C101BE0816800290AD1016937
:10233000002903D1FF21A0F85C1011E07F21A0F853
:102340005C100DE08168B1F1805F09D1016900295D
:1023500003D17F21A0F85C1002E03F21A0F85C10BF
:1023600000214167222180F872100168896851F0CC
:102370000101026891608168B1F5805F06D1016951
:10238000002903D1DFF8B015016602E0DFF8AC15D3
:102390000166002180F870100168096851F490719D
:1023A00000680160002000E00220704738B504009A
:1023B0002068C069216809682268926810F00F03DC
:1023C000002B0AD1850608D58D0606D5206E00287B
:1023D00002D02000216E8847A6E0002B00F07F800D
:1023E000D30702D411F4907F79D010F00103DBB24F
:1023F000002B08D0CB0506D5012325682B62636F1F
:1024000053F00103636783070BD512F00103DBB2BE
:10241000002B06D0022325682B62636F53F0040360
:10242000636743070BD512F00103DBB2002B06D024
:10243000042325682B62636F53F00203636703076D
:102440000DD58B0604D412F00102D2B2002A06D0B8
:10245000082223681A62626F52F008026267626F94
:10246000002A3BD0800607D5880605D5206E0028B7
:1024700002D02000216E8847606F000703D42068D7
:102480008068400625D5200000F04CFB206880685D
:1024900040061AD52068806830F0400021688860C6
:1024A000E06E00280DD00FF2A160E16E8863E06E4F
:1024B00002F022FA002811D0E06EE16E896B8847A5
:1024C0000CE0200000F033F808E0200000F02FF8C6
:1024D00004E0200000F02BF80020606724E0C30235
:1024E0000FD552020DD55FF48010216808622020BC
:1024F00084F87100202084F87200200002F025FA90
:1025000012E0020608D50A0606D5606E002802D041
:102510002000616E884707E0400605D5480603D5D0
:10252000200000F01DFBFFE731BD7047704770478A
:10253000F8B5040000211027002000260025002007
:102540002168DFF8FC239142FFD0A1682269114382
:1025500062691143E269114322681268DFF8E433CB
:102560001A401143226811602168496831F44051D2
:10257000E268114322685160A1692268DFF8C03324
:102580009A4201D0226A11432268926832F4306282
:102590001143226891602168DFF8AC23914216D183
:1025A000DFF8A813096811F00301002905D00229FA
:1025B00005D006D3032906D007E0012797E00227BC
:1025C00095E0042793E0082791E010278FE0216829
:1025D000DFF87C23914217D1DFF87013096811F0FE
:1025E0000C01002906D0042908D0082904D00C29A0
:1025F00006D007E000277AE0022778E0042776E09B
:10260000082774E0102772E02168DFF84823914220
:1026100017D1DFF83813096811F03001002906D00E
:10262000102908D0202904D0302906D007E000273F
:102630005DE002275BE0042759E0082757E01027F8
:1026400055E02168C44A914216D1C049096811F089
:10265000C001002906D0402908D0802904D0C02913
:1026600006D007E0002742E0022740E004273EE0D2
:1026700008273CE010273AE02168B84A914219D176
:10268000B249096811F44071002909D0B1F5807F81
:102690000AD0B1F5007F05D0B1F5407F06D007E044
:1026A000002724E0022722E0042720E008271EE07C
:1026B00010271CE02168A24A914218D1A349096859
:1026C00011F44061002909D0B1F5806F0AD0B1F54D
:1026D000006F05D0B1F5406F06D007E0002706E097
:1026E000022704E0042702E0082700E01027216801
:1026F000934A914276D1FFB23900002906D00229CF
:1027000007D0042907D0082908D00AE000F0C2FF4A
:1027100008E0934806E000F046FF03E04FF4004075
:1027200000E00125002800F0FE806168032251438B
:10273000884205D361684FF480525143814201D2EF
:102740000125F0E0FFB2002F06D0022F15D0042F94
:1027500020D0082F2ED03AE000F09CFF4FF480717B
:10276000626852080023E1FB002310001900626830
:10277000002302F0EBF806002AE060684008002120
:10278000784A0023801859416268002302F0DEF87D
:1027900006001DE000F007FF02004FF48073606840
:1027A00040080021E3FB02016268002302F0CEF83A
:1027B00006000DE060684008002110F5000051F1AE
:1027C00000016268002302F0C1F8060000E0012564
:1027D000B6F540706449884202D22068C660A2E023
:1027E0000125A0E0E069B0F5004F53D1FFB2002F02
:1027F00008D0012F11D0022F1AD0042F23D0082F78
:102800002CD034E000F046FF6168490811EB40002D
:102810006168B0FBF1F6B6B22AE000F048FF6168EB
:10282000490811EB40006168B0FBF1F6B6B21FE059
:102830006068400800F1F47010F590406168B0FBEA
:10284000F1F6B6B214E000F0AEFE6168490811EB93
:1028500040006168B0FBF1F6B6B209E0606840087C
:1028600010F580306168B0FBF1F6B6B200E00125EA
:10287000B6F110004FF6F071884209D24FF6F070B1
:102880003040C6F34201084380B22168C8604AE084
:10289000012548E0FFB2002F08D0012F10D0022FF1
:1028A00018D0042F21D0082F29D031E000F0F2FEFB
:1028B000616810EB51006168B0FBF1F6B6B228E038
:1028C00000F0F5FE616810EB51006168B0FBF1F6B5
:1028D000B6B21EE06068400800F5740010F51050B4
:1028E0006168B0FBF1F6B6B213E000F05CFE61681F
:1028F00010EB51006168B0FBF1F6B6B209E0606818
:10290000400810F500406168B0FBF1F6B6B200E097
:102910000125B6F110004FF6F071884202D220680E
:10292000C66000E0012500202066002060662800C7
:10293000C0B2F2BD00000000E12B00087F2B0008B0
:1029400000800040F369FFEF00380140881002402A
:102950000044004000480040004C0040005000404F
:102960000024F400000024F400FD0F0090F824106F
:10297000C90707D50168496831F40031826A1143FB
:102980000268516090F82410890707D501684968EA
:1029900031F48031C26A11430268516090F824100A
:1029A000490707D50168496831F48021026B11435A
:1029B0000268516090F82410090707D5016849683A
:1029C00031F40041426B11430268516090F82410C9
:1029D000C90607D50168896831F48051826B1143BB
:1029E0000268916090F82410890607D5016889680B
:1029F00031F40051C26B11430268916090F82410C9
:102A0000490613D50168496831F48011026C1143FD
:102A100002685160016CB1F5801F07D101684968F7
:102A200031F4C001426C11430268516090F82410E7
:102A3000090607D50168496831F40021826C114309
:102A400000684160704738B50400002500206067C9
:102A5000FFF7B5F805002068006800070DD57FF086
:102A60007E4000902B0000225FF40011200000F057
:102A700021F8002801D003201BE0206800684007EF
:102A80000DD57FF07E4000902B0000225FF4800186
:102A9000200000F00FF8002801D0032009E02020DA
:102AA00084F87100202084F87200002084F87000FF
:102AB000002032BD2DE9F04104000D0016001F007A
:102AC000DDF818802068C0692840A84201D10120A3
:102AD00000E00020F6B2B04221D118F1010FF1D090
:102AE000B8F1000F04D0FFF76AF8C01B8045E9D2A7
:102AF0002068006830F4D070216808602068806821
:102B00004008400021688860202084F8710020205F
:102B100084F87200002084F87000032000E0002098
:102B2000BDE8F0810168096831F4907102681160B4
:102B3000016889684908490002689160202180F88D
:102B4000721000210166704780B5806A0021A0F8EC
:102B50005A100021A0F85210FFF7E9FC01BD000057
:102B600080B50168096831F04001026811602021D8
:102B700080F8711000214166FFF7D7FC01BD10B548
:102B8000B0F85C1090F87220222A22D10268928C50
:102B9000436D5C1C446511401970B0F85A10491E11
:102BA000A0F85A1089B2002919D10168096831F4D6
:102BB00090710268116001688968490849000268DB
:102BC0009160202180F8721000210166FFF7AEFCB1
:102BD00005E00168098B51F008010068018310BD10
:102BE00080B5B0F85C2090F87210222923D10168DA
:102BF0008B8C416D1A400A80416D891C4165B0F88B
:102C00005A10491EA0F85A1089B2002919D101683A
:102C1000096831F490710268116001688968490897
:102C2000490002689160202180F87210002101663D
:102C3000FFF77CFC05E00168098B51F00801006892
:102C4000018301BDE0B54C484C49086000204B4968
:102C5000486000204949886040F603404749C86001
:102C60000020464988614548FEF79CFD002803D0B6
:102C70003E214348FEF7B4FB202000900020029044
:102C800000A93E4801F038FA002803D045213C480D
:102C9000FEF7A6FB07BDE0B53A483B4908604FF296
:102CA000C0303949486000203749886040F6A66046
:102CB0003549C8600020344988613348FEF772FD09
:102CC000002803D055212E48FEF78AFB20200090D3
:102CD0000020029000A92C4801F00EFA002803D031
:102CE0005C212748FEF77CFB07BD80B50168224ABE
:102CF000914220D12548006850F010002349086017
:102D00002248006810F01000009000980022012175
:102D1000362001F0B1F9362001F0BFF90120174942
:102D2000096848627FF00100144909680861134886
:102D3000FEF754FD1FE00068124988421BD113487A
:102D4000006850F02000114908601048006810F039
:102D500020000090009800220321372001F08CF918
:102D6000372001F09AF97FF00100074909680861EE
:102D700001200749086001BD001000408C060020BA
:102D8000A85A000800140040CC0600205810024049
:102D90002414004070B582B0040000252078C006DD
:102DA0005AD5DFF8B809006810F00C0F40F09F808A
:102DB000DFF814090068800704D5A069002801D154
:102DC000012000E3DFF800090068000705D5DFF8FF
:102DD000F808006810F0F00005E0DFF88C090068E2
:102DE000000910F0F000216A88425CD2206A00F0ED
:102DF0006DFC002801D00120E5E2DFF8CC08006876
:102E000050F00800DFF8C0180860DFF8BC08006860
:102E100030F0F000216A0843DFF8AC180860DFF8F2
:102E20004C09006830F47F40E16950EA0120DFF886
:102E30003C19086000F0B7FBDFF83419DFF81C29F3
:102E40001268C2F30312515C0200CA40DFF8140991
:102E500002600020FEF79BFE2078C00740F1EA8068
:102E6000DFF8F808006810F00C0008280FD0DFF831
:102E7000EC08006810F00C000C2840F08880DFF8A7
:102E8000E008006810F00300032840F08080DFF8BD
:102E900038080068800340F1CD806068002840F069
:102EA000C98001208FE2DFF82008006850F0080098
:102EB000DFF814180860DFF81008006830F0F00040
:102EC000216A0843DFF800180860DFF8A0080068EE
:102ED00030F47F40E16950EA0120DFF89018086083
:102EE000206A00F0F3FB0028A4D001206BE2A06967
:102EF000002834D0DFF8D007006850F00100DFF878
:102F0000C8170860FEF75BFE0500DFF8BC07006825
:102F1000800706D4FEF753FE401B0328F5D3032099
:102F200051E2DFF8A407006850F00800DFF89817B6
:102F30000860DFF89407006830F0F000216A084369
:102F4000DFF884170860DFF82408006830F47F4059
:102F5000E16950EA0120DFF8141808607CE7DFF827
:102F60006807006840084000DFF85C170860FEF75B
:102F700026FE0500DFF85007006880077FF56CAF7C
:102F8000FEF71DFE401B0328F4D303201BE26068FC
:102F9000B0F5803F08D1DFF83007006850F480308A
:102FA000DFF82417086024E06068B0F5A02F10D186
:102FB000DFF81407006850F48020DFF80C17086071
:102FC000DFF80407006850F48030DFF8FC16086072
:102FD0000FE0DFF8F406006830F48030DFF8E81620
:102FE0000860DFF8E406006830F48020DFF8D816C7
:102FF0000860606800280ED0FEF7E1FD0500DFF8EC
:10300000C8060068800315D4FEF7D9FD401B65286B
:10301000F5D30320D7E1FEF7D2FD0500DFF8A806BF
:103020000068800306D5FEF7CAFD401B6528F5D36E
:103030000320C8E12078800729D5DFF82007006841
:1030400010F00C0004280DD0DFF81007006810F015
:103050000C000C2838D1DFF80807006810F00300D6
:10306000022831D1DFF860060068400504D5E06829
:10307000002801D10120A6E1DFF8F006006830F059
:10308000F850216950EA0160DFF8E0160860207806
:1030900000076DD56069002853D0DFF8CC060068C2
:1030A00050F00100DFF8C0160860FEF788FD05004B
:1030B000DFF8B406006880075AD4FEF780FD401B95
:1030C0000328F5D303207EE1E068002822D0DFF852
:1030D000F805006850F48070DFF8EC150860FEF722
:1030E0006EFD0500DFF8E0050068400506D4FEF738
:1030F00066FD401B0328F5D3032064E1DFF86C066E
:10310000006830F0F850216950EA0160DFF85C1681
:103110000860BCE7DFF8B005006830F48070DFF8C5
:10312000A8150860FEF74BFD0500DFF89C05006858
:103130004005ACD5FEF743FD401B0328F5D3032023
:1031400041E1DFF82406006840084000DFF8181667
:103150000860FEF734FD0500DFF80C060068800704
:1031600006D5FEF72CFD401B0328F5D303202AE1EA
:103170002078400740F192800026DFF8F8050068CB
:10318000C0000FD4DFF8EC05006850F08050DFF885
:10319000E4150860DFF8DC05006810F0805000904E
:1031A00000980126DFF8D0050068C00516D4DFF8C6
:1031B000C805006850F48070DFF8BC150860FEF7A1
:1031C000FEFC0500DFF8B0050068C00506D4FEF778
:1031D000F6FC401B0328F5D30320F4E0A068012887
:1031E00008D1DFF89805006850F00100DFF88C1571
:1031F000086023E0A068052810D1DFF8800500688A
:1032000050F00400DFF874150860DFF870050068FE
:1032100050F00100DFF8641508600FE0DFF85C058E
:10322000006840084000DFF854150860DFF84C05DE
:10323000006830F00400DFF844150860A06800283A
:1032400010D0FEF7BCFC0500DFF8300500688007F1
:1032500019D4FEF7B4FC401B41F289318842F3D304
:103260000320B0E0FEF7ABFC0500DFF810050068B6
:10327000800708D5FEF7A3FC401B41F28931884244
:10328000F3D303209FE0F6B2012E07D1DFF8E40468
:10329000006830F08050DFF8DC140860A06A002875
:1032A00000F09080DFF8B404006810F00C000C28E7
:1032B00000F08680A06A022850D1DFF80C04006874
:1032C00030F08070DFF800140860FEF778FC05002D
:1032D000DFF8F4030068800106D5FEF770FC401BA0
:1032E0000328F5D303206EE0206B401E616B0902BA
:1032F00051EA0010A16B090950EA4140E16A084314
:10330000E16B891E0905490D49050843216C891E99
:10331000090611F07E410843DFF844140860DFF825
:10332000A803006850F08070DFF89C130860DFF895
:103330003004006850F08070DFF824140860FEF755
:103340003EFC0500DFF88003006880013AD4FEF7F8
:1033500036FC401B0328F5D3032034E0DFF8680374
:10336000006830F08070DFF860130860DFF8580301
:10337000006800010CD4DFF850030068800007D417
:10338000DFF8DC03006880088000DFF8D4130860F1
:10339000DFF8CC030068DFF8E8130840DFF8C0135B
:1033A0000860FEF70CFC0500DFF81C0300688001D4
:1033B00008D5FEF704FC401B0328F5D3032002E0E8
:1033C000012000E0002076BD70B504000D0000264D
:1033D000DFF8B003006810F00700A84211D2DFF850
:1033E000A4030068C008C0002843DFF898130860F1
:1033F000DFF89003006810F00700A84201D0012018
:10340000D0E02078C00779D56068032806D1DFF8BE
:10341000B802006880011CD40120C3E06068022863
:1034200006D1DFF8A4020068800312D40120B9E0BD
:103430006068002806D1DFF890020068800708D491
:103440000120AFE0DFF880020068400501D40120D0
:10345000A8E0DFF80803006880088000616808437E
:10346000DFF8F8120860FEF7AAFB06006068032880
:103470000FD1DFF8E802006810F00C000C283DD0F6
:10348000FEF79DFB801B41F289318842F1D3032076
:1034900088E0606802280FD1DFF8C002006810F0F1
:1034A0000C0008282AD0FEF78AFB801B41F28931E4
:1034B0008842F1D3032075E0606800280ED1DFF860
:1034C0009C02006810F00C0F18D0FEF778FB801BF0
:1034D00041F289318842F2D3032063E0DFF87C02B5
:1034E000006810F00C00042808D0FEF768FB801B71
:1034F00041F289318842F1D3032053E020788007DC
:1035000009D5DFF85802006830F0F000A1680843E0
:10351000DFF848120860DFF86C02006810F007005E
:10352000854211D2DFF85C020068C008C000284361
:10353000DFF850120860DFF84C02006810F0070056
:10354000A84201D001202DE02078400709D5DFF8FE
:103550000C02006830F4E060E1680843DFF8FC1119
:103560000860207800070AD5DFF8F001006830F421
:103570006050216950EAC100DFF8E011086000F0F6
:1035800012F8DFF8EC11DFF8D4211268C2F303124D
:10359000515C0200CA40DFF8CC0102600020FEF757
:1035A000F6FA002070BD0021002000200222022235
:1035B0000020DFF8A821126812F00C0F0BD0674A28
:1035C000126812F00C020C2A1CD1654A126812F023
:1035D0000302012A16D13C490968090704D462494B
:1035E0000968C1F3032103E037490968C1F30311F6
:1035F000654A52F82110594A126812F00C0F10D186
:1036000008000EE0554A126812F00C02042A01D19B
:103610005E4806E0514A126812F00C02082A00D1F6
:103620005B484E4A126812F00C020C2A2ED14C480C
:10363000006810F003004A4A1268C2F30212521CDA
:10364000022802D0032809D011E05048B0FBF2F064
:1036500043490968C1F3062148430FE04C48B0FBD9
:10366000F2F03F490968C1F30621484306E0B1FB87
:10367000F2F03B490968C1F306214843384909681B
:10368000C1F34161491C4A00B0FBF2F07047354874
:103690000068704780B5FFF7FAFF01003D482F4AE8
:1036A0001268C2F30222125C0800D04002BD80B54D
:1036B000FFF7EDFF01003748284A1268C2F3C22223
:1036C000125C0800D04002BD0010024038B5040072
:1036D0000020002527480068C00002D500F012FC39
:1036E00013E02448006850F08050224908602148C7
:1036F000006810F080500090009800F003FC1D4915
:10370000096831F080511B4A1160B0F5007F07D184
:10371000812C10D3A12C01D302250CE001250AE055
:10372000812C01D3032506E0802C01D1022502E083
:10373000702C00D1012513480068C008C000284340
:10374000104908600F48006810F00700A84201D037
:10375000012000E0002032BD0000000008100240FF
:103760000C10024014050020941002400410024086
:10377000E05B0008581002400070004090100240CA
:10378000FFFFEEFE00200240E05A00080024F40093
:10379000001BB7002C5C00082DE9F04182B004004A
:1037A00000205FF00008002500262068000533D5C2
:1037B000606E002812D0B0F5800F15D0B0F5000F64
:1037C00003D0B0F5400F16D016E0DFF854040068BF
:1037D00050F48030DFF8481408600EE00021201D0E
:1037E00000F028FA050008E0002114F1200000F0A4
:1037F000D7FA050001E000E00125EDB2002D0AD165
:10380000DFF82004006830F44000616E0843DFF800
:103810001414086000E02E002068C00433D5A06EA8
:10382000002812D0B0F1807F15D0B0F1007F03D016
:10383000B0F1407F16D016E0DFF8E403006850F4E2
:103840008030DFF8DC1308600EE00021201D00F05E
:10385000F1F9050008E0002114F1200000F0A0FAC1
:10386000050001E000E00125EDB2002D0AD1DFF8EE
:10387000B403006830F04070A16E0843DFF8A41371
:10388000086000E02E002068800340F1838000275C
:10389000DFF894030068C0000FD4DFF88C030068E1
:1038A00050F08050DFF880130860DFF87C03006878
:1038B00010F08050009000980127DFF87003006836
:1038C00050F48070DFF864130860FEF778F98046E2
:1038D000DFF858030068C00506D4FEF770F9B0EBB6
:1038E00008000328F4D30325EDB2002D46D1DFF8FC
:1038F0004003006810F4407000281BD0D4F88410F6
:10390000884217D0DFF82803006830F44070DFF8F1
:103910002013096851F48031DFF814231160DFF8B7
:103920001013096831F48031DFF804231160DFF8E7
:1039300000130860C00710D5FEF741F98046DFF894
:10394000F0020068800708D4FEF739F9B0EB0800F0
:1039500041F289318842F2D30325EDB2002D0BD11B
:10396000DFF8CC02006830F44070D4F884100843CB
:10397000DFF8BC12086002E02E0000E02E00FFB26B
:10398000012F07D1DFF8A002006830F08050DFF887
:10399000981208602078C00709D5DFF8880200680F
:1039A00080088000A16B0843DFF878120860207857
:1039B000800709D5DFF86C02006830F00C00E16B7D
:1039C0000843DFF8601208602078400709D5DFF867
:1039D0005402006830F03000216C0843DFF84412D4
:1039E00008602078000709D5DFF83802006830F059
:1039F000C000616C0843DFF82C1208602078C00614
:103A000009D5DFF82002006830F44070A16C08434B
:103A1000DFF8101208602078800609D5DFF804026C
:103A2000006830F44060E16C0843DFF8F81108608A
:103A30002068800509D5DFF8EC01006830F44020EB
:103A4000E16D0843DFF8DC1108602068400509D506
:103A5000DFF8D001006830F44010216E0843DFF831
:103A6000C41108602078400609D5DFF8B801006865
:103A700030F44050216D0843DFF8A8110860207829
:103A8000000609D5DFF89C01006830F44040616D04
:103A90000843DFF8901108602068C00509D5DFF8F9
:103AA0008401006830F44030A16D0843DFF87411E0
:103AB00008602068800421D5DFF86801006830F0D4
:103AC0004060E16E0843DFF85C110860E06EB0F121
:103AD000006F06D15248006850F4801050490860C9
:103AE0000CE0E06EB0F1806F08D10121201D00F0E4
:103AF000A1F80500EDB2002D00D02E0020680003D3
:103B000021D5DFF82001006830F04060216F0843C4
:103B1000DFF810110860206FB0F1006F06D1404847
:103B2000006850F480103E4908600CE0206FB0F14E
:103B3000806F08D10121201D00F07CF80500EDB256
:103B4000002D00D02E002068400321D5DFF8D400DE
:103B5000006830F04060616F0843DFF8C81008600B
:103B6000606FB0F1006F06D12D48006850F48010EE
:103B70002B4908600CE0606FB0F1806F08D1012123
:103B8000201D00F057F80500EDB2002D00D02E00EA
:103B90002068400425D5DFF88C00006830F04050E4
:103BA000A16F0843DFF87C100860A06FB0F1805F60
:103BB00009D10221201D00F03DF80500EDB2002DD5
:103BC0000FD02E000DE0A06FB0F1005F09D10221EF
:103BD00014F1200000F0E4F80500EDB2002D00D053
:103BE0002E002068000409D5DFF83800006830F0A6
:103BF0008040E16F0843DFF82C1008602068C003A4
:103C00000AD5DFF82000006840004008D4F8801092
:103C10000843DFF8101008603000C0B2BDE8F6813C
:103C20000C10024088100240581002400070004002
:103C300090100240F8B504000D0000270026AB48A4
:103C4000006810F0030F13D0A848006810F00300BC
:103C5000216888420AD12068002807D0A34800685C
:103C6000C0F30210401C616888422FD001262DE06D
:103C70002068012804D019D303280DD006D315E0FD
:103C800099480068800700D4012610E09648006833
:103C9000400500D401260AE093480068800304D45C
:103CA00091480068400300D4012600E00126F6B2E6
:103CB000002E0BD18D48006830F073002168084356
:103CC0006168491E50EA011088490860F6B2002E6A
:103CD00062D18548006830F0806083490860FDF754
:103CE0006EFF070080480068000105D5FDF767FFFB
:103CF000C01B0328F6D30326F6B2002E4CD1002DAC
:103D00000DD17B4800687B490840A16850EA01203A
:103D1000E168090950EA41407549086020E0012D39
:103D20000FD17348006874490840A16850EA012027
:103D30002169891E0905490D490508436C49086038
:103D40000EE06B4800686D490840A16850EA012008
:103D50006169891E090611F07E41084364490860C3
:103D60006148006850F080605F490860FDF727FFF8
:103D700007005D480068000105D4FDF720FFC01B67
:103D80000328F6D30326F6B2002E05D15848006862
:103D9000A1690843564908603000C0B2F2BD000076
:103DA000F8B504000D00002700265048006810F008
:103DB000030F13D04D48006810F0030021688842BB
:103DC0000AD12068002807D048480068C0F30210D4
:103DD000401C616888422FD001262DE02068012810
:103DE00004D019D303280DD006D315E03E4800684F
:103DF000800700D4012610E03B480068400500D44D
:103E000001260AE038480068800304D43648006878
:103E1000400300D4012600E00126F6B2002E0BD1AB
:103E20003248006830F07300216808436168491E19
:103E300050EA01102D490860F6B2002E50D12A48F0
:103E4000006830F0805028490860FDF7B8FE070090
:103E500025480068800005D5FDF7B1FEC01B03288A
:103E6000F6D30326F6B2002E3AD1002D0DD1244808
:103E7000006820490840A16850EA0120E16809096A
:103E800050EA41401E4908600EE01D4800681B4989
:103E90000840A16850EA01202169891E090611F035
:103EA0007E410843164908600F48006850F0805072
:103EB0000D490860FDF783FE07000B48006880008D
:103EC00005D4FDF77CFEC01B0328F6D30326F6B20B
:103ED000002E05D10A480068616908430849086056
:103EE0003000C0B2F2BD0000001002400C100240D1
:103EF00010100240FF80FDFFFF809FFFFF80FFF951
:103F000014100240DFF89000006810F4C0607047A1
:103F10000021B0F5007F2BD1DFF87C00006810F4A1
:103F2000C060B0F5007F35D0DFF86C00006830F479
:103F3000C06050F40070DFF860100860DFF85C00CB
:103F40000068DFF85C10B0FBF1F0322101FB00F1FA
:103F500000E0491E002904D0DFF848000068400551
:103F6000F7D4DFF840000068400513D5032012E0C5
:103F7000DFF82400006810F4C060B0F5806F09D04D
:103F8000DFF81400006830F4C06050F48060DFF89F
:103F900008100860002070470070004014050020E1
:103FA00040420F001470004010F007014A480068BA
:103FB0004FF6FF021040494A52EA012108434649A0
:103FC0000860704744480068C0F302207047012130
:103FD00010F01F029140424A40B2400942F82010BE
:103FE000704740B2002808D509013E4A40B210F09F
:103FF0000F00801800F8041C03E009013A4A40B29F
:104000008154704710B410F00700D0F10703052B5E
:1040100001D3042301E0D0F10703041D072C01D2D2
:10402000002000E0C01E012414FA03F35B1E1940B7
:104030008140012313FA00F0401E1040084310BCD9
:10404000704780B5411EB1F1807F01D301200EE0A1
:10405000401E264908600F215FF0FF30FFF7C1FFC7
:10406000002023490860072022490860002002BD83
:1040700080B5FFF799FF01BD70B504000D00160073
:104080000020FFF79FFF32002900FFF7BBFF010070
:10409000200040B2FFF7A5FF70BD80B540B2FFF72A
:1040A00096FF01BD80B5FFF7CCFF02BD042806D105
:1040B0001048006850F004000E49086005E00D4803
:1040C000006830F004000B490860704780B500F0CC
:1040D00001F801BD704700000CED00E00000FA059A
:1040E00000E100E018ED00E000E400E014E000E092
:1040F00018E000E010E000E030B490F83C20012A25
:1041000001D1022022E0012280F83C20026852689E
:1041100003689B6804680E4DAC4203D004680D4DE3
:10412000AC4203D132F470024C68224332F0700288
:104130000C68224333F0800389680B4301684A60AE
:1041400001688B60002180F83C10002030BC704773
:10415000002C0140003401407047704780B523486F
:10416000006850F00100214908602048006810F004
:104170000100009000981E48006850F080501C49D3
:1041800008601B48006810F08050009000980320E1
:10419000FFF76EFF002200217FF00B00FFF76CFF9E
:1041A000002200217FF00A00FFF766FF00220021B5
:1041B0007FF00900FFF760FF002200217FF004007C
:1041C000FFF75AFF002200217FF00300FFF754FFA2
:1041D000002200217FF00100FFF74EFF00220021A6
:1041E0005FF0FF30FFF748FF01BD00BF60100240E5
:1041F0005810024010B50400002C01D101205EE0EF
:1042000094F84100002805D1002084F840002000E7
:10421000FDF726FD242084F841002068006840084E
:10422000400021680860606830F0706021680861B3
:104230002068806830F4004021688860E0680128C8
:1042400005D1A06850F400402168886004E0A068AF
:1042500050F4044021688860E068022803D14FF4DC
:104260000060216848602068406840F0007050F4A9
:104270000040216848602068C06830F40040216830
:10428000C860206961690843A16950EA012021687A
:10429000C860E069216A08432168086020680068F6
:1042A00050F001002168086000206064202084F83C
:1042B000410000202063002084F84200002010BD4F
:1042C0002DE9F04182B004000D0016001F005FF0E0
:1042D000000894F84100202840F0B78094F840008E
:1042E000012801D10220B1E0012084F84000FDF74F
:1042F00066FC8046CDF80080192301224FF400416E
:10430000200000F081F9002801D003209EE0212048
:1043100084F84100102084F8420000206064666246
:10432000678500206063608DFF280FD9FF202085FE
:104330004FF4005000905FF08073228DD2B22900BC
:1043400089B2200000F060FA089E1BE0608D208595
:104350004FF4005000905FF00073228DD2B229001C
:1043600089B2200000F050FAEEE7FF2020850020FF
:1043700000905FF08073228DD2B2290089B22000B4
:1043800000F042FA608D00283CD042463100200007
:1043900000F066F9002806D0606C042801D10120E5
:1043A00054E0032052E0606A411C61620078216899
:1043B0008862608D401E6085208D401E2085208D86
:1043C0000028DFD1608D0028DCD0CDF800803300DC
:1043D00000228021200000F017F9002801D00320DE
:1043E00034E0608DFF28C0D8608D208500200090CB
:1043F0005FF00073228DD2B2290089B2200000F054
:1044000003FABFE742463100200000F055F90028CA
:1044100006D0606C042801D1012017E0032015E0CC
:1044200020202168C86120684068DFF8B411084086
:1044300021684860202084F84100002084F8420070
:10444000002084F84000002000E00220BDE8F68152
:104450002DE9F04182B004000D0016001F005FF04E
:10446000000894F84100202840F0B78094F84000FC
:10447000012801D10220B1E0012084F84000FDF7BD
:104480009EFB8046CDF80080192301224FF40041A5
:10449000200000F0B9F8002801D003209EE022207F
:1044A00084F84100102084F84200002060646662B5
:1044B000678500206063608DFF280FD9FF2020856D
:1044C0004FF4105000905FF08073228DD2B229001B
:1044D00089B2200000F098F9089E1BE0608D2085CD
:1044E0004FF4105000905FF00073228DD2B229007B
:1044F00089B2200000F088F9EEE7FF202085002037
:1045000000905FF08073228DD2B2290089B2200022
:1045100000F07AF9608D00283CD04246310020003E
:1045200000F0F3F8002806D0606C042801D10120C7
:1045300054E0032052E0606A411C61622168496ACC
:104540000170208D401E2085608D401E6085208D6D
:104550000028DFD1608D0028DCD0CDF8008033004A
:1045600000228021200000F04FF8002801D0032015
:1045700034E0608DFF28C0D8608D20850020009039
:104580005FF00073228DD2B2290089B2200000F0C2
:104590003BF9BFE742463100200000F08DF80028CB
:1045A00006D0606C042801D1012017E0032015E03B
:1045B00020202168C86120684068DFF82410084086
:1045C00021684860202084F84100002084F84200DF
:1045D000002084F84000002000E00220BDE8F681C1
:1045E00000E800FE01688969890702D50021026898
:1045F000916201688969C90705D40168896951F028
:1046000001010068816170472DE9F04104000D004F
:1046100016001F00DDF81880206880692840A84235
:1046200001D1012000E00020F6B2B04215D117F10F
:10463000010FF1D0002F05D0FDF7C1FAB0EB080053
:104640008742E9D2202084F84100002084F842000B
:10465000002084F84000032000E00020BDE8F08145
:1046600070B504000D00160020688069800721D411
:1046700032002900200000F088F8002801D0012035
:1046800019E015F1010FEFD0002D04D0FDF797FAD6
:10469000801B8542E8D2606C50F0200060642020CE
:1046A00084F84100002084F84200002084F8400093
:1046B000032000E0002070BD70B504000D0016005E
:1046C0002068806980061ED432002900200000F096
:1046D0005CF8002801D0012016E0002D04D0FDF781
:1046E0006EFA801B8542EBD2606C50F02000606453
:1046F000202084F84100002084F84200002084F843
:104700004000032000E0002070BD70B504000D00E3
:10471000160020688069400735D432002900200047
:1047200000F033F8002801D001202DE020688069D6
:10473000800615D520202168C861206840683C4962
:1047400008402168486000206064202084F841000F
:10475000002084F84200002084F84000012013E08B
:10476000002D04D0FDF72BFA801B8542D1D2606C5E
:1047700050F020006064202084F84100002084F87C
:104780004000032000E0002070BD70B504000D0063
:10479000160020688069C00634D5206880698006CC
:1047A00014D415F1010FF8D0002D04D0FDF707FA4D
:1047B000801B8542F1D2202084F84100002084F83B
:1047C0004200002084F8400003201CE010202168F3
:1047D000C86120202168C8612000FFF703FF20681E
:1047E0004068134908402168486004206064202024
:1047F00084F84100002084F84200002084F8400042
:10480000012000E0002070BD30B40024046864681A
:10481000084D2C4089B28905890DD2B251EA024176
:104820001943029A11430C430068446030BC70473E
:1048300000E800FE009800FC90F84120202A2AD1D0
:1048400090F84020012A01D1022025E0012280F8C1
:104850004020242280F84120026812685208520049
:1048600003681A600268126832F4805203681A60A2
:10487000026812681143026811600168096851F00A
:10488000010102681160202180F84110002180F8A8
:104890004010002000E002207047002290F84120E4
:1048A000202A27D190F84020012A01D1022022E0BD
:1048B000012280F84020242280F8412002681268FA
:1048C0005208520003681A600268126832F470627B
:1048D00052EA012201680A600168096851F0010189
:1048E00002681160202180F84110002180F84010FA
:1048F000002000E00220704710B5002490F8251039
:10490000022903D00421C16301241BE00168096866
:1049100031F00E0102681160016809684908490018
:10492000026811600121426C9140026C51600121CA
:1049300080F82510002180F82410816B002901D017
:10494000816B88472000C0B210BD70471B4213D155
:10495000094236D12AB18446B0FBF2F002FB10C204
:10496000704700F06BB8FCD30022002370470B00A7
:104970000200002100207047904271EB030CF6D337
:1049800070B5B1FA81F4B3FA83F52C1BA340C4F1DE
:10499000200532FA05F63343A2405FF00046E640B8
:1049A00002E05B085FEA3202841A71EB030524BF60
:1049B000204629467641F4D302000B003000002146
:1049C00070BD012ACFD970B5140C20D0B1FA81F492
:1049D000B2FA82F5C4F120046419B4F12006D6D3EA
:1049E000B2405FF00044F440002502E052085FEA64
:1049F0003303C61A71EB020E24BF30467146644180
:104A00006D41F3D302000B002000290070BD0C465D
:104A1000B1FBF2F102FB11452D0445EA1045B5FB4F
:104A2000F2F402FB145580B240EA0545B5FBF2F002
:104A300002FB105240EA044070BD00E170470000E4
:104A400010B4002304E0DBB20C7863401B5C491C0B
:104A50001400621EE4B2002CF5D11800C0B210BCE4
:104A60007047002205E0D2B2135CDB43D2B213548C
:104A7000521CD2B2C9B28A42F5D37047F8B52DEDB7
:104A8000028B8AB0060000220020002100279FED43
:104A90003D8A002400255FF0000C07E05FFA8CFCE3
:104AA00036F81C3012FA83F21CF1010C5FFA8CFC10
:104AB000BCF10A0FF2DB00EE102AB8EE400ADFF874
:104AC0001829D2ED000A20EE200ABDEEC00A10EE31
:104AD000107A5FF0000C29E05FFA8CFC36F81C209D
:104AE000BFB2D21B00AB5FFA8CFC43F82C2000AAAB
:104AF0005FFA8CFC52F82C2000AB5FFA8CFC53F868
:104B00002C305A43D3178018594100AA5FFA8CFC05
:104B100052F82C20DFF8C4385FFA8CFC53F82C30A4
:104B20005A43D317A4185D411CF1010C5FFA8CFCA9
:104B3000BCF10A0FD0DB00F0C3FC41EC100B00F01D
:104B4000DFFC51EC100B00F05BFD08EE100AB5EE37
:104B5000408AF1EE10FA0ED02000290000F098FDF6
:104B600000EE100ADFF87808D0ED000A68EE200A9F
:104B700080EE200A01E09FED030A0AB0BDEC028B33
:104B8000F1BD0000000000007047FEE7FEE7FEE711
:104B9000FEE770477047704780B5FDF70AF8FFF7EA
:104BA00095FA01BD80B50220FCF7D1FD01BD0000E2
:104BB00010B5DFF83008FDF7F9FBDFF82C080078B6
:104BC000002836D0DFF824080078DFF82418DFF852
:104BD00018281278511801F8010CDFF80C08007839
:104BE000401CDFF804180870DFF808080078002877
:104BF00008D15FF0FF330122DFF8F017DFF8E40798
:104C0000FDF701FB0020DFF8E4170870DFF8D80794
:104C10000078072840F00482CA20DFF8DC1708700B
:104C20000020DFF8C41708700020DFF8C8170870EC
:104C3000F6E1DFF8C807D0E900231B0243EA12635C
:104C40001202DFF8B807C0E90023DFF8B007D0E9A7
:104C50000023DFF898070078002110431943DFF89C
:104C60009C27C2E90001DFF89407D0E900235FF038
:104C7000FF304FF6FF7110401940072200F03AFD57
:104C800003CD0000000000004D000000EFEFEFEF4B
:104C9000EF0000004501000003C2C2C2C2C2000012
:104CA0000101000003C9C9C9C9C900008100000091
:104CB00000CACACACACA0000AD00000003CACACAF4
:104CC000CACA0000A100000003CBCBCBCBCB0000B5
:104CD0002D0000002B0100000120DFF824170870D0
:104CE00000200021DFF81427C2E900015FF0FF3344
:104CF0000122DFF8F816DFF8EC06FDF784FAE5E0AC
:104D0000CB20DFF8F416087000200021DFF8EC2635
:104D1000C2E900010120DFF8EC1608705FF0FF33F4
:104D20000122DFF8C816DFF8BC06FDF76CFACDE00B
:104D30000020DFF8D4160870C920DFF8BC16087010
:104D400000200021DFF8B426C2E900010120DFF8CD
:104D5000B41608705FF0FF330122DFF89016DFF819
:104D60008406FDF750FAB1E00120DFF87C160870E8
:104D700000200021DFF88426C2E90001DFF86C067C
:104D80000078002809D05FF0FF330122DFF85C16BD
:104D9000DFF85006FDF737FA03E00120DFF854167C
:104DA000087093E00020DFF8601608700120DFF83B
:104DB000541608705920DFF84016087000200021B2
:104DC000DFF83826C2E900015FF0FF330122DFF887
:104DD0001C16DFF81006FDF716FA77E00020DFF862
:104DE000201608700020DFF8101608700020DFF889
:104DF0001416087000200021DFF80026C2E9000127
:104E000064E0DFF8FC050078002843D0DFF8DC051B
:104E10000078CD2809D05FF0FF330122DFF8CC15F0
:104E2000DFF8C005FDF7EFF934E0DFF8D005D0E991
:104E300000234FF6FF700021104019404CF6CD5270
:104E40000023994226D1904224D10020DFF8B015EA
:104E50000870DFF8A825D2E90001282200F05AFCEA
:104E6000DFF8A8150860DFF89425D2E90001000CEE
:104E700040EA0140090C0002000ADFF894150860BE
:104E8000CD20DFF87415087000200021DFF86C25B4
:104E9000C2E90001DFF87C050078002816D0DFF8B1
:104EA0004C050078E22804D10020DFF86C1508706A
:104EB00008E0DFF838050078E32803D10120DFF8A7
:104EC000581508700020DFF84C150870DFF8280529
:104ED000007800286AD0DFF82C050078002865D01B
:104EE000DFF808050078592839D0C92802D0CB2826
:104EF0002BD05BE0DFF810050078062811DADFF828
:104F000008050078411CDFF8002511705FF0FF33C1
:104F10000122DFF8DC14C0B24118DFF8C804FDF745
:104F200072F9DFF8E404007806280DDB0020DFF8D2
:104F3000C81408700020DFF8CC140870002000218D
:104F4000DFF8B824C2E9000130E05FF0FF3301224E
:104F5000DFF8C814DFF88C04FDF755F926E0DFF818
:104F6000A8040078032812DADFF89C040078411CBA
:104F7000DFF8942411705FF0FF330122DFF8A014F2
:104F8000C0B24118DFF85C04FDF73DF90DE00020E8
:104F9000DFF8641408700020DFF86814087000203F
:104FA0000021DFF85824C2E90001FFE7DFF87404AC
:104FB0000078002830D0DFF87004DFF8301409786A
:104FC00050F82100002827D0DFF82C0400780028B2
:104FD00022D15FF0FF330122DFF84C04DFF80C141C
:104FE000097850F82110DFF8FC03FDF70CF9DFF821
:104FF00034040078002806D0DFF828040078401E2A
:10500000DFF8201408700020DFF81C14DFF8DC2320
:10501000127851F8221008700020DFF8D0130870C1
:105020000122DFF8C813DFF8BC03FDF752F90121B4
:105030000022DFF8B8432000FCF72EFD10BD10B5AC
:10504000DFF8E803FCF7F2FB0020DFF8E013096863
:1050500048621222DFF8D813DFF8D8432000FCF7AB
:105060004FFDFBF701F9DFF8CC1348821422DFF87B
:10507000C413DFF8C4432000FCF742FDDFF8BC0393
:1050800000680A2806D2DFF8B4030068401CDFF885
:10509000AC130860DFF8A8030078002809D0DFF817
:1050A0009C0300680A280CD1DFF8940300780028DC
:1050B00007D0DFF88403FFF7E1FCDFF8880380ED19
:1050C000000ADFF87C030078002844D1DFF874037D
:1050D00090ED000ADFF87003D0ED000AB4EE600A2C
:1050E000F1EE10FA19DBDFF8540300680A2840F0EB
:1050F0007F800020DFF844130860DFF85003006869
:105100004008DFF848130860DFF84003006850F0FB
:105110000040DFF8381308606AE0DFF8340390EDF0
:10512000000ADFF82003D0ED000AB4EE600AF1EEC9
:1051300010FA5DDBDFF8040300680A2858D100206C
:10514000DFF8F8120860DFF8040300684008DFF8B1
:10515000FC1208604CE0BB4890ED000ABA48D0ED64
:10516000000AB4EE600AF1EE10FA20DBB3480068E2
:105170000A283DD10020B1490860B648B6490978EF
:10518000085CC0B24008B349B34A12785054B148E1
:10519000B1490978085C50F08000AE49AE4A1278F7
:1051A0005054AE480078401CAC49087020E0A84834
:1051B00090ED000AA348D0ED000AB4EE600AF1EECB
:1051C00010FA15DB9D4800680A2811D100209B4980
:1051D0000860A048A0490978085CC0B240089D4911
:1051E0009D4A127850549D480078401C9B49087095
:1051F0009B4894490968016091480078002822D1B1
:1052000092480068974988420CD101208C49087067
:1052100000209249087001209349087008209349A2
:10522000086010E089480068914988420BD101204C
:105230008349087000208949087000208A49087055
:1052400008208A4908607E48007800280BD08348EF
:105250000078082807D180480078401C7E490870F3
:1052600000207E4908707C4800788249097888428D
:1052700040F0AB8072480078002800F0A6807E489D
:105280000068400840007C49086001207B490860B4
:10529000002071490870002070490870002068499A
:1052A00008700020654908600020684908606E4861
:1052B0000078002804D06F4801786648FFF7D1FBDA
:1052C00008206F4908606F48027862496E48FFF70E
:1052D000B7FB60496B4A1278515CC0B2814246D13B
:1052E000684802785B49694C2000FCF709FC654876
:1052F00002785849664C2000FCF702FC0020654902
:105300000870FCF7AFFD6448FCF7DBFC63490860FC
:10531000604800786249097888420CD15F4800688B
:1053200060490968401A1D2808D35A4800785C492A
:105330000978884202D101205B49087055480078FD
:105340005749087055480068564908605748006832
:1053500090F00400554908602F480078002803D1D8
:105360000E203049087002E008202E49087041489C
:1053700001780022374C2000FCF78EFB142100221C
:105380002D4C2000FCF788FB14210022294C200022
:10539000FCF782FB4648008846490988884207D3C3
:1053A0004348008843490988401A4349088006E079
:1053B000404800883E490988401A3F4908802E48E5
:1053C000006850F001002C49086010BD80B53B48D2
:1053D000FCF72CFA01BD000010050020105B00084E
:1053E000345C000824050020C6070020D3070020F5
:1053F00074070020C7070020C4070020880700208A
:10540000D0070020C9070020CF0700209C070020FC
:10541000A0070020C8070020C2070020C307002003
:10542000385C0008C5070020000000208C06002022
:105430000E070020200700200C0700209407002002
:10544000CD070020AC0700200805002098070020A9
:105450000C05002034070020CB070020CA070020DD
:10546000B0070020AA4C300BCC07002018040048DD
:1054700055B3CFF422050020001000402410004056
:1054800028040048230500206C5700084807002026
:1054900058070020D20700207C070020A407002026
:1054A000D1070020A8070020CE07002014040048E0
:1054B0001E05002020050020C0070020CC0600208B
:1054C000094200BF08BF00F035B902460846B0FAED
:1054D00080F150408A40C1F12001C8415040C91EAE
:1054E00001F58461090501EBD021400540EAD22095
:1054F000520572F1004250F1000041F10001704785
:1055000051EC100B10B500F003F841EC100B10BD7E
:1055100040F2FF7C0B0D4DD0634566D230B421EADA
:10552000035141F4801103F2FD3C5FEA5C0C01D3AE
:1055300000184941890041EA907180004FF44014FD
:105540000023E202D50AB1F5100107D46D081DD27F
:10555000091B641900184941491BF7D56D080AD287
:105560000919641B00184941491BEFD56D08F7D391
:1055700001E0520817D0C01861419B1AAC410018D5
:105580004941801AA941F4D452080AD0C01AA14155
:105590009B186C4100184941801AA941E9D452086E
:1055A000F4D15B1C6C4161084FEA330001EB0C51F4
:1055B00030BC704750EA0103FBD030B4B1FA81F33C
:1055C00011B9B0FA80F41B190B3BB3F120042FBFC3
:1055D00000FA04F19940C3F1200420FA04F438BF22
:1055E00021439840D3F101039DE76345E1D011F5D4
:1055F000801FDED850EA4101DBD0D94300F0A8B8C3
:105600004FEAF17CBCF1E04C2CBFBCF5001F11E06F
:105610005FEA4C0C34BFBCF17F5F2EE05FEA9C0C6C
:105620004FEA0C1C4FEA3C0CC10071F100414CEBFD
:1056300050707047C90241EA5051C00218BF41F092
:10564000010141F000414FEA6C50C0F109002128EE
:1056500010D240EACC7CCCF1200C11FA0CF070F1A5
:105660000040CCF1200C21FA0CF00CF0004C40EB87
:105670000C0070474FEACC707047490011F5001FCD
:1056800004D84FEACC10FF30C0057047C8177047E8
:10569000002940F10B80F4464942404271F100017B
:1056A00000F00AF850F000406047000050EA0102A4
:1056B00000F00E80094200BF0BD1B0FA80F18840A3
:1056C000C1F19D01C905020672F1004241EB1020B3
:1056D0007047B1FA81F241409040C2F1200261FA74
:1056E00002F181EA000018BF40F0010002F19D01C3
:1056F000E8E7000030B42EF0010EBEE83010A04202
:1057000004BFA94203E0521EF7D15EF804CB30BCBF
:10571000E6447047D2B2203A22BF21FA02F00021BB
:1057200070472032D141D04048409140D14048405C
:1057300070470000010000BF09D0B0FA80F1884036
:10574000C91CC1F58461090501EBD02140057047F2
:105750001FB500F003F8212101601FBD014800F0D2
:1057600003B800001805002070470000005EBCE28E
:10577000613FDD83C29C7E20A3FD1F419DC3217F2D
:10578000FCA2401E5F01E3BD3E6082DC237D9FC121
:10579000421CFEA0E1BF5D0380DE3C62BEE0025C15
:1057A000DF81633D7C22C09E1D43A1FF4618FAA401
:1057B00027799BC584DA3866E5BB5907DB856739ED
:1057C000BAE406581947A5FB7826C49A653BD987E1
:1057D000045AB8E6A7F91B45C6987A24F8A6441AD5
:1057E00099C7257B3A6486D85B05E7B98CD2306EC1
:1057F000EDB3510F4E10F2AC2F7193CD114FADF3AD
:10580000702ECC92D38D6F31B2EC0E50AFF1134DA0
:10581000CE90722C6D33D18F0C52B0EE326C8ED094
:10582000530DEFB1F0AE4C1291CF2D73CA94762880
:10583000ABF517490856B4EA6937D58B5709EBB56C
:1058400036688AD495CB2977F4AA4816E9B7550B60
:1058500088D6346A2B7597C94A14F6A8742AC89654
:10586000154BA9F7B6E80A54D7896B35816807E06C
:1058700002681168536889185B18C36008320260B7
:10588000C2689142F4D04A1C8260087870472DE9C2
:10589000FF4D00F10801009100270268520801EB5A
:1058A000C2010191B84600210291039101684908A3
:1058B00000EBC101406800F0010501F10804400857
:1058C00004EBC00630E000A8FFF7D0FF4FFA80FAE3
:1058D0000AE00098016808180099029049680818C1
:1058E0000390009808300090029803998842F0D005
:1058F00010F801BB029047450CD1B44208BF00F03C
:105900001DF8276805B14F44606800EB07080834AC
:105910004745F2D0BAF1000F07F801BB0AD51AF1DA
:10592000010AE8D14745CED1B442CCD1304604B0CB
:10593000BDE8F08DBAF1010AD6D5F3E7012000F0F9
:1059400001B8000080B5C046C046024A11001820C8
:10595000ABBEFBE7260002001348006850F470005D
:10596000114908601148006850F001000F490860B3
:1059700000200F4908600D4800680E4908400B4997
:1059800008604FF480500C4908600848006830F403
:105990008020064908600020084908605FF0006028
:1059A000074908607047000088ED00E000100240E1
:1059B00008100240FFFFF6EA0C10024018100240E7
:1059C00008ED00E0453A5C50726F6A656374734D90
:1059D00043555C73746D33326C34373650726F6A72
:1059E000656374735C707269656D4E444D64737069
:1059F0005C5372635C75736172742E630000000007
:105A0000453A5C50726F6A656374734D43555C73BD
:105A1000746D33326C34373650726F6A65637473E9
:105A20005C707269656D4E444D6473705C53726353
:105A30005C6932632E630000453A5C50726F6A65A0
:105A40006374734D43555C73746D33326C34373605
:105A500050726F6A656374735C707269656D4E44F1
:105A60004D6473705C5372635C6D61696E2E63008C
:105A7000453A5C50726F6A656374734D43555C734D
:105A8000746D33326C34373650726F6A6563747379
:105A90005C707269656D4E444D6473705C537263E3
:105AA0005C7370692E630000453A5C50726F6A65E2
:105AB0006374734D43555C73746D33326C34373695
:105AC00050726F6A656374735C707269656D4E4481
:105AD0004D6473705C5372635C74696D2E63000077
