:020000040800F2
:10000000E01C002059540008452E0008472E000827
:10001000492E00084B2E00084D2E0008000000005D
:100020000000000000000000000000004F2E00084B
:10003000512E000800000000532E0008552E000825
:100040009154000895540008995400089D540008E4
:10005000A1540008A5540008A9540008612E000806
:10006000AD540008B1540008B5540008B954000854
:10007000BD540008C1540008C5540008C954000804
:10008000CD540008D1540008D5540008D9540008B4
:10009000DD540008E1540008E5540008E954000864
:1000A000ED540008F1540008F5540008F954000814
:1000B000FD540008015500080555000809550008C1
:1000C0000D55000811550008155500081955000870
:1000D0001D550008215500086B2E00082555000805
:1000E000295500082D5500083155000835550008E0
:1000F000395500083D550008415500084555000890
:10010000495500084D55000851550008555500083F
:10011000595500085D550008B13000082B31000822
:100120006155000865550008695500086D550008BF
:100130007155000875550008795500087D5500086F
:100140008155000885550008895500088D5500081F
:100150009155000895550008995500089D550008CF
:10016000A1550008A5550008A9550008AD5500087F
:10017000B1550008B5550008B95500080000000049
:10018000BD550008C155000880B5DFF86009DFF8EB
:10019000601901604FF482714160002181604FF469
:1001A0007061C16000210161002141614FF4007163
:1001B00081612021C1610021016200214162002191
:1001C00081620721C162002101630021416300F0C7
:1001D000CBFD002804D06D21DFF8E40A00F052FFC7
:1001E00001BD10B586B004002068DFF8041988420C
:1001F00019D1DFF8D00A016851F48051016000681C
:1002000010F4805000900098E020019002200290AD
:1002100000200390032004900520059001A95FF0C1
:10022000904000F06FFF06B010BD01B40098411E71
:1002300000910028FAD101B07047000010B40022EC
:10024000DFF8840A1021016000BF00BF00BF00BFBB
:1002500000BF00BF00BF00BF00BF00BF00BF00BFA6
:1002600000BF00BF00BF00BF00BF00BF00BF00BF96
:1002700000BF00BF00BF00BFDFF8501A10230B60A3
:1002800000BF00BF00BF00BF00BF00BF00BF00BF76
:1002900000BF00BF00BF00BF00BF00BF00BF00BF66
:1002A00000BF00BF00BF00BF00BF00BF00BF00BF56
:1002B00000BF00BF00BF00BF00BF00BF00BF00BF46
:1002C00000BF00BF00BF00BF00BF00BF00BF00BF36
:1002D00000BF00BF00BF00BF00BF00BF00BF00BF26
:1002E00000BF00BF00BF00BF10230360DFF8E009BC
:1002F00003689B07FAD5DFF8DC394FF6FF741C6002
:1003000004682406FCD4186810230B60DFF8C819B1
:100310000978002911D0DFF8C4190A8803009BB2BC
:100320009A4201D208800FE0DFF8B41902000B886E
:1003300092B29A4208D2088006E0DFF8A419088039
:100340000988DFF89829118080B210BC704770B519
:10035000040008252800451EC0B2002824D07600DD
:10036000200604D58020DFF87C19086003E0802097
:10037000DFF8741908602020DFF86C1908600A2083
:10038000FFF753FF2020DFF85C19086040215FF081
:10039000904001F054F8002801D056F001060120E9
:1003A000FFF743FF6400D5E73000C0B270BD10B561
:1003B00004002000C0B2FFF7CAFFFF20FFF7C7FF0D
:1003C000C0B210BD10B504001020DFF81C19086081
:1003D0002000C0B2FFF7BBFF1020DFF8081908604B
:1003E00010BD38B5002464251020DFF8FC18086023
:1003F0007020FFF7DCFF0400200604D42800451E0F
:10040000C0B20028F4D11020DFF8D818086031BD40
:10041000DFF8D8180A68D2695206F9D50A6810853B
:100420000A68126A52F0400209680A6270470000C6
:100430002DE9F84304000D001600B0465FF00009F6
:10044000A9451AD214F8090050F480700700DFF8AB
:10045000A008018814F8092089180180380080B2AA
:10046000FFF7D6FF4046B0F10108002801D000BFD9
:10047000F8E7B04619F10109E2E7BDE8F18310B5EC
:1004800004001020DFF860180860C520FFF75FFF48
:100490002000C0B2FFF75BFF1020DFF848180860AB
:1004A00010BD10B4002201000B781B04491C0C780D
:1004B00053EA04234C1C21780B43036010BC7047A3
:1004C000F0B591B004000D0026007FF07F40864219
:1004D0001DD2AE421BD2402201A9300000F0D2FA58
:1004E000DFF810080088ADF8000040F26C773A00A1
:1004F00002216846FFF79CFF3A00402101A8FFF760
:1005000097FF4036DFF8F00701F081F8DDE711B022
:10051000F0BD2DE9F84F86B0002005900020039033
:10052000DFF8D40701F073F84FF4807004900020D6
:100530000290DFF8C8673400029A0499200001F0A5
:1005400009FB0024002500F05DFB01207070DFF83E
:10055000B097D9F80000000EB071D9F80000000C77
:10056000F071D9F80000000A3072D9F800007072FA
:100570007FF07F4700970098000CF0700098000A09
:10058000307100987071322001F017FB40F26C78E6
:1005900042464FF480713000FFF74AFFD9F800005F
:1005A0000390AA208DF804004246012101A8FFF71C
:1005B0003FFFDFF83C970020A9F800000026DFF895
:1005C00044A7DFF844B7DBF80000DAF8001008436E
:1005D000002804D139000020FFF772FF76E0DFF831
:1005E0002C07DBF80010814208D1DAF800108142B4
:1005F00004D103990020FFF763FF67E0DBF80000F8
:10060000002863D0DAF8000000285FD05846FFF7D2
:1006100048FF5046FFF745FFDAF80000DBF800100E
:1006200088420BD2DBF800000090DAF80000CBF82B
:1006300000000098CAF80000002000900020009000
:1006400003226946701D00F01DFADBF800000099D6
:10065000884201D234000AE0BE4208D20020009055
:1006600003226946701D00F00DFA4036F4E714F1DC
:10067000010F48D0BE4222D20020009003226946DA
:10068000701D00F0FFF9DBF80000DAF80010884276
:1006900009D10098DAF8001088420ED014F1010F49
:1006A0000BD035000BE0DAF800000099884204D244
:1006B00014F1010F01D0350001E04036DAE715F101
:1006C000010F03D029002000FFF7FAFE012001F0FE
:1006D00074FA02A800210160B9F8000080B2000A93
:1006E0008DF80900B9F800008DF80A004246032190
:1006F00002A8FFF79DFE42460521DFF81406FFF72A
:1007000097FE00F0B7FA07B0BDE8F08FF8B590B0EB
:1007100000240020DFF8FC65002131800F25DFF880
:10072000F875002139703878002808D12800451E56
:10073000C0B2002803D0642001F03FFAF3E7DFF8ED
:10074000DC050088EF2856D000F05CFA7FF07F408F
:10075000844228D2DFF8A00500F059FFDFF8C07509
:100760000222390014F13E0000F08CF938884FF66F
:10077000FF71884206D02021200000F04DF914F5C9
:10078000805400E04034308840F265118842DDDA60
:10079000642000FB04F07FF07F41B0FBF1F050F4E7
:1007A00080703080D2E74FF4B27030804FF47A70AE
:1007B00001F003FA0020DFF848150860DFF864054F
:1007C0000088ADF83C00DFF860050088ADF83A001D
:1007D000DFF858050078ADF8380040F20340ADF876
:1007E0003E0040226946002000F007F80420FFF791
:1007F000E9FD00F03FFA11B0F0BD2DE9FC41040025
:100800000D00160002208DF800006F462000000C3D
:1008100078702000000AB87020008DF80300FFF700
:10082000E0FD0620FFF7CEFDFFF7DBFD1020DFF82F
:10083000B81408605FF000084046C0B2042807DA28
:100840004046C0B2385CFFF782FD18F10108F3E7BB
:1008500000273800C0B2B04206D23800C0B2285CCF
:10086000FFF775FD7F1CF4E71020DFF878140860AF
:10087000322001F0A2F9FFF7B4FDBDE8F3812DE9C4
:10088000F041DFF8A4442188DFF8A404006841188F
:1008900021802088B0F5E16F06DBDFF8880401884D
:1008A000491C01800020208040260027DFF8845466
:1008B000A8463A003100404601F04CF900F0A2F998
:1008C000DFF874040078002805D0DFF8700401F028
:1008D000D8F901F083F9DFF868040178A97041784C
:1008E000E97081782971C17869710179A9714079BC
:1008F000E871DFF85004018869850088A885032025
:10090000A886DFF844040088E886DFF840140878F9
:10091000002802D0087801280CD1DFF834040678CA
:10092000DFF8307415F1080832003900404601F054
:10093000E5FA11E00878072802D0087806280BD1DC
:10094000DFF80C040678DFF80C7415F11608320095
:100950003900404601F0D2FADFF8F40306780027A8
:10096000DFF8F08332003900404601F0C7FADFF8C3
:10097000E803008880B240086885DFF8B00300789B
:100980002887DFF8D803018829800188491C018065
:1009900020886887DFF88C030088A88740F2012050
:1009A000E887D74CDFF878830222414620683E3042
:1009B00000F068F8B8F800004FF6FF71884208D0E0
:1009C000FFF70FFD0620FFF7FDFC2021206800F057
:1009D00023F820687FF07F41884208D24022290016
:1009E0002068FFF70AFF2068403020600AE00020FE
:1009F0002060FFF7F6FC0620FFF7E4FC2021002032
:100A000000F00AF8012001F0D8F80420FFF7DAFC22
:100A100000F030F9BDE8F081FEB504000D000521BD
:100A200000226E46300001F095F88DF800506E46B9
:100A30002000000C70702000000A8DF802002000D9
:100A40008DF80300FFF7CDFC0620FFF7BBFCFFF796
:100A5000C8FC1020A449086000273800C0B2042850
:100A600006DA3800C0B2305CFFF771FC7F1CF4E797
:100A700010209C4908604FF4967001F09EF8FFF733
:100A8000B0FCF7BD2DE9FC4104000D001600032069
:100A90008DF800006F462000000C78702000000ADE
:100AA0008DF80200FC7010208F4908605FF000088C
:100AB0004046C0B2042807DA4046C0B2385CFFF7AF
:100AC00046FC18F10108F3E700273800C0B2B04235
:100AD00007D2FF20FFF73BFC3900C9B268547F1CE6
:100AE000F3E710207F490860BDE8F38184120020FD
:100AF000003001402DE9F04190B000F083F800246F
:100B0000FFF76FFC0620FFF75DFCE920FFF75AFCBA
:100B1000FFF767FC0620FFF755FC0020FFF7AFFC4E
:100B2000012001F04AF87E4F0222390020033E30B6
:100B3000FFF7A8FF641C4FF6FF783888404502D0C5
:100B4000B4F5805FEFD3641E002C47D0601C000317
:100B5000060020033E300500022239002800FFF77E
:100B600091FF40353888404501D0B542F4D3B542B5
:100B70001DD3402269467A48FFF784FFFFF731FC16
:100B80000620FFF71FFC20210020FFF745FF002073
:100B90005B490860BDF83C0062490880BDF83A0036
:100BA00061490880BDF838006049087022E0544867
:100BB000B5F17E0101604022694600684038FFF7C8
:100BC00061FFBDF83C0057490880BDF83A0056491E
:100BD0000880BDF83800554908700BE000204849EE
:100BE000086000205149087000204F49088000200B
:100BF0004C4908800420FFF7E5FB00F03BF810B0FB
:100C0000BDE8F08100B585B05648016831F040017B
:100C100001602C48016831F480510160E0215FF0EF
:100C2000904000F060FB2020009001200190022005
:100C300002900120039069465FF0904000F062FA54
:100C4000802000900120019001200290012003905B
:100C500069465FF0904000F055FA40200090002077
:100C600001900220029069465FF0904000F04AFA3D
:100C700005B000BD10B586B03A4C206830F0400099
:100C800020601048016851F480510160006810F440
:100C9000805000900098E0200190022002900020F7
:100CA0000390032004900520059001A95FF0904077
:100CB00000F028FA206850F04000206006B010BD17
:100CC0005C520008601002402808004818080048DC
:100CD000083001400C300140D814002004070020E7
:100CE0000607002018000048280000480C120020C9
:100CF000C4140020A21F000874140020000000206B
:100D0000A0140020AC140020A8140020E6E6E600A1
:100D100080540008C6140020DA140020D0140020EB
:100D2000C2140020C0140020BE140020D2140020E1
:100D3000B814002034130020D3140020E81200203F
:100D400084140020C8140020BA1F0008D914002001
:100D50000807002054140020CA140020BC140020EE
:100D6000C0FFFF000030014010B50400002C01D18D
:100D700001205AE0606A00280020A06294F85D001B
:100D8000002805D1002084F85C002000FFF729FA34
:100D9000022084F85D002068006830F0400021687F
:100DA000086040F20172E068904201D3002101E046
:100DB0004FF48051E068B0F5706F05D0E068B0F591
:100DC000E06F01D00020A062206B002807D1E0680E
:100DD000904202D30220206301E001202063626878
:100DE000A06802432069024360690243A06910F4CD
:100DF00000700243E0690243206A0243A06A024392
:100E000020680260A269120C12F00402606A0243B8
:100E1000606B0243E06802430A432068426000209E
:100E20002066012084F85D00002010BD70B501F03F
:100E3000B9F800F0A4F801F0C1F8FFF7A5F900F047
:100E400041FB00F0CBFE00F02CFF012000F0B5FECE
:100E5000FFF750FE012000F0B0FE7A48016851F023
:100E600020010160784C00202070784D4FF4FA701A
:100E700028800F2301227649764801F0B0F92078C6
:100E8000002809D12888002806D02888401E2880FC
:100E9000012000F092FEF2E7207800280DD06E4885
:100EA0000188E22903D100206C49087005E0008820
:100EB000E32802D1012069490870684800780028B9
:100EC00007D10E20664908704FF498606549088084
:100ED00006E00820624908704FF4507061490880AC
:100EE0006148016851F04001016001F02CFE01F001
:100EF00005FE00F093FB5D4800F089FB00F089FCE3
:100F00005B4C207800280AD05A4D280001F0BFFE23
:100F100000202070FFF7B3FC280001F0A9FE564C1A
:100F200020780028E7D0534D280001F0B0FE534E42
:100F3000300001F0ACFE2078C92814D0CA280DD0AA
:100F4000CB2806D0CD2813D102F002F90020207062
:100F50000EE0FFF7DBFB0020207009E002F046F90D
:100F60000020207004E002F089F900202070FFE7E3
:100F7000300001F07DFE280001F07AFEBBE780B56D
:100F8000B8B0012005905FF48030069002200F90E9
:100F900003201090012011901A2012900720139026
:100FA000022014900420159005A802F0E1F9002811
:100FB00004D040F20111324800F064F80F20009094
:100FC0000320019000200290002003900020049054
:100FD0000321684602F05AFC002804D040F20F11A9
:100FE000274800F04FF8422016900020259000205E
:100FF0002A9016A802F01AFE002804D040F2171119
:101000001F4800F03FF84FF4007003F099F90028F2
:1010100004D04FF48F711A4800F034F802F087FDC5
:101020004FF47A71B0FBF1F003F05FFA042003F0A3
:1010300062FA002200215FF0FF3003F03AFA39B083
:1010400000BD000000440040DA140020000700202A
:10105000FB2A00080C120020D0140020D21400201B
:10106000080700200207002000300140741400200F
:10107000D414002074130020D5140020B4130020D1
:1010800020520008FEE7F0B4024610689568131875
:10109000506803EB5004C00748BF4D44A3422DD015
:1010A00013F8016B16F0030004BF13F8010BC01C0A
:1010B00031090F2907D113F8011B0F3103E013F891
:1010C000017B05F8017B401EF9D10029E6D013F819
:1010D000010BC6F38106032E08BF13F8016B00EB6A
:1010E0000620404228440026B71E8F421EBF10F83B
:1010F000017B05F8017B761CF6D1CFE7F0BC02F14D
:101100000C007047F8B502000B00002400200025F9
:101110001968E140002900F0E58001261F6816FAF1
:1011200004F10F403800002800F0DA8059680229E5
:1011300002D0596812291AD12100C90802EB810195
:10114000096A0F275FEA840C1CF01C0C17FA0CF7D5
:10115000B9431F695FEA840C1CF01C0C17FA0CF7EA
:1011600039430D002100C90802EB81010D621768A7
:101170005FF0030C61001CFA01F18F4393F804E067
:101180001EF0030E61001EFA01FE5EEA07071760FB
:101190005968012908D05968022905D059681129D0
:1011A00002D0596812291AD1956861001CFA01F120
:1011B0008D43D3F80CE061001EFA01FE5EEA0505DE
:1011C0009560D2F804E016FA04F13EEA010E59687F
:1011D000C1F30011A14051EA0E0E7746576019790C
:1011E00011F00301032909D1D16AA640B1435D681A
:1011F000C5F3C005A54029430F00D762D56861003B
:101200001CFA01FC35EA0C059E6861008E403543EE
:10121000D5605968C90063D59D490E6856F001062E
:101220000E60096811F0010100910099994E2100AA
:10123000890856F821100F275FEA840C1CF00C0C6B
:1012400017FA0CF7B943B2F1904F01D100251EE017
:10125000914DAA4201D1012519E0904DAA4201D138
:10126000022514E08E4DAA4201D103250FE08D4DD9
:10127000AA4201D104250AE08B4DAA4201D10525DD
:1012800005E08A4DAA4201D1062500E00725A70006
:1012900017F00C07BD4029432500AD0846F825107E
:1012A000834E356885435F68FF0300D5054335608D
:1012B000804E316881435F68BF0300D501433160D0
:1012C0007D4D2E6886435F68FF0200D506432E6081
:1012D0007A490D6885435F68BF0200D505430D60FC
:1012E000641C15E7F1BD2DE9F04102000B0000245C
:1012F000002000251900E140002900F09E80012611
:1013000016FA04F119400800002800F094805FF0FC
:10131000030C116867001CFA07F7394311600F27A7
:101320002100C90802EB8101A6465FEADE0E02EB4E
:101330008E0EDEF820E05FEA840818F01C0817FA29
:1013400008F83EEA080EC1F820E091685FEA440E12
:101350001CFA0EFE31EA0E019160D2F804E016FA92
:1013600004F13EEA010EC2F804E0D2F80CE061009C
:101370001CFA01FC3EEA0C0CC2F80CC0D16AA64073
:1013800031EA0606D66243492600B60851F82660BF
:101390005FEA840C1CF00C0C17FA0CFC1CEA060625
:1013A0003500B2F1904F01D100261EE03A4EB24214
:1013B00001D1012619E0394EB24201D1022614E0D2
:1013C000374EB24201D103260FE0364EB24201D170
:1013D00004260AE0344EB24201D1052605E0334E20
:1013E000B24201D1062600E007265FEA840C1CF019
:1013F0000C0C16FA0CF6B5421DD1A60016F00C0620
:10140000B7403D002600B60851F82660AE432700DD
:10141000BF0841F8276026490E6886430E602549BB
:101420000E6886430E6024490E6886430E60234989
:101430000E6886430E60641C5CE7BDE8F081020024
:1014400010690B009BB2184201D0012000E000207F
:10145000C0B270471300DBB2002B03D00B009BB26D
:10146000836102E00B009BB28362704710B50400F9
:1014700013480168220092B2114206D0210089B2BD
:101480000160200080B203F059F810BD0000000098
:1014900060100240080001400004004800080048B5
:1014A000000C0048001000480014004800180048D4
:1014B0000004014004040140080401400C04014000
:1014C0001404014080B5DFF8E805DFF8E815016095
:1014D000DFF8E41541604FF4805181600021C16064
:1014E000002101610C214161002181610021C16164
:1014F00000210162202141624FF40051C16300F0DC
:101500002FFE002804D08F21DFF8B005FFF7BAFDC9
:1015100001BD10B586B004002068DFF89815884238
:1015200022D1DFF89C05016851F4003101600068A8
:1015300010F40030059005980C20009002200190D6
:1015400001200290032003900720049069465FF079
:101550009040FFF7D7FD00220121262002F0A9FFCD
:10156000262002F0BBFF1FE02068DFF858158842F4
:101570001AD1DFF84C05016851F480210160006840
:1015800010F48020059005984FF4406000900220F0
:1015900001900120029003200390072004906946E7
:1015A000DFF82405FFF7AEFD06B010BD38B5040026
:1015B000002C01D1012029E04CF6CC4021680860C4
:1015C00045F2555021680860606821684860A0684D
:1015D0002168886002F0B4FF05002068C068002818
:1015E00006D002F0ADFF401B3128F6D303200DE0FA
:1015F00020680069E168884203D0E06821680861DA
:1016000003E04AF6AA2021680860002032BD0100EC
:101610004AF6AA200A6810600020704780B5DFF8FB
:10162000AC04DFF8AC1401600421416040F6FF71A6
:10163000C1608160FFF7BAFF002805D04FF4A671A2
:10164000DFF87804FFF71EFD01BD2DE9F04303002C
:101650000027002400250020DFF878643A0092B2C9
:10166000C02A46DA17F1010C1CF1010212F1010E39
:10167000F0461FFA88F833F81880BFB233F81770B5
:1016800017EB08071FFA8CFC33F81CC017EB0C078C
:1016900092B233F8122017EB020C1EF1010E1EF16C
:1016A000010919F1010818F101073A0092B233F863
:1016B0001220BCEB020C1FFA8EFE33F81E20BCEB8E
:1016C000020C1FFA89F933F81920BCEB020C1FFA3F
:1016D00088F833F81820BCEB020C64467F1C6D08B8
:1016E000012C01DB55F40005326804FB0200361DB5
:1016F000B4E7DFF8E423954203D0DFF8E023954216
:1017000001D10D6001E000220A60BDE8F08310B451
:101710000400002013005A1EDBB2002B05D0C0B21B
:101720000B785840205C491CF4E7C0B210BC7047ED
:1017300010B4002213000C00DBB2E4B2A34208D2C2
:101740001300DBB2C35CDB431400E4B20355521C4C
:10175000F0E710BC7047F0B4020000200024002322
:101760002100C9B2402936DA611C4E1C751C2F00BD
:10177000FFB232F81770E4B232F81440E419C9B27B
:1017800032F811106118F6B232F8164011EB040C61
:101790006D1C6E1C771C7C1C2100C9B232F8111024
:1017A000BCEB010CEDB232F81510BCEB010CF6B23B
:1017B00032F81610BCEB010CFFB232F81710BCEB7C
:1017C000010C641CC0B24008BCF1010F01DB50F0F9
:1017D00080000023C4E7C0B2F0BC704710B4010021
:1017E000002000220B6800242200D2B2082A0DDA61
:1017F0002200D2B251F82220934205DA2200D2B25E
:1018000051F8222013002000641CEDE7C0B210BC88
:1018100070472DE9F84F86B0B1480078032840F0B2
:1018200043815FF0000900274FF4C074A246AD4D1C
:10183000AB46DFF8B482464652465946300000F0C7
:101840005DFB00263000C0B2082817DAA748310037
:10185000C9B200EB81013000C0B208EB4000FFF7D5
:10186000F4FE02F073FE31F0004102F081FEA04967
:101870003200D2B241F82200761CE3E79C48FFF721
:10188000ADFF8DF8000099489DF8001050F8211028
:10189000914A914203D10020964908700DE09DF8CD
:1018A000001050F821008D49884203D10120914950
:1018B000087002E002208F4908709DF80060C03671
:1018C00008208D490860DFF834923800C0B299F8DA
:1018D0000010491C88420CDA300080B208EB40004E
:1018E000FFF739FF86493A00D2B288547F1C403650
:1018F000E9E700208DF801007E480078012806D134
:1019000099F80010491CC9B27D48FFF711FF7D4FBF
:10191000DFF8ECB199F8002059467B48FFF7F7FE55
:101920003870387899F800101BF80110884203D1FC
:1019300001207649087002E00020744908700020F8
:1019400073490870DFF8C48198F80000002800F09F
:101950008B807048016891F00401016099F80000E3
:101960000590CDF810B0DFF8B0A1059A0499504663
:1019700000F0C4FA99F800000390CDF808B0DFF841
:101980009CA1CDF804A0039A0299019800F0B6FA40
:10199000019899F800000190DFF88491019A594666
:1019A000484600F0ABFADFF87C9199F80000002877
:1019B00006D19AF80D00C0B240095B49087002E0F8
:1019C000FF205949087000F0FAF9DFF860A100F033
:1019D00076F9CAF80000DFF858B1DBF800000028FB
:1019E00003D13C205349086006E0DAF80010DBF828
:1019F0000000091A4F4801604F4839780278914237
:101A000008D14C490968082906D347490978007864
:101A1000814201D1FEF733FFDAF80000CBF8000075
:101A200099F8000000280ED13F490878002802D01C
:101A30000878012803D10E204049087011E00E20DB
:101A40003F4908700DE038490878002802D008782E
:101A5000012803D108203949087002E008203849DC
:101A60000870002088F8000038783349087035483D
:101A700035490A8803889A4205D309880088091ADB
:101A80003248018004E002880888121A2F48028038
:101A900000201349087000273A002100280000F0B8
:101AA00059F82B4801F0E4F807B0BDE8F08F0000CA
:101AB0000C1200200044004000A30200D452000891
:101AC00058100240004800400004004874140020F0
:101AD0000030004000050020B3CFF4004C300B0074
:101AE000D81400208C1000200C07002014140020B3
:101AF000F4130020090700202804004808070020EC
:101B000064140020DF14002084500008DD1400203D
:101B1000DB14002014040048341400205414002066
:101B200044140020D2140020D9140020B414002042
:101B3000B0140020B8140020DE140020D6140020B9
:101B4000D71400200607002004070020CA14002034
:101B50007413002062F30F2262F31F42401810F04A
:101B6000030308D0C91A1FD3DB0748BF00F8012DB3
:101B700028BF20F8022D130030B414461546103942
:101B800028BF20E93C00FAD8490728BF20E90C000B
:101B900048BF40F8042D890028BF20F8022D48BF17
:101BA00000F8012D30BC7047C91818BF00F8012D8E
:101BB000CB0728BF00F8012D704770B5040002F074
:101BC000BFFC0500260016F1010F00D0761C02F0C4
:101BD000B7FC401BB042FAD370BD0E0410B5B84C30
:101BE000B8482060B84860600020A0600120E06034
:101BF00000202061002060610020A0610020E061E1
:101C000000202062200002F0CFFC002803D06221D7
:101C1000AE48FFF737FA0021200002F0EDFF002860
:101C200003D06921A948FFF72DFA0021200003F015
:101C300015F8002803D07021A448FFF723FA10BD3F
:101C400010B586B0040020689E49884217D1C02094
:101C500001901220029001200390032004900420A0
:101C6000059001A99A48FFF74DFA9A48016851F486
:101C700000110160006810F400100090009806B098
:101C800010BD10B5040020688E49884208D19148E3
:101C9000016831F400110160C0218D48FFF723FB7A
:101CA00010BDE0B58C480088ADF80400012000901C
:101CB000022301AAD021824802F0DCFC07BDF0B566
:101CC0000027864E307810F0030F01D1012200E08A
:101CD000002233881E331C00A40840F26D1000FB64
:101CE0000340002500210F00FFB296F802C0BCF1AE
:101CF000010C674514DA1700FFB2002F07D0784FA8
:101D00008C465FFA8CFC17F80C70ED1906E0754FE5
:101D10008C465FFA8CFC17F80C70ED19491CE2E751
:101D200071492818F778C019401E484337887F1E2C
:101D300017F0030F00D1081837794FF4616C96F84B
:101D400005E03C2101FB0EFE0CFB07E7B179791899
:101D50000818F0BD2DE9FF470821002201AC200042
:101D6000FFF7F8FE0324614D2E000DF10507220058
:101D70003100380000F0C2F800208DF80800032779
:101D800015F103080DF109093A004146484600F0F3
:101D9000B5F85748FFF73BFC32200090082301AA12
:101DA000D021474802F066FC5FF006095FF0000AA8
:101DB000524649462800FFF7CDFEBDE8FF873EB5F5
:101DC0000721002201AC2000FFF7C4FE4848FFF7BE
:101DD0001EFC3B4C322000900123464AD0212000BB
:101DE00002F048FC32200090072301AAD0212000F5
:101DF00002F00AFD404908700220FFF7DEFE3B4872
:101E00009DF80410017001A94A7842708A788270A6
:101E10000A79C2704A790271897941710378102474
:101E20002E490A220578EDB22D09EDB202FB0535E7
:101E300093FBF4F304FB13548C714378102445781E
:101E4000EDB22D09EDB202FB053593FBF4F304FB73
:101E500013544C71837810248578EDB22D09EDB2BE
:101E600002FB053593FBF4F304FB13540C71C378A8
:101E70001024C578EDB22D09EDB202FB053593FBB8
:101E8000F4F304FB1354CC70037910240579EDB2FC
:101E90002D09EDB202FB053593FBF4F304FB13545B
:101EA0008C70437910244079C0B20009C0B202FBA3
:101EB000003293FBF4F004FB10220A8037BD0000CF
:101EC000E812002000540040B47E7040E451000845
:101ED0000004004858100240DA1B00088C1400204F
:101EE00068540008745400088051010084140020D4
:101EF00074140020FA2A0008D314002062B38B0760
:101F000008D0521E11F8013B00F8013B00F024807C
:101F10008B07F6D1830740F0208000BF103A07D32B
:101F200030B4B1E83810103AA0E83810F9D230BC1B
:101F3000530724BFB1E80810A0E8081044BF51F8C7
:101F4000043B40F8043BD20724BF31F8022B20F8B1
:101F5000022B44BF0B7803707047121F17D35B002E
:101F600009D151F8043B20F8023B1B0C121F20F84A
:101F7000023BF6D20BE051F8043B00F8013B1B0A90
:101F800020F8023B1B0C121F00F8013BF3D238BFB4
:101F9000121D521E24BF11F8013B00F8013BF8D876
:101FA0007047010380B5032002F07DFA002002F0A3
:101FB00087FE02F099FE002002BD070238B586B008
:101FC0006348016851F004010160016811F00401E7
:101FD00005910599016851F080010160016811F0D7
:101FE000800105910599016851F0010101600168C6
:101FF00011F0010105910599016851F0020101609C
:10200000016811F0020105910599016851F008017C
:102010000160006810F00800059005980122102169
:102020005FF09040FFF716FA4A4C00220221200090
:10203000FFF710FA484D012210212800FFF70AFA95
:1020400000221E212000FFF705FA4FF6EF700090E6
:10205000032001900020029069462800FFF752F803
:1020600049F6037000900320019000200290694619
:102070005FF09040FFF746F820200090012001908B
:10208000022002900120039069465FF09040FFF724
:1020900039F8802000900120019001200290012059
:1020A000039069465FF09040FFF72CF840200090C5
:1020B000002001900220029069465FF09040FFF7F7
:1020C00021F81020009001200190012002900120B1
:1020D000039069465FF09040FFF714F810200090DD
:1020E00001200190022002900320039069462800FD
:1020F000FFF708F8012000900020019002200290D4
:1021000069462000FEF7FEFF1E200090012001908E
:10211000002002900120039069462000FEF7F2FFA4
:102120004FF2203000900320019000200290694679
:102130002000FEF7E7FF042000900320019000201C
:10214000029069460548FEF7DDFF07B030BD00BFCD
:102150004C1002400004004800080048000C0048F1
:1021600010B50400002C01D1012037E0A06900283F
:10217000FFD194F87100002805D1002084F8700088
:102180002000FFF7C6F9242084F871002068006859
:102190004008400021680860200000F043F9012851
:1021A00001D101201AE0606A002802D0200000F06E
:1021B00097FB2068406830F49040216848602068B0
:1021C000806830F02A00216888602068006850F03C
:1021D000010021680860200000F0EFFB10BD2DE930
:1021E000FC4705000C0016001F005FF0000A95F880
:1021F0007100202858D1002C03D0300080B2002874
:1022000001D1012051E095F87000012801D1022090
:102210004BE0012085F8700000206867212085F8D8
:10222000710002F08DF98146A5F85060A5F8526062
:10223000B5F85200002824D000974B460022802198
:10224000280000F0F1FB002801D003202DE0A86851
:10225000B0F5805F0BD12869002808D1A046B8F8F6
:102260000000C005C00D29680885A41C03E0207883
:1022700029680885641CB5F85200401EA5F8520074
:10228000D6E700974B4600224021280000F0CCFB07
:10229000002801D0032008E0202085F871000020EC
:1022A00085F87000002000E00220BDE8F6872DE9E7
:1022B000F04105002868C669286807682868D0F8D2
:1022C000088016F00F04002C0AD1B00608D5B80615
:1022D00006D5286E002802D02800296E88479FE086
:1022E000002C77D05FEAC87002D417F4907F71D0C9
:1022F0003000C00708D5F80506D501202968086216
:10230000686F50F001006867B00709D54046C00704
:1023100006D5022029680862686F50F004006867DB
:10232000700709D54046C00706D504202968086211
:10233000686F50F00200686730070BD5B80602D40A
:102340004046C00706D5082029680862686F50F02B
:1023500008006867686F00283BD0B00607D5B8064C
:1023600005D5286E002802D02800296E8847686F9E
:10237000000703D428688068400625D5280000F0AF
:102380008AFB2868806840061AD52868806830F083
:10239000400029688860E86E00280DD00FF21D709B
:1023A000E96E8863E86E02F0E7FC002811D0E86E61
:1023B000E96E896B88470CE0280002F009FD08E00F
:1023C000280002F005FD04E0280002F001FD0020D5
:1023D000686725E0F00210D55FEA48200DD55FF46C
:1023E000801029680862202085F87100202085F877
:1023F0007200280002F0EDFC12E0300608D5380625
:1024000006D5686E002802D02800696E884707E06C
:10241000700605D5780603D5280000F05DFBFFE7C0
:10242000BDE8F0812DE9F0470400002110255FF0A0
:10243000000A002600275FF00008DFF878242068F3
:102440009042FFD0A3682069034360690343E069B9
:1024500003432068D0F800C0DFF85C0410EA0C0CDD
:1024600053EA0C0C2068C0F800C02068D0F804C003
:102470003CF4405CE06850EA0C0C2068C0F804C0F2
:10248000D4F818902068904202D0206A50EA0909D6
:102490002068806830F4306059EA00002168886064
:1024A0002068DFF8181488421BD1DFF81404006894
:1024B00010F00300002805D0022806D008D3032816
:1024C00009D00BE001200500B7E002200500B4E0D0
:1024D00004200500B1E008200500AEE01020050052
:1024E000ABE02068DFF8DC1388421CD1DFF8D003B2
:1024F000006810F00C00002806D004280AD0082834
:1025000005D00C2809D00BE00020050095E0022042
:10251000050092E0042005008FE0082005008CE013
:102520001020050089E02068DFF89C1388421CD148
:10253000DFF88C03006810F03000002806D0102867
:102540000AD0202805D0302809D00BE00020050053
:1025500073E00220050070E0042005006DE0082013
:1025600005006AE01020050067E02068DFF85C13D2
:1025700088421CD1DFF84803006810F0C000002832
:1025800006D040280AD0802805D0C02809D00BE00A
:102590000020050051E0022005004EE00420050067
:1025A0004BE00820050048E01020050045E02068C9
:1025B000DFF81C1388421FD1DFF80403006810F411
:1025C0004070002809D0B0F5807F0CD0B0F5007FB6
:1025D00006D0B0F5407F09D00BE0002005002CE0CC
:1025E0000220050029E00420050026E0082005005F
:1025F00023E01020050020E0206890421DD1B04863
:10260000006810F44060002809D0B0F5806F0CD04D
:10261000B0F5006F06D0B0F5406F09D00BE0002098
:1026200005000AE00220050007E00420050004E0A0
:102630000820050001E0102005002068904240F0CD
:1026400081802800C0B2002806D0022808D00428C3
:1026500009D008280BD00EE001F06CFA80460CE09F
:102660009C48804609E001F0E9F9804605E04FF416
:102670000040804601E001200700B8F1000F00F0A3
:102680000F81616803204143884503D360680003DC
:10269000404502D20120070002E12800C0B2002814
:1026A00006D0022817D0042822D0082833D03BE0D7
:1026B00001F040FA020000231B0243EA12631202F7
:1026C000606840080021101859416268002302F038
:1026D00081FB06002AE06268520800237E48002140
:1026E000101859416268002302F074FB06001DE0D7
:1026F00001F0A4F9020000231B0243EA1263120254
:10270000606840080021101859416268002302F0F7
:1027100061FB06000AE06068400810F5000061688F
:10272000B0FBF1F0060001E001200700B6F5407FA4
:1027300005D3B6F5801F02D22068C660B0E0012044
:102740000700ADE0E069B0F5004F5BD12800C0B2F2
:10275000002808D0012812D002281CD0042824D038
:1027600008282ED037E001F0E5F96168490811EB3F
:1027700040016068B1FBF0F080B206002DE001F08E
:10278000E4F96168490811EB40016068B1FBF0F0C1
:1027900080B2060021E06068504911EB500160688A
:1027A000B1FBF0F080B2060017E001F047F9616874
:1027B000490811EB40016068B1FBF0F080B20600FF
:1027C0000BE06068400810F580306168B0FBF1F004
:1027D00080B2060001E001200700102E0FD3B6F5ED
:1027E000803F0CD24FF6F07131403000C0F3420010
:1027F00001438A46504680B22168C86050E00120FB
:1028000007004DE02800C0B2002808D0012811D0F0
:1028100002281AD0042822D008282BD034E001F056
:1028200089F9616810EB51006168B0FBF1F080B28A
:1028300006002BE001F089F9616810EB5100616836
:10284000B0FBF1F080B2060020E06068214911EB96
:1028500050016068B1FBF0F080B2060016E001F0B4
:10286000EDF8616810EB51006168B0FBF1F080B2E7
:1028700006000BE06068400810F500406168B0FB9E
:10288000F1F080B2060001E001200700102E05D310
:10289000B6F5803F02D22068C66001E00120070043
:1028A00000202066002060663800C0B2BDE8F087D6
:1028B0000000000000800040F369FFEF0038014095
:1028C000881002400044004000480040004C004096
:1028D000005000400024F400000024F40048E80107
:1028E00090F82410C90707D501684A6832F400320D
:1028F000816A0A4301684A6090F82410890707D565
:1029000001684A6832F48032C16A0A4301684A6049
:1029100090F82410490707D501684A6832F48022EC
:10292000016B0A4301684A6090F82410090707D533
:1029300001684A6832F40042416B0A4301684A6008
:1029400090F82410C90607D501688A6832F48052CD
:10295000816B0A4301688A6090F82410890607D5C4
:1029600001688A6832F40052C16B0A4301688A60C8
:1029700090F82410490613D501684A6832F4801291
:10298000016C0A4301684A60016CB1F5801F07D1F0
:1029900001684A6832F4C002416C0A4301684A6027
:1029A00090F82410090607D501684A6832F400221D
:1029B000816C0A4301684A6070477CB504000026B8
:1029C0000020606701F0BCFD05002068006800077A
:1029D0000DD57FF07E4000902B0000225FF40011A7
:1029E000200000F021F8002801D003201BE020681F
:1029F000006840070DD57FF07E4000902B0000223C
:102A00005FF48001200000F00FF8002801D00320BF
:102A100009E0202084F87100202084F87200002052
:102A200084F87000002076BD2DE9F04105000E000D
:102A300090461F00069C2868C0693040B04201D112
:102A4000012000E000204146C9B2884220D114F1A3
:102A5000010FF0D0002C04D001F072FDC01B8442A5
:102A6000E9D22868006830F4D070296808602868C6
:102A700080684008400029688860202085F871003F
:102A8000202085F87200002085F87000032000E007
:102A90000020BDE8F0810168096831F49071026896
:102AA0001160016889684908490002689160202125
:102AB00080F87210002101667047000038B50400EC
:102AC000A56A0020A5F85A000020A5F852002800A9
:102AD00002F07EF931BD000010B5040020680068E6
:102AE00030F0400021680860202084F87100002048
:102AF0006066200002F086FA10BD00E11FB5474C69
:102B000047482060002060600020A06040F6F3701D
:102B1000E0600020A061200000F08EF8002803D0C3
:102B20003E214048FEF7AEFA20200090002002909F
:102B30006946200002F068FA002803D04521394890
:102B4000FEF7A0FA1FBD1FB5374C3848206041F68C
:102B5000786060600020A06042F20F70E0600020AA
:102B6000A061200000F068F8002803D055212D480E
:102B7000FEF788FA2020009000200290694620008D
:102B800002F042FA002803D05C212648FEF77AFAC8
:102B90001FBD1CB504002068214988421CD124486F
:102BA000016851F010010160006810F01000009001
:102BB000009800220021362001F07BFC362001F035
:102BC0008DFC16480121026851627FF00101026804
:102BD000116100F04DF81FE02068144988421BD1B4
:102BE0001348016851F020010160006810F02000D6
:102BF0000090009800220321372001F05AFC372072
:102C000001F06CFC08487FF00101026811610121AC
:102C1000084A116000F02CF813BD00007413002066
:102C20000010004098520008B41300200014004027
:102C3000581002402414004010B50400002C01D1AB
:102C4000012014E094F83D00002805D1002084F80C
:102C50003C002000FFF79DFF022084F83D00211D6D
:102C6000206800F02FF8012084F83D00002010BDFE
:102C700001000868C06850F001000A68D060086868
:102C8000006850F001000A681060002070470100E1
:102C90000868C068400840000A68D0600868006A98
:102CA00041F2111210420BD10868006A40F244420E
:102CB000104205D108680068400840000A681060AA
:102CC0000020704710B400220468DFF8C03098423A
:102CD00012D0B0F1804F0FD0DFF8B42090420BD06B
:102CE000DFF8B020904207D0DFF8AC20904203D04C
:102CF000DFF8A820904203D134F070044A681443EE
:102D000098421ED0B0F1804F1BD0DFF88420904253
:102D100017D0DFF88020904213D0DFF87C2090425B
:102D20000FD0DFF8782090420BD0DFF8742090426B
:102D300007D0DFF87020904203D0DFF86C2090427B
:102D400003D134F44074CA68144334F080044A69EF
:102D5000144304608A68C2620A68826298420FD093
:102D6000DFF8382090420BD0DFF83420904207D0B3
:102D7000DFF83020904203D0DFF82C20904201D1C0
:102D80000A6902630122426110BC7047002C0140B5
:102D90000004004000080040000C004000340140E6
:102DA000004001400044014000480140F0B40100EF
:102DB000002400220023200080B2C02835DA601CE5
:102DC000461C751C2F00BFB231F81770A4B231F841
:102DD0001440E41980B231F810002018B6B231F86E
:102DE000164010EB040C6D1C6E1C771C7C1C200024
:102DF00080B231F81000BCEB000CADB231F8150018
:102E0000BCEB000CB6B231F81600BCEB000CBFB244
:102E100031F81700BCEB000C641C5B08BCF1010F1F
:102E200001DB53F400030022C5E7DFF8C804834246
:102E300003D0DFF8C404834201D1012000E0002068
:102E4000F0BC70477047FEE7FEE7FEE7FEE770471D
:102E50007047704780B502F009F901F05AFB01BDD7
:102E600080B50220FEF702FB01BDF8B5DFF88C54F7
:102E70002800FFF71CFADFF88844DFF88804008890
:102E800000F0FF0020800120DFF87C140870DFF8DC
:102E90007C24D2E90001090241EA10610002C2E982
:102EA0000001D2E900672088002130433943C2E99C
:102EB0000001DFF85C341878CB280BD12088CB28B0
:102EC00008D15FF0FF330122DFF848142800FFF734
:102ED00086F9ECE01878002840F0E980D2E900019A
:102EE0004CF6035180B288421BD1CD2018700020CF
:102EF0000021C2E90001208850F480702080DFF8B2
:102F000018043221017001784A1E0270C9B20029EA
:102F1000F9D15FF0FF33012221002800FFF75FF9AC
:102F2000C5E0D2E900015FF0FF364FF6FF77304091
:102F300039404CF6C916B14203D1DFF8E063B04224
:102F400034D04CF6CA26B14203D1DFF8D463B04284
:102F500048D04CF6CA26B14203D1DFF8C863B0426C
:102F600040D04CF6CB36B14203D1DFF8BC63B0425F
:102F700000D053E0CB20187000200021C2E90001EE
:102F8000208850F480702080DFF88C03322101709B
:102F900001784A1E0270C9B20029F9D15FF0FF33EF
:102FA000012221002800FFF71AF937E0C920187024
:102FB00000200021C2E90001208850F480702080A8
:102FC000DFF854033221017001784A1E0270C9B241
:102FD0000029F9D15FF0FF33012221002800FFF71B
:102FE000FEF81BE0CA20187000200021C2E9000191
:102FF000208850F480702080DFF81C03322101709B
:1030000001784A1E0270C9B20029F9D15FF0FF337E
:10301000012221002800FFF7E2F8FFE7C34E3078D5
:10302000002820D02088D0281DDB2088E0281ADA4C
:10303000BF49C04F208857F82000007850F48070B6
:1030400008805FF0FF3301222800FFF7C8F83078CE
:10305000002802D03078401E3070FF20218857F8B9
:103060002110087023E0B44E307800281FD020884B
:1030700090281CDB20889E2819DAAD49AD4F2088A6
:1030800057F82000007850F4807008805FF0FF331C
:1030900001222800FFF7A3F83078002802D030780A
:1030A000401E3070FF20218857F821100870F1BDB4
:1030B0002DE9F041A1487FF0010102681161A04CA7
:1030C000217800291BD14FF4BF759E4EB71CB04626
:1030D0002A0039004046FEF711FFFDF7AFF8A6F8C9
:1030E0007E013000FFF762FE00281CD008209649C0
:1030F000086001202070C0209449088013E09349A3
:103100000A88934B1B889A4209D20C88601C08805D
:10311000FDF794F88F49A4B221F8140003E0FFF7FB
:10312000B6FD03202070BDE8F0817FF001008A49E0
:103130000968086189480178282903DA0178491C5F
:10314000017004E00121864A11700021017070476E
:1031500070B500252800C0B2082825DA96200400A2
:10316000694E002030703078002808D12000441EBD
:10317000C0B2002803D00120FEF71FFDF3E760492D
:103180000888CD280ED00A884FF6FF6002400A80DA
:10319000088850F4807008805FF0FF3301225748A0
:1031A000FFF71DF86D1CD5E7584DD5E900014CF629
:1031B000CD5180B2884214D1D5E90001080A00211E
:1031C00068490860D5E90001000C40EA0140090C9B
:1031D00020F07F40644908603220FEF7EEFCFDF7E6
:1031E00098F900200021C5E9000170BD70B50025E7
:1031F0002800C0B20B282EDA96200400424E002090
:1032000030703078002807D12000441E002803D0F9
:103210000120FEF7D2FCF4E72800C0B2062805DA48
:103220003748008851492A00D2B288543449088866
:10323000EF280ED00A884FF6FF6002400A80088807
:1032400050F4807008805FF0FF3301222B48FEF7B6
:10325000C6FF6D1CCCE72D4DD5E9000110F0FF3005
:1032600011F0FF01EF2904D1B0F1EF3F01D1FEF7DA
:1032700071FD00200021C5E9000170BD7CB5FEF79D
:103280009EFD00252800C0B20B282DDA96200400F0
:103290001D4E002030703078002808D12000441ED8
:1032A000C0B2002803D00120FEF787FCF3E71448E2
:1032B0000188C92913D12900C9B206290FDA2B4880
:1032C0002900C9B2405C50F48070ADF800005FF096
:1032D000FF33012269460948FEF781FF02E00088BA
:1032E000EF2801D06D1CCDE700200021074AC2E97C
:1032F000000173BDB3CFF4004C300B000C12002062
:10330000D014002024440040DA1400209814002037
:10331000D5140020C6140020DC14002003C9C9C93C
:1033200000CACACA03CACACA03CBCBCBD614002070
:10333000CC14002000010020D714002074130020BA
:10334000D81400208C10002018040048CE1400204F
:10335000020700200C070020B4130020DB1400201B
:10336000D4140020A8140020AC14002084140020E1
:103370002DE9FC41040000252078C00640F1A28020
:10338000DFF86C68306810F00C0F5ED1DFF85C7805
:103390003868800704D5A069002801D1012073E2B4
:1033A0003868000703D5386810F0F00005E0DFF852
:1033B0004C080068000910F0F000216A88421AD217
:1033C000206A00F0CDFB002801D001205CE23868C3
:1033D00050F008003860396831F0F001206A01438C
:1033E0003960DFF81C08016831F47F41E26951EA75
:1033F0000221016019E0386850F00800386039682F
:1034000031F0F001206A01433960DFF8F407016808
:1034100031F47F41E26951EA02210160206A00F043
:103420009FFB002801D001202EE200F007FBDFF80F
:10343000D4173268C2F30312895CC840DFF8B817AA
:103440000860002001F03CFC3CE0A069002826D088
:10345000DFF89867306850F00100306001F070F8D4
:1034600005003068800706D401F06AF8401B032885
:10347000F7D3032008E2306850F00800306031686C
:1034800031F0F001206A01433160DFF87407016810
:1034900031F47F41E26951EA0221016012E0DFF874
:1034A0004C67306840084000306001F049F8050082
:1034B0003068800706D501F043F8401B0328F7D396
:1034C0000320E1E12078C00761D5DFF82407016817
:1034D00011F00C0108290BD0006810F00C000C282A
:1034E00010D1DFF81007006810F00300032809D19D
:1034F000DFF8F8060068800349D56068002846D1E7
:103500000120C1E16068B0F5803F06D1DFF8DC063C
:10351000016851F48031016018E06068B0F5A02FB7
:103520000AD1DFF8C806016851F480210160016802
:1035300051F48031016009E0DFF8B006016831F430
:1035400080310160016831F48021016060680028E9
:103550000ED000F0F5FF0500DFF89006006880034C
:1035600015D400F0EDFF401B6528F5D303208BE157
:1035700000F0E6FF0500DFF874060068800306D55A
:1035800000F0DEFF401B6528F5D303207CE12078A6
:10359000800759D5DFF85806016811F00C0104299D
:1035A0000BD0006810F00C000C281AD1DFF844068C
:1035B000006810F00300022813D1DFF8300600681D
:1035C000400504D5E068002801D101205CE1DFF866
:1035D0003006016831F0F851226951EA0261016058
:1035E00032E0E06800281CD0DFF80066306850F454
:1035F0008070306000F0A4FF05003068400506D4FC
:1036000000F09EFF401B0328F7D303203CE1DFF8C6
:10361000F005016831F0F851226951EA0261016058
:1036200012E0DFF8C865306830F48070306000F078
:1036300087FF05003068400506D500F081FF401B7C
:103640000328F7D303201FE12078000728D56069FD
:10365000002812D0DFF8A465306850F00100306017
:1036600000F06EFF05003068800719D400F068FF95
:10367000401B0328F7D3032006E1DFF8806530689C
:1036800040084000306000F05BFF050030688007B4
:1036900006D500F055FF401B0328F7D30320F3E0C5
:1036A0002078400779D50026DFF85C753868C000BF
:1036B0000AD4386850F080503860386810F0805074
:1036C0000090009801200600DFF84085D8F800003F
:1036D000C00513D4D8F8000050F48070C8F800007A
:1036E00000F02EFF0500D8F80000C00506D400F059
:1036F00027FF401B0328F6D30320C5E0A06801285C
:1037000006D1DFF80C05016851F00101016017E0F6
:10371000A06805280AD1DFF8F804016851F0040117
:103720000160016851F00101016009E0DFF8E00487
:103730000168490849000160016831F00401016035
:10374000A068002810D000F0FBFE0500DFF8C004E0
:103750000068800719D400F0F3FE401B41F2893164
:103760008842F3D303208FE000F0EAFE0500DFF883
:10377000A0040068800708D500F0E2FE401B41F27B
:1037800089318842F3D303207EE03000C0B20128A3
:1037900003D1386830F080503860A06A002872D0B9
:1037A000DFF84C04006810F00C000C2869D0A06A07
:1037B000022840D1DFF83464306830F08070306027
:1037C00000F0BEFE07003068800106D500F0B8FEAC
:1037D000C01B0328F7D3032056E0DFF81814206B32
:1037E000401E626B120252EA0012A06B000952EAFC
:1037F0004042E06A0243E06B4008401E52EA4052F9
:10380000206C4008401E52EA40620A60306850F066
:1038100080703060086850F08070086000F090FEA2
:103820000500306880012ED400F08AFE401B03287A
:10383000F7D3032028E0DFF8B463306830F08070FD
:1038400030603068000108D43068800005D4DFF8AB
:10385000A4030168890889000160DFF898130A68E9
:10386000DFF8B00302400A6000F06AFE050030682D
:10387000800108D500F064FE401B0328F7D3032025
:1038800002E0012000E00020BDE8F6812DE9F041D2
:1038900004000D000026DFF88073386810F0070080
:1038A000A8420BD23868C008C00028433860386886
:1038B00010F00700A84201D00120BDE02078C00729
:1038C00075D56068032806D1DFF820030068800101
:1038D0001CD40120B0E06068022806D1DFF80C0398
:1038E0000068800312D40120A6E06068002806D199
:1038F000DFF8F8020068800708D401209CE0DFF8B8
:10390000EC020068400501D4012095E0DFF8E08278
:10391000D8F800108908890060680143C8F80010D1
:1039200000F00EFE0600606803280ED1D8F80000F3
:1039300010F00C000C283AD000F002FE801B41F27F
:1039400089318842F2D3032076E0606802280ED1E4
:10395000D8F8000010F00C00082828D000F0F0FD86
:10396000801B41F289318842F2D3032064E0606811
:1039700000280DD1D8F8000010F00C0F17D000F07F
:10398000DFFD801B41F289318842F3D3032053E0ED
:10399000D8F8000010F00C00042808D000F0D0FD8A
:1039A000801B41F289318842F2D3032044E0207821
:1039B000800707D5DFF838120A6832F0F002A068F5
:1039C00002430A60386810F0070085420BD238685D
:1039D000C008C00028433860386810F00700A842CB
:1039E00001D0012028E02078400707D5DFF8001239
:1039F0000A6832F4E062E06802430A602078000757
:103A000008D5DFF8EC01016831F46051226951EA10
:103A1000C201016000F012F8DFF8E811DFF8D021F0
:103A20001268C2F30312895CC840DFF8CC11086049
:103A3000002001F045F90020BDE8F081F0B400223B
:103A40000023002402250226002069490F6817F090
:103A50000C0F0AD00F6817F00C070C2F1CD1654F04
:103A60003F6817F00307012F16D1604FD7F800C049
:103A70005FEA0C7C04D4614F3F68C7F3032702E080
:103A80003F68C7F30317654A52F827200F6817F0FD
:103A90000C0F10D110000EE00F6817F00C07042F68
:103AA00002D15F4F380006E00F6817F00C07082FAF
:103AB00001D15C4F3800096811F00C010C2934D198
:103AC0004C4F396811F003010C003968C1F3021141
:103AD000491C0E002100022902D003290AD013E05C
:103AE0004F49B1FBF6FC3968C1F3062101FB0CFC20
:103AF000634611E04B49B1FBF6FC3968C1F306217E
:103B000001FB0CFC634607E0B2FBF6FC3968C1F32D
:103B1000062101FB0CFC63463968C1F34161491C75
:103B200049000D00B3FBF5F10800F0BC70473248C6
:103B30000068704780B5FFF7FAFF3B492C4A1268CE
:103B4000C2F30222895CC84002BD80B5FFF7EFFFD7
:103B50003549274A1268C2F3C222895CC84002BDB7
:103B6000F8B5040000260025274F3868C00003D5AB
:103B700000F0E0FB01000FE0386850F08050386042
:103B8000386810F080500090009800F0D3FB0100DE
:103B9000386830F080503860B1F5007F09D1812C51
:103BA00015D3A12C02D30220050010E0012005004E
:103BB0000DE0812C02D30320050008E0802C02D107
:103BC0000220050003E0702C01D1012005001248FD
:103BD0000268D208D2002A430260006810F0070091
:103BE000A84201D0012000E00020F2BD00100240F8
:103BF000081002400C100240FC0400209410024007
:103C00000410024048540008581002400070004060
:103C100090100240FFFFEEFE0020024048530008D3
:103C20000024F400001BB700885400082DE9F84F69
:103C300005000024002600275FF000082868000522
:103C400031D5686E002810D0B0F5800F13D0B0F5D4
:103C5000000F03D0B0F5400F14D014E0DFF8DC0300
:103C6000016851F4803101600FE00021281D00F04F
:103C7000EFF9070009E0002115F1200000F0A2FA99
:103C8000070002E001E0012007003800C0B2002870
:103C900008D1DFF8AC130A6832F44002686E0243C0
:103CA0000A6000E0B8462868C00431D5A86E002834
:103CB00010D0B0F1807F13D0B0F1007F03D0B0F10D
:103CC000407F14D014E0DFF87403016851F48031B0
:103CD00001600FE00021281D00F0BAF9070009E09B
:103CE000002115F1200000F06DFA070002E001E06C
:103CF000012007003800C0B2002808D1DFF84013C7
:103D00000A6832F04072A86E02430A6000E0B846CA
:103D1000286880037CD55FF00009DFF828A3DAF873
:103D20000000C0000DD4DAF8000050F08050CAF84E
:103D30000000DAF8000010F0805000900098012098
:103D40008146DFF804B3DBF8000050F48070CBF854
:103D5000000000F0F5FB0600DBF80000C00506D40B
:103D600000F0EEFB801B0328F6D303200700380089
:103D7000C0B2002841D1DFF8D4B2DBF8000010F463
:103D800040700400002C16D0D5F88400844212D074
:103D9000DBF8000030F440700400DBF8000050F461
:103DA0008030CBF80000DBF8000030F48030CBF836
:103DB0000000CBF80040E0070FD500F0C1FB060083
:103DC000DBF80000800708D400F0BAFB801B41F24A
:103DD00089318842F4D3032007003800C0B200289C
:103DE00009D1DBF8001031F44071D5F884000143AB
:103DF000CBF8001002E0B84600E0B8464846C0B232
:103E0000012805D1DAF8000030F08050CAF800002F
:103E10002878C00707D5DFF828120A6892089200B0
:103E2000A86B02430A602878800706D584490A688F
:103E300032F00C02E86B02430A602878400706D58E
:103E40007F490A6832F03002286C02430A60287801
:103E5000000706D57A490A6832F0C002686C02434E
:103E60000A602878C00606D575490A6832F440729F
:103E7000A86C02430A602878800606D570490A6853
:103E800032F44062E86C02430A602868800506D577
:103E90006B490A6832F44022E86D02430A602868E0
:103EA000400506D566490A6832F44012286E02437E
:103EB0000A602878400606D561490A6832F4405203
:103EC000286D02430A602878000606D55C490A6816
:103ED00032F44042686D02430A602868C00506D586
:103EE00057490A6832F44032A86D02430A602868D4
:103EF00080041ED552490A6832F04062E86E0243DF
:103F00000A60E86EB0F1006F05D14C48016851F4C9
:103F1000801101600DE0E86EB0F1806F09D10121E0
:103F2000281D00F095F807003800C0B2002800D026
:103F3000B846286800031ED541490A6832F040623D
:103F4000286F02430A60286FB0F1006F05D13B482B
:103F5000016851F4801101600DE0286FB0F1806FAD
:103F600009D10121281D00F073F807003800C0B204
:103F7000002800D0B846286840031ED530490A689A
:103F800032F04062686F02430A60686FB0F1006F00
:103F900005D12A48016851F4801101600DE0686F75
:103FA000B0F1806F09D10121281D00F051F8070000
:103FB0003800C0B2002800D0B8462868400424D594
:103FC0001F490A6832F04052A86F02430A60A86F86
:103FD000B0F1805F0AD10221281D00F039F80700F6
:103FE0003800C0B2002810D0B8460EE0A86FB0F17B
:103FF000005F0AD1022115F1200000F0E3F807006C
:104000003800C0B2002800D0B8462868000406D5A1
:104010000B490A6832F08042E86F02430A60286860
:10402000C00307D506490A6822F00042D5F880008F
:1040300002430A604046C0B2BDE8F28F0C10024055
:10404000881002405810024000700040901002405A
:104050002DE9F04105000C0000260027AE49086854
:1040600010F0030F12D0086810F003002A68904285
:1040700009D12868002806D00868C0F30210401C47
:104080006968884232D0012007002FE028680128A3
:1040900004D01BD303280FD007D317E09F48006834
:1040A000800701D40120070012E09C480068400509
:1040B00001D4012007000BE098480268920304D461
:1040C0000068400301D40120070001E0012007003F
:1040D0003800C0B2002809D10A6832F0730228689B
:1040E00002436868401E52EA00120A603800C0B2FB
:1040F000002862D1DFF82482D8F8000030F0806018
:10410000C8F8000000F01CFA0600D8F80000000112
:1041100006D500F015FA801B0328F6D3032007000C
:104120003800C0B2002848D1002C0CD17C490A6864
:104130007C480240A86852EA0022E868000952EA76
:1041400040420A601CE0012C0DD175490A6876488E
:104150000240A86852EA002228694008401E52EA3C
:1041600040520A600CE06E490A6870480240A86834
:1041700052EA002268694008401E52EA40620A6022
:10418000D8F8000050F08060C8F8000000F0D8F9BE
:104190000600D8F80000000106D400F0D1F9801B19
:1041A0000328F6D3032007003800C0B2002804D14A
:1041B0005B490A68A86902430A603800C0B2BDE8DA
:1041C000F08100002DE9F04105000C0000260027D9
:1041D0005149086810F0030F12D0086810F003006E
:1041E0002A68904209D12868002806D00868C0F3E0
:1041F0000210401C6968884232D0012007002FE07D
:104200002868012804D01BD303280FD007D317E058
:1042100042480068800701D40120070012E03F48AF
:104220000068400501D4012007000BE03B4802680C
:10423000920304D40068400301D40120070001E088
:10424000012007003800C0B2002809D10A6832F006
:104250007302286802436868401E52EA00120A602E
:104260003800C0B2002852D1DFF8B080D8F8000082
:1042700030F08050C8F8000000F062F90600D8F86D
:104280000000800006D500F05BF9801B0328F6D300
:10429000032007003800C0B2002838D1002C0CD110
:1042A00023490A681F480240A86852EA0022E868C9
:1042B000000952EA40420A600CE01D490A681B48A6
:1042C0000240A86852EA002228694008401E52EACB
:1042D00040620A60D8F8000050F08050C8F8000032
:1042E00000F02EF90600D8F80000800006D400F097
:1042F00027F9801B0328F6D3032007003800C0B23B
:10430000002804D10A490A68686902430A60380033
:10431000C0B2BDE8F08100000C1002400010024065
:1043200010100240FF80FDFFFF809FFFFF80FFF91C
:1043300014100240DFF88400006810F4C060704779
:1043400010B402000021B2F5007F26D1DFF86C0026
:10435000036813F4C063B3F5007F2BD00123046816
:1043600063F34A240460DFF858000068DFF8543033
:10437000B0FBF3F3322043431900002906D0DFF8E5
:1043800048000068400501D5491EF6E7DFF838000F
:10439000006840050ED503200DE0DFF8200003681B
:1043A00013F4C063B3F5806F04D00223046863F391
:1043B0004A240460002010BC7047000000700040D8
:1043C000FC04002040420F001470004010B410F0B4
:1043D0000703524C22684FF6FF010A4052EA0322BB
:1043E0004F490A43226010BC70474C480068C0F334
:1043F00002207047012210F01F018A404949030042
:104400005BB25B0941F82320704710B4020052B23E
:10441000002A09D50A01444B040064B214F00F04C9
:10442000234403F8042C04E00A01404B040064B266
:104430001A5510BC704770B4030013F00704D4F190
:104440000700052801D3042001E0D4F10700251D51
:10445000072D01D2002500E0E51E012616FA00F026
:10446000401E0140A94016FA05F56D1E2A40114371
:10447000080070BC704710B50400601EB0F1807F6A
:1044800001D301200EE0601E294908600F215FF072
:10449000FF30FFF7BAFF00202649086007202649B1
:1044A0000860002010BD10B504002000FFF78EFF4B
:1044B00010BD2DE9F04104000D0016000027FFF7A4
:1044C00094FF8046320029004046FFF7B4FF010008
:1044D000200040B2FFF799FFBDE8F08110B504005D
:1044E000200040B2FFF786FF10BD10B50400200089
:1044F000FFF7C1FF10BD042805D10F490A6852F02B
:1045000004020A6004E00C490A6832F004020A60FE
:10451000704780B500F0B2FD01BD00000CED00E079
:104520000000FA0500E100E018ED00E000E400E022
:1045300014E000E018E000E010E000E07047000048
:1045400001480068704700BFA414002010F000412B
:1045500060B148BF4042B0FA80F29040D21CC2F530
:10456000846241EA025202EBD0214005704700000C
:10457000C1F30A5340F21E42D31A0CDDCA0283F380
:10458000070342EA505242F00042DA4002EBE17285
:1045900082EAE17070476FEAE17203F2E13008B13C
:1045A00082F000407047000010B50400002C01D1DB
:1045B00001205EE094F84100002805D1002084F835
:1045C00040002000FDF73CFB242084F841002068D7
:1045D00000684008400021680860606830F0706042
:1045E000216808612068806830F400402168886094
:1045F000E068012805D1A06850F400402168886077
:1046000004E0A06850F4044021688860E068022853
:1046100003D14FF40060216848602068406840F092
:10462000007050F40040216848602068C06830F491
:1046300000402168C860216960690143A06951EAAE
:1046400000212068C160E169206A0143206801609F
:104650002068006850F00100216808600020606454
:10466000202084F8410000202063002084F84200CC
:10467000002010BD2DE9FC4704000D0016001F00AE
:10468000DDF828805FF0000A94F84100202840F00F
:10469000B88094F84000012801D10220B2E0012046
:1046A00084F84000FFF74CFF8146CDF800901923B5
:1046B00001224FF40041200000F084F9002801D0CD
:1046C00003209FE0212084F84100102084F842005C
:1046D000002060646662678500206063608DB0F5CD
:1046E000807F0ED3FF2020854FF4005000905FF0B4
:1046F0008073228DD2B2290089B2200000F061FAC5
:104700000DE0608D20854FF4005000905FF0007345
:10471000228DD2B2290089B2200000F052FA608DB9
:1047200000284BD04A464146200000F076F9002888
:1047300006D0606C042801D1012063E0032061E011
:10474000606A411C6162007821688862608D401E49
:104750006085208D401E2085208D0028DFD1608D52
:104760000028DCD0CDF800904346002280212000B4
:1047700000F028F9002801D0032043E0608DB0F557
:10478000807F0DD3FF202085002000905FF0807394
:10479000228DD2B2290089B2200000F012FABEE7C1
:1047A000608D2085002000905FF00073228DD2B2D2
:1047B000290089B2200000F004FAB0E74A464146D9
:1047C000200000F056F9002806D0606C042801D1C2
:1047D000012017E0032015E020202168C86120682F
:1047E0004168DFF8B801014020684160202084F86A
:1047F0004100002084F84200002084F8400000209E
:1048000000E00220BDE8F6872DE9FC4704000D001A
:1048100016001F00DDF828805FF0000A94F84100C0
:10482000202840F0B88094F84000012801D10220EF
:10483000B2E0012084F84000FFF782FE8146CDF807
:104840000090192301224FF40041200000F0BAF833
:10485000002801D003209FE0222084F8410010208E
:1048600084F842000020606466626785002060630F
:10487000608DB0F5807F0ED3FF2020854FF410505F
:1048800000905FF08073228DD2B2290089B220009F
:1048900000F097F90DE0608D20854FF410500090E6
:1048A0005FF00073228DD2B2290089B2200000F09F
:1048B00088F9608D00284BD04A464146200000F020
:1048C00001F9002806D0606C042801D1012063E0C2
:1048D000032061E0606A411C61622168496A0170DD
:1048E000208D401E2085608D401E6085208D002813
:1048F000DFD1608D0028DCD0CDF800904346002247
:104900008021200000F05EF8002801D0032043E061
:10491000608DB0F5807F0DD3FF20208500200090B2
:104920005FF08073228DD2B2290089B2200000F09E
:1049300048F9BEE7608D2085002000905FF000738D
:10494000228DD2B2290089B2200000F03AF9B0E7F6
:104950004A464146200000F08CF8002806D0606CE2
:10496000042801D1012017E0032015E02020216850
:10497000C86120684168DFF8240001402068416078
:10498000202084F84100002084F84200002084F8B0
:104990004000002000E00220BDE8F68700E800FEAD
:1049A00001688969890702D500210268916201685E
:1049B0008969C90705D40168896951F00101026854
:1049C000916170472DE9F04105000E0090461C00F2
:1049D000069F286880693040B04201D1012000E084
:1049E00000204146C9B2884214D114F1010FF0D021
:1049F000002C04D0FFF7A4FDC01B8442E9D2202084
:104A000085F84100002085F84200002085F840002C
:104A1000032000E00020BDE8F08170B505000C0027
:104A2000160028688069800721D432002100280000
:104A300000F088F8002801D0012019E014F1010FDE
:104A4000EFD0002C04D0FFF77BFD801B8442E8D21E
:104A5000686C50F020006864202085F84100002038
:104A600085F84200002085F84000032000E0002087
:104A700070BD70B505000C001600286880698006BE
:104A80001ED432002100280000F05CF8002801D07C
:104A9000012016E0002C04D0FFF752FD801B844259
:104AA000EBD2686C50F020006864202085F841004B
:104AB000002085F84200002085F84000032000E037
:104AC000002070BD70B505000C00160028688069D4
:104AD000400735D432002100280000F033F80028C8
:104AE00001D001202DE028688069800615D520209E
:104AF0002968C861286841683D48014028684160CC
:104B000000206864202085F84100002085F84200DC
:104B1000002085F84000012013E0002C04D0FFF7AE
:104B20000FFD801B8442D1D2686C50F02000686475
:104B3000202085F84100002085F84000032000E097
:104B4000002070BD70B505000C0016002868806953
:104B5000C00634D528688069800614D414F1010F8A
:104B6000F8D0002C04D0FFF7EBFC801B8442F1D27C
:104B7000202085F84100002085F84200002085F8BB
:104B8000400003201CE010202968C861202029680B
:104B9000C8612800FFF704FF2868416814480140F5
:104BA0002868416004206864202085F841000020C6
:104BB00085F84200002085F84000012000E0002038
:104BC00070BDF0B4049D002604686768094C274056
:104BD0000C00A4B2A405A40D27431400E4B257EAC4
:104BE00004471F432F4304686760F0BC7047000010
:104BF00000E800FE009800FC020092F84100202826
:104C00002AD192F84000012801D1022025E001209C
:104C100082F84000242082F84100106800684008B3
:104C20004000136818601068006830F48050136802
:104C300018601068006808431368186010680068FE
:104C400050F0010013681860202082F84100002015
:104C500082F84000002000E00220704730B40200DB
:104C6000002392F84100202827D192F84000012823
:104C700001D1022022E0012082F84000242082F8A5
:104C80004100106800684008400014682060106807
:104C9000046834F4706454EA0124106804601068F5
:104CA000006850F0010015682860202082F841005B
:104CB000002082F84000002000E0022030BC704755
:104CC00010B50400074800684FF47A71B0FBF1F0AA
:104CD000FFF70BFC002221005FF0FF30FFF7E9FB3C
:104CE000002010BDFC04002080B52148016851F06F
:104CF00001010160006810F00100009000981D485B
:104D0000016851F080510160006810F080500090FF
:104D100000980320FFF7C7FB002200217FF00B0063
:104D2000FFF7C7FB002200217FF00A00FFF7C1FB5D
:104D3000002200217FF00900FFF7BBFB00220021C9
:104D40007FF00400FFF7B5FB002200217FF0030095
:104D5000FFF7AFFB002200217FF00100FFF7A9FB66
:104D6000002200215FF0FF30FFF7A3FB01BD00BF71
:104D7000601002405810024038B50400002594F835
:104D80002500022804D00420E063012005001CE077
:104D90002068006830F00E00216808602068006814
:104DA00040084000216808600121606C8140206C4F
:104DB0004160012084F82500002084F82400A06BC5
:104DC000002802D02000A16B88472800C0B232BD65
:104DD00070477047BBBBE1B1B2F5803F80F07E8089
:104DE000022A1ED98C46B1FBF2F102FB11C31B044F
:104DF00043EA1043B3FBF2FC02FB1C3380B240EAEF
:104E00000343B3FBF2F002FB103240EA0C400023F4
:104E10007047022A05D98446B0FBF2F002FB10C2AB
:104E200070474AB105D100F0010249085FEA30003D
:104E3000704700220023704700F022B90B000200E7
:104E4000002100207047904271EB030CF6D3B3F5BC
:104E5000803F2FD2F0B5B3FA83F7B1FA81F4A7F10E
:104E60000F0E3D1B5340CEF1200602FA0EF2F34125
:104E70005340B5F10F0746D80F3C2C444140C4F1D4
:104E80002006A040F1414140B1FBF3F603FB1611AF
:104E9000A2FB0645001BA94102D2761E801859418B
:104EA00080EA010221FA0EF362FA0EF200215A4062
:104EB0003046F0BD30B4B1FBF3FC03FB1C11A2FB88
:104EC0000C45001BA94103D2ACF1010C80185941DB
:104ED00030BC02460B46604600217047B2F1807F2D
:104EE00065D3F0B5B2FA82F7B1FA81F4C7F10F06D3
:104EF0003D1B22FA06F307F1110EF24120355A400C
:104F0000B5F10F07B8D94140C4F12006A040F141E6
:104F10004140B1FBF3FC03FB1C11A2FB0C45001B41
:104F2000A94103D2BCF1010C801859410F2F12D3B3
:104F30000F3FC90341EA5041B1FBF3F603FB1611E1
:104F4000A2FB0645D4EBC030A94102D2761E8018E0
:104F5000594146EACC3C07B34140C7F12006B8406E
:104F6000F1414140B1FBF3F603FB1611A2FB0645EC
:104F7000001BA94102D2761E8018594180EA010225
:104F800021FA0EF3C7F1200462FA0EF20CFA07F0D0
:104F90005A402CFA04F13043F0BD80EA010221FAB4
:104FA0000EF3002162FA0EF260465A40F0BD8C46C4
:104FB000B1FBF2F102FB11C31B0243EA1063B3FB26
:104FC000F2FC02FB1C331B024CEA002043EA106394
:104FD000B3FBF2FC02FB1C331B024CEA002043EA49
:104FE0001063B3FBF2FC02FB1C331B024CEA0020F3
:104FF00043EA1063B3FBF2FC02FB1C324CEA0020D4
:10500000002370477047000030B4020092F83C0063
:10501000012801D1022022E0012082F83C00106822
:1050200043681068846810680E4DA84203D0106869
:105030000D4DA84203D133F470034868034333F0A5
:1050400070030868034334F08004886804431068E0
:10505000436010688460002082F83C00002030BC6F
:1050600070470000002C01400034014002480168F4
:10507000491C0160704700BFA41400207047000065
:1050800070470000005EBCE2613FDD83C29C7E2071
:10509000A3FD1F419DC3217FFCA2401E5F01E3BD14
:1050A0003E6082DC237D9FC1421CFEA0E1BF5D0308
:1050B00080DE3C62BEE0025CDF81633D7C22C09EFC
:1050C0001D43A1FF4618FAA427799BC584DA3866E8
:1050D000E5BB5907DB856739BAE406581947A5FBD4
:1050E0007826C49A653BD987045AB8E6A7F91B45C8
:1050F000C6987A24F8A6441A99C7257B3A6486D8BC
:105100005B05E7B98CD2306EEDB3510F4E10F2ACA7
:105110002F7193CD114FADF3702ECC92D38D6F3193
:10512000B2EC0E50AFF1134DCE90722C6D33D18F87
:105130000C52B0EE326C8ED0530DEFB1F0AE4C127B
:1051400091CF2D73CA947628ABF517490856B4EA67
:105150006937D58B5709EBB536688AD495CB297753
:10516000F4AA4816E9B7550B88D6346A2B7597C947
:105170004A14F6A8742AC896154BA9F7B6E80A543B
:10518000D7896B351048016851F4700101600F49EF
:10519000086850F00100086000200D4A10600A689D
:1051A0000C4802400A604FF480500B4A10600868B7
:1051B00030F4802008600020084908605FF000603B
:1051C000074908607047000088ED00E000100240C9
:1051D00008100240FFFFF6EA0C10024018100240CF
:1051E00008ED00E0443A5C50726F6A6563744D43A9
:1051F000555C73746D33326C34373650726F6A6538
:105200006374735C6473705C707269656D4E444D59
:105210006473705C5372635C6932632E63000000D8
:10522000443A5C50726F6A6563744D43555C7374A5
:105230006D33326C34373650726F6A656374735CE9
:105240006473705C707269656D4E444D6473705C1C
:105250005372635C6D61696E2E630000443A5C506A
:10526000726F6A6563744D43555C73746D33326C51
:1052700034373650726F6A656374735C6473705C44
:10528000707269656D4E444D6473705C5372635CFB
:105290007370692E63000000443A5C50726F6A6557
:1052A00063744D43555C73746D33326C34373650D0
:1052B000726F6A656374735C6473705C7072696545
:1052C0006D4E444D6473705C5372635C74696D2EF3
:1052D00063000000443A5C50726F6A6563744D432A
:1052E000555C73746D33326C34373650726F6A6547
:1052F0006374735C6473705C707269656D4E444D69
:105300006473705C5372635C75736172742E6300B6
:1053100030B4002512E050F8042BD30744BF4A44B0
:10532000521E091F042942F8045BFAD213468C0767
:1053300044BF15809B1CC90748BF1D7050F8041B53
:105340000029E8D130BC7047A0860100400D030061
:10535000801A060000350C0040420F0080841E00B9
:1053600000093D0000127A000024F40000366E01AE
:105370000048E801006CDC0210B507497944183197
:10538000064C7C44163404E00A68081D1144884722
:105390000146A142F8D110BD2C00000048000000D9
:1053A0004EF68851CEF20001086840F470000860A3
:1053B000BFF34F8FBFF36F8F4FF00170E1EE100A14
:1053C000704700004DFFFFFFD40D00000C070020C8
:1053D00000000000B3BCFFFFEC0100002C01000046
:1053E0000000002000F00DF8002801D0FFF7C4FFF6
:1053F000AFF300800020AFF30080FBF717FD00F053
:1054000002F80120704700F001B800000746384656
:1054100000F002F8FBE7000080B5AFF30080024A1D
:1054200011001820ABBEFBE726000200054801462C
:1054300003B4684680F30988AFF30080FFF7B0FF3C
:10544000FFF7D0FFA5EDF5FE000000000000000012
:105450000102030406070809014880470148004784
:10546000855100082D5400081F1D1F1E1F1E1F1FE1
:105470001E1F1E1F1F1C1F1E1F1E1F1F1E1F1E1F45
:10548000EFEFEFEFEF000000000000000102030467
:10549000FFF7FEBFFFF7FEBFFFF7FEBFFFF7FEBF40
:1054A000FFF7FEBFFFF7FEBFFFF7FEBFFFF7FEBF30
:1054B000FFF7FEBFFFF7FEBFFFF7FEBFFFF7FEBF20
:1054C000FFF7FEBFFFF7FEBFFFF7FEBFFFF7FEBF10
:1054D000FFF7FEBFFFF7FEBFFFF7FEBFFFF7FEBF00
:1054E000FFF7FEBFFFF7FEBFFFF7FEBFFFF7FEBFF0
:1054F000FFF7FEBFFFF7FEBFFFF7FEBFFFF7FEBFE0
:10550000FFF7FEBFFFF7FEBFFFF7FEBFFFF7FEBFCF
:10551000FFF7FEBFFFF7FEBFFFF7FEBFFFF7FEBFBF
:10552000FFF7FEBFFFF7FEBFFFF7FEBFFFF7FEBFAF
:10553000FFF7FEBFFFF7FEBFFFF7FEBFFFF7FEBF9F
:10554000FFF7FEBFFFF7FEBFFFF7FEBFFFF7FEBF8F
:10555000FFF7FEBFFFF7FEBFFFF7FEBFFFF7FEBF7F
:10556000FFF7FEBFFFF7FEBFFFF7FEBFFFF7FEBF6F
:10557000FFF7FEBFFFF7FEBFFFF7FEBFFFF7FEBF5F
:10558000FFF7FEBFFFF7FEBFFFF7FEBFFFF7FEBF4F
:10559000FFF7FEBFFFF7FEBFFFF7FEBFFFF7FEBF3F
:1055A000FFF7FEBFFFF7FEBFFFF7FEBFFFF7FEBF2F
:1055B000FFF7FEBFFFF7FEBFFFF7FEBFFFF7FEBF1F
:1055C000FFF7FEBFF001FF00030001F1FF01F1FF53
:1055D00001B101100344140020450412460412478F
:1055E00004124804124904124A04124B04124C04D7
:1055F000124D04124E04124F04125004125104FDB5
:10560000B776031234CC1235041236041237041262
:105610003804123904123A04123B04123C04123DBD
:1056200004123E04923FF812400CF66F410810023B
:10563000093D000181210452FF01A110610CA10468
:10564000F103282101F10734F1FF01F17F01000886
:0A565000F4014003786978690E0246
:040000050800542D6E
:00000001FF
